:040000009031002813
:0E000600F201F101F001F801F30100300800F1
:10001400FB14FB1F1428FF30F300F200F100F00082
:08002400FA0DF20CFF30080098
:08002C00FA1FF2130030080076
:100034007B15FB1F24280130F300F201F101F001CC
:08004400FA0DF20CFF30080078
:10004C007408F8027508031C750FF9027608031C76
:10005C00760FFA027708031C770FFB02F30D0730BB
:10006C00FC00730DF80DF90DFA0DFB0D7408731CE3
:10007C004D28F8027508031C750FF9027608031C4D
:10008C00760FFA027708031C770FFB025A28F80741
:10009C0075080318750FF90776080318760FFA0719
:1000AC0077080318770FFB07F30DFC0B3728720D3D
:1000BC00F80DF90DFA0DFB0D7408731C7328F8027A
:1000CC007508031C750FF9027608031C760FFA02EB
:1000DC007708031C770FFB028028F80775080318B4
:1000EC00750FF90776080318760FFA0777080318C7
:1000FC00770FFB07F20D0730FC00720DF80DF90DB0
:10010C00FA0DFB0D7408721C9928F8027508031C73
:10011C00750FF9027608031C760FFA027708031C98
:10012C00770FFB02A628F80775080318750FF90757
:10013C0076080318760FFA0777080318770FFB0772
:10014C00F20DFC0B8328710DF80DF90DFA0DFB0D5A
:10015C007408721CBF28F8027508031C750FF9028D
:10016C007608031C760FFA027708031C770FFB0244
:10017C00CC28F80775080318750FF90776080318CB
:10018C00760FFA0777080318770FFB07F10D073086
:10019C00FC00710DF80DF90DFA0DFB0D7408711CB6
:1001AC00E528F8027508031C750FF9027608031C84
:1001BC00760FFA027708031C770FFB02F228F80778
:1001CC0075080318750FF90776080318760FFA07E8
:1001DC0077080318770FFB07F10DFC0BCF28700D78
:1001EC00F80DF90DFA0DFB0D7408711C0B29F802B2
:1001FC007508031C750FF9027608031C760FFA02BA
:10020C007708031C770FFB021829F80775080318E9
:10021C00750FF90776080318760FFA077708031895
:10022C00770FFB07F00D0730FC00700DF80DF90D82
:10023C00FA0DFB0D7408701C3129F8027508031CAB
:10024C00750FF9027608031C760FFA027708031C67
:10025C00770FFB023E29F80775080318750FF9078D
:10026C0076080318760FFA0777080318770FFB0741
:10027C00F00DFC0B1B29701851297408F807750830
:10028C000318750FF90776080318760FFA07770825
:08029C000318770FFB070800AF
:1002A400A1017208031D67297108F2007008F100AA
:1002B400F001A1157208031D67297108F200F1010C
:1002C400A11121167208031975292108F302031DCF
:1002D400031C79290310F21B7D29F00DF10DF20D99
:1002E400F30B6D2979290130FC00032080290230A9
:0E02F400FC001A2080290430FC0016200800AF
:100302007C18B729FC1888297C19D6298129A101D2
:100312007208031DA8297108F2007008F10078081C
:10032200F000F801A1157208031DA8297108F20056
:100332007008F100F001A11121167208031DA8290D
:100342007108F200F101A11572080319CA292108E6
:10035200F302031D031CCE290310F21BB729F80D6B
:10036200F00DF10DF20DF30BAE29CE297B1B701CA3
:10037200D229F81FD229F00A0319F10A0319F20A45
:10038200031DD229F20CF10CF00CF30A0319D62941
:10039200D2290130FC000320D9290230FC001A20A6
:1003A200D9290430FC001620D9290830FC000A2083
:0403B200000008003F
:1003B600FB09FA09F909F809F80A0319F90A0319F0
:0803C600FA0A0319FB0A080002
:1003CE002000FB017308031D770803193D2A7208EC
:1003DE007606FA007708F3077E30031CFA29F3023B
:1003EE000318402AFD29F302031C432A7208F80061
:1003FE007108FC007008FD00F817F6170310F201E3
:10040E00F101F0011830A1007D1C172A7408F007C5
:10041E0075080318750FF10776080318760FF207A3
:10042E00F20CF10CF00CF80CFC0CFD0C0310A10BF3
:10043E000B2AF21B272AF80DF00DF10DF20DF30326
:10044E007B1B701C392AF81F392AF00A0319F10A8E
:10045E000319F20A031D392AF20CF10CF00CF30AFF
:10046E000319402AFA1FF2130030452A01300320E7
:10047E00452A02300A20452A04301A2000000800BE
:10048E007408003A031D602A7508003A031D602A9D
:10049E007608003A031D602A7708003A031D602A89
:1004AE00FF30F000FF30F100FF30F2007F30F3003C
:1004BE00F82A2000FC01F71BFC0AFD01FB01FA01E2
:1004CE00F901F80173087204710470040319F32A18
:1004DE0073087706A000A01BFD09F71F812AF409F7
:1004EE00F509F609F709F40A0319F50A0319F60ACC
:1004FE000319F70AF31F8E2AF009F109F209F3091D
:10050E00F00A0319F10A0319F20A0319F30A730820
:10051E007704A000A01BAF2A2620FC1BCC2AFD1FAF
:10052E00F32AF009F109F209F309F00A0319F10AA5
:10053E000319F20A0319F30AF809F909FA09FB0972
:10054E00F80A0319F90A0319FA0A0319FB0AF32A1E
:10055E00F71FC62AF31BC02A7308FB007208FA00A5
:10056E007108F9007008F800F301F201F101F001D1
:10057E00962AF301F201F101F001F00A0034F309B9
:10058E00F209F109F009FC17932AF80A0319F90A7E
:10059E000319FA0A0319FB0A74087802031D962A36
:1005AE0075087902031D962A76087A02031D962A8B
:1005BE0077087B02031D962AFB01FA01F901F80167
:1005CE00F00A0319F10A0319F20A0319F30AF31FC9
:1005DE00962AA0012016FF34A0017C1CF72ADB21ED
:0405EE00003E0800C3
:1005F200200072087606A100F801F901730877025B
:10060200031C1B2B7708FD007308F7007D08F3001D
:100612007608FD007208F6007D08F2007508FD00FC
:100622007108F5007D08F1007408FD007008F400FF
:100632007D08F00077080319942B7208FA00F2176C
:10064200F61777087302F70003194E2B083077026A
:10065200031C442BF7007408F9007508F4007608AF
:10066200F500F60108307702031C442BF7007408EA
:10067200F9007508F400F50108307702031C442BD9
:100682007A08F200942B770803194E2B0310F60C0C
:10069200F50CF40CF90CF70B472BA11F5B2BF90996
:1006A200F409F509F609F90A0319F40A0319F50A16
:1006B2000319F60A7908F80774080318740FF0078B
:1006C20075080318750FF10776080318760FF207FD
:1006D200A11B742B031C842BF20CF10CF00CF80CF4
:1006E200F30F842B902B0318882BF809F009F109DA
:1006F200F209F80A0319F00A0319F10A0319F20AB6
:100702008030FA068C2B0130FC008121962B0230BE
:10071200FC008121962B0430FC005221962B0830DC
:0E072200FC000A20962B0030FC0000000800AE
:0E0730004030F0001F30F100F201F30108002C
:10073E0020002230FC00F801F901FA01FB01FC0354
:10074E000319D42B0310FB0CFA0CF90CF80CF30C58
:10075E00F20CF10CF00C031CA62BFC030319C62B98
:10076E007408F80775080318750FF907760803184B
:10077E00760FFA0777080318770FFB07AA2B740872
:10078E00F80775080318750FF90776080318760F22
:0C079E00FA0777080318770FFB07080024
:0607AA00FB15FF30080002
:1007B0002000FA017308031D7A147708031DFA1448
:1007C0007A080319232C033A0319EE2B7A18EB2B22
:1007D000F61F212C1F2CF21F1F2C212C7208803990
:1007E000FA00F21376088039F6137A060319FC2B07
:1007F0007A0803191F2C212C770873020319032C84
:10080000031C172C1B2C7608720203190A2C031CDC
:10081000172C1B2C750871020319112C031C172CA3
:100820001B2C740870020319232C03181B2CFA08C4
:100830000319212C1F2CFA0803191F2C212C031437
:0E084000080003100800031403150800080048
:10084E002000E903E9036908003C0318332CE9038F
:10085E000000000000002A2C000000000000000034
:04086E00000008007E
:0C0872000E30FD00FD0B3B2C00000800C8
:10087E007B14FB1F4A2CF201FA1FFF30F200F1002D
:0A088E00F000FA0DF20CFF30080034
:100898007408003A031D652C7508003A031D652C81
:1008A8007608003A031D652C7708003A031D652C6D
:1008B800FF30F000FF30F1007F30F200FF30F3002E
:1008C800FF2C200077080319F32C73080319F62C62
:1008D800720876068039FA00F217F617A101720835
:1008E800F8007108FC007008FD007408FD02750826
:1008F800031C750FFC027608031C760FF802F8013A
:10090800FC01FD01031C8F2C0310F20CF10CF00C00
:10091800F80C0130A1007708F302031C992C7E30F3
:100928002107F3070318F92C9E2C7E302107F307C3
:10093800031CFC2C1830FA07FD0DFC0DF80DF00D0A
:10094800F10DF20DA10D7408F0027508031C750F66
:10095800F1027608031C760FF202760DA104211C21
:10096800B72C7D14C22C7408F00775080318750F8E
:10097800F10776080318760AF2077D10FA031F308C
:100988007A05031DA02C7B1B7D1CE92C0310F00DA0
:10099800F10DF20DA10D7408F0027508031C750F16
:1009A800F1027608031C760FF202760D2104013954
:1009B800FD070318FC0A0319F80A031DE92CF80CB3
:1009C800FC0CFD0CF30A0319F92CFA1FF81378082C
:1009D800F2007C08F1007D08F0000030FE2C0130A8
:1009E800D523FE2C02300320FE2C04300A20FE2CD6
:0809F80008301A20000008007D
:100A0000803020005706F00080307002031D0A2D50
:100A1000003056020318152D5608003CF000570808
:100A2000031C013EF101F102192D5608F000570890
:040A3000F1000800C9
:100A3400833021009D0520005608F000F035F03584
:100A4400700821009D0439249D149D1C2A2D272DF6
:100A54001C08F100F0011B08F0040030F104080048
:100A640056302000DC000030DD0003305C078400D9
:100A740000305D3D850000085A07F10000305B3D01
:100A8400F2007108DA007208DB0080307206F000B0
:100A940080307002031D502D003071020318572D51
:100AA400F001F101F201F301982D8030F000803063
:100AB4005B067002031D602D5A08FF3C0318882D45
:100AC400F401F501F601F7015608F0005708F100AA
:100AD4005808F2005908F300D823013003180030F5
:100AE400F000700803197F2DFF30F000FF30F10093
:100AF400FF30F200FF30F300982DFF30F000FF309C
:100B0400F1007F30F200FF30F300982D03305C07D2
:100B1400860000305D3D87005A0881005608F000C9
:0E0B24005708F1005808F2005908F3000800C5
:100B32002000FB0173080319D52D7208FA00F21781
:100B42008E30F302F31FD82DF309F30A0830730233
:100B5200031CBB2DF300F10D7208F100F201083005
:100B62007302031CBB2DF300F10DF1017308031D89
:100B72000310C32D73080319C32D0310F20CF10CDB
:100B8200F30BBE2D7B1B711CCD2D031CCD2DF10A49
:100B92000319F20AF21BE42DFA1FE72DF209F109FB
:100BA200F10A0319F20AE72DF201F101E72D7B1494
:100BB200FB1FEA2DF201FA1FEA2DFF30F200F100CD
:100BC200FA0DF20CEA2D0130FC00EC2D0030FC0095
:100BD200EC2DFF30FC00FC080319F02D3F247108B6
:080BE200F0007208F1000800A8
:100BEA0001302000D7002208D6062A0884002B08E4
:100BFA0085002208003A0319052E31088004072EC1
:100C0A00230880052408E9002724D6095708031970
:100C1A00242E57085605F000031D162E31088004AD
:100C2A00182E23088005D73502302402E90027242C
:100C3A000000000000000000000000000B2E220847
:100C4A00003A03192B2E230880052D2E3108800423
:080C5A002408E900272408002A
:100C620020007008F8007108F000F101F201F301B0
:100C7200FB01FC019630F300FA01F01F462EF80941
:100C8200F009F80A0319F00AFA177008F100780857
:0A0C9200F000F801F2015221080001
:100C9C0020005608AA005708AB005808F000013095
:100CAC00F200700803195D2EF235FF3E582E7208C3
:100CBC00B0007209B2005908F1000130F00071085F
:100CCC0003196B2EF035FF3E662E7008B100F0094B
:100CDC007008A3008030560784000030573D850013
:100CEC007208800470088005A2015E0803197F2E2B
:100CFC00A209803084022208003A0319882E2308A6
:100D0C0080058A2E310880049823E830F4000330E3
:100D1C00F500F601F7019F237008DF007108E00071
:100D2C007208E1007308E2005A08F0005B08F10059
:100D3C005C08F2005D08F300F035F10DF20DF30DD7
:100D4C00F035F10DF20DF30D0A30F400F501F6015A
:100D5C00F7019F237008E3007108E4007208E500B6
:100D6C007308E6007008F4007108F5007208F600CC
:100D7C007308F7005F08F0006008F1006108F200EA
:100D8C006208F30047227008E7007108E800710858
:100D9C00F400F501740875040319D72E0230F00025
:100DAC00282F6708A4006308F4006408F5006508A0
:100DBC00F6006608F7005F08F0006008F1006108B3
:100DCC00F2006208F30047227808F0007908F1007D
:100DDC007A08F2007B08F3007008DF007108E0006D
:100DEC007208E1007308E2006308F5006408F6007D
:100DFC006508F7006608F800F837F70CF60CF50CE8
:100E0C0080307806F400803073067402031D182FAE
:100E1C0072087702031D182F71087602031D182F14
:100E2C007008750203181B2FA40A2408F100F13670
:100E3C007108A900073071020318272F0130F00048
:060E4C00282FF001080050
:100E520020005C08F0005D08F100F035F10DF0357E
:100E6200F10D70085A07840071085B3D8500000887
:100E7200DE0001310008DF0001310008E00001312D
:100E82000008E1005C085D0403197F2F5608F0009A
:100E92005708F1005808F2005908F3005E08F40000
:100EA2005F08F5006008F6006108F700E7210130ED
:100EB200DC020030DD3B5C08F4005D08F500F4352F
:100EC200F50DF435F50D74085A07840075085B3D7D
:100ED20085000008F40001310008F5000131000826
:100EE200F60001310008F700F9227008DE007108EF
:100EF200DF007208E0007308E100432F5E08F00093
:0E0F02005F08F1006008F2006108F3000800CB
:0A0F100020008030F606F9220800E8
:100F1A005630F4000030F5000330740784000030C6
:100F2A00753D85007E300002F000F1010030F13B92
:100F3A0020005A0886005B08870070088100710843
:100F4A00413181000330740786000030753D870007
:100F5A007E3081005608F0005708F1005808F20068
:060F6A005908F300080025
:100F7000F401F501F601F70120005608F0005708CA
:100F8000F1005808F2005908F300D8230130031883
:100F90000030F00070080319DA2F00305606F00018
:100FA00000305706F10080305806F2000030590634
:100FB000F300E22F5608F0005708F1005808F2003D
:060FC0005908F3000800CF
:100FC60023009E18E82F0000E32F20005608230078
:040FD6009A00080075
:100FDA001A302000AC000530AD005630AE000030AB
:0E0FEA00AF00F03021009E009D011D14080094
:10100000E3302000A5000730A6005630A7000030CE
:10101000A800FF30BB00FF30BC000030BD00003036
:10102000BE00FF30B700FF30B8000030B90000301C
:10103000BA00FF30B300FF30B4000030B50000301C
:10104000B60023009E1690309D0021008E170E13CF
:101050002000911E2F2823001908F00028280800DE
:10106000200073087706031D422872087606031DC8
:10107000422871087506031D42287008740603197A
:0A1080000315080003110800080022
:10108A002000D6018031E3278831F401F501F60109
:10109A00F70120004708F0004808F1004908F2006B
:1010AA004A08F3008031D82388310130031C00300C
:1010BA00F000700803196328F00165280130F00078
:1010CA007008D6008031E327883120004708F000F5
:1010DA004808F1004908F2004A08F30080319925CE
:1010EA0088317008D6007108D70080310025883110
:1010FA008031312688310030F4000030F50020308C
:10110A00F6008230F7008031E72188318031992555
:10111A0088317008D6008031E32788312000D60153
:10112A008031F5258831F401F501F601F7014B0804
:10113A00F0004C08F1004D08F2004E08F30080312F
:10114A00D82388310130031C0030F00070080319DD
:10115A00B028F001B2280130F0007008D6008031C2
:10116A00F52588314B08F0004C08F1004D08F200D3
:10117A004E08F3008031992588317008D60071082D
:10118A00D7008031002588318031312688310030FE
:10119A00F4000030F5002030F6008230F70080318C
:1011AA00E72188318031992588317008D60080314D
:0611BA00F5258831080054
:1011C00020004708D6004808D7004908D8004A0838
:1011D000D9008031B82788317008CC007108CD0063
:1011E0007208CE007308CF00F401F501F601F70193
:1011F00030200130031D0030F0007008031905296C
:10120000F001F101F201F301FC294C08F4004D0852
:10121000F5004E08F6004F08F7000030F0000030EF
:10122000F1000030F2007F30F3008031D8238831A4
:10123000013003180030F0007008CB00700803196B
:101240003C294C08F4004D08F5004E08F6004F0804
:10125000F7000030F0000030F1000030F2007F3085
:10126000F30080314C2488317008CC007108CD0027
:101270007208CE007308CF004C08F0004D08F10052
:101280004E08F2004F08F3004C08F4004D08F5003A
:101290004E08F6004F08F7008031E72188317008CA
:1012A000D0007108D1007208D2007308D300700812
:1012B000D6007108D7007208D8007308D900D23060
:1012C000DA008B30DB000530DC000030DD008031DF
:1012D000292788314C08F4004D08F5004E08F60027
:1012E0004F08F7008031E72188317008CC00710881
:1012F000CD007208CE007308CF005008D600510808
:10130000D7005208D8005308D900EA30DA008B30F1
:10131000DB000430DC000030DD008031292788311B
:101320007008F4007108F5007208F6007308F70001
:101330004C08F0004D08F1004E08F2004F08F30091
:1013400080314C2488317008CC007108CD007208BF
:10135000CE007308CF004B080319C9294C08F400CC
:101360004D08F5004E08F6004F08F700DB30F0009E
:101370000F30F1004930F2007F30F30080318827D0
:1013800088317008CC007108CD007208CE00730857
:10139000CF00F401F501F601F7014708F000480815
:1013A000F1004908F2004A08F3008031D82388315F
:1013B000013003180030F00070080319EC290030E8
:1013C0004C06F00000304D06F10080304E06F20071
:1013D00000304F06F300F4294C08F0004D08F100EE
:1013E0004E08F2004F08F3007008CC007108CD00E1
:0A13F0007208CE007308CF00080059
:1013FA0020007008F8007108F000F101F201F30111
:10140A00FB01FC019630F300FA017008F10078083C
:0E141A00F000F801F201803152218831080003
:1014280020004708F4004808F5004908F6004A0873
:10143800F700F001F101F201F3018031D82388317E
:101448000130031C0030F00070080319302AF00145
:10145800F101F201F3012A2B4708CB004808CC0020
:101468004908CD004A08CE000030F4000030F500ED
:101478000030F6007F30F7004708F0004808F10018
:101488004908F2004A08F3008031D8238831013036
:1014980003180030F000700803196D2A4B08F40097
:1014A8004C08F5004D08F6004E08F7000030F00033
:1014B8000030F1000030F2007F30F30080314C241E
:1014C80088317008CB007108CC007208CD00730811
:1014D800CE004B08D6004C08D7004D08D8004E085F
:1014E800D9005430DA000030DB0080318D27883194
:1014F8007008CB007108CC007208CD007308CE00CC
:101508007008D6007108D7007208D8007308D9008F
:101518005408DA005508DB00DB37DA0C8031322555
:1015280088317008CB007108CC007208CD007308B0
:10153800CE000030F4000030F5000030F6007F30B7
:10154800F7004708F0004808F1004908F2004A0887
:10155800F3008031D8238831013003180030F000BF
:1015680070080319D22A4B08F4004C08F5004D08FE
:10157800F6004E08F7000030F0000030F1000030AF
:10158800F2007F30F30080314C2488317008CB00A2
:101598007108CC007208CD007308CE001430D30057
:1015A8004B08F4004C08F5004D08F6004E08F7000B
:1015B8004708F0004808F1004908F2004A08F3001B
:1015C80080314C2488314B08F4004C08F5004D0854
:1015D800F6004E08F7008031F92288310030F40017
:1015E8000030F5000030F6008030F70080314C24E0
:1015F80088317008CF007108D0007208D1007308D4
:10160800D2004B08F4004C08F5004D08F6004E08CF
:10161800F70030200130031D0030F0007008031976
:10162800162B222B4F08CB005008CC005108CD00B8
:101638005208CE00D3035308031DD42A4B08F000E8
:0E1648004C08F1004D08F2004E08F3000800B7
:101656008031ED27883120004708D60080311A25D1
:0616660088311D10080090
:10166C0020007008F800FB01FC019E30F300FA0129
:10167C00F201F101F0010230FC008031812188314E
:02168C00080054
:10168E00703021009900073095002F3023008C0018
:10169E008D018F0190012F3021008C0020308D00A4
:1016AE008E018F01900120008C018D018E018F0122
:1016BE0090018031ED27883123009F15CF309B009C
:1016CE009C011E1500200D302000D6000030D700E2
:1016DE000630D8000430D9008030DA002530DB0027
:1016EE00DC01DD01DE0180314E2688311A30FC002E
:1016FE00F830FD00FD0B812BFC0B812B0000080048
:10170E0012001E00F003031D872BF103031D872B10
:02171E000800C1
:10200000903084008B308500A0308600003087003F
:102010004230F0000130F10088318723903188315F
:10202000472390312100E001E10180306106F0009A
:1020300080307002031D1E286430600203189B2844
:102040002000C70188312B2390318831FD21903148
:1020500021002008F4002108F5002208F6002308DA
:10206000F7008031F922903170082100A00071083A
:10207000A1007208A2007308A30001302000C7006D
:1020800088312B2390318831FD21903121002408A3
:10209000F4002508F5002608F6002708F70080312F
:1020A000F922903170082100A4007108A50072087F
:1020B000A6007308A70003302000C70088312B2337
:1020C00090318831FD21903121002808F400290841
:1020D000F5002A08F6002B08F7008031F92290312C
:1020E00070082100A8007108A9007208AA007308EE
:1020F000AB0004302000C70088312B239031883199
:10210000FD21903121002C08F4002D08F5002E0847
:10211000F6002F08F7008031F92290317008210075
:10212000AC007108AD007208AE007308AF00E00AA1
:102130000319E10A15280030F4000030F50048309A
:10214000F6008530F7002008F0002108F100220891
:10215000F2002308F30080314C24903170082100F4
:10216000A0007108A1007208A2007308A30000304B
:10217000F4000030F5004830F6008530F700240800
:10218000F0002508F1002608F2002708F30080314E
:102190004C24903170082100A4007108A500720839
:1021A000A6007308A7000030F4000030F5004830A6
:1021B000F6008530F7002808F0002908F1002A0809
:1021C000F2002B08F30080314C249031700821007C
:1021D000A8007108A9007208AA007308AB000030BB
:1021E000F4000030F5004830F6008530F7002C0888
:1021F000F0002D08F1002E08F2002F08F3008031C6
:102200004C24903170082100AC007108AD007208B8
:10221000AE007308AF002000C701C801C901CA01A0
:10222000CB01CC01CD01CE01883145209031033066
:10223000FC009730FD00FD0B1B29FC0B1B29000047
:1022400000008D1E0B2921003008B4003108B500B4
:102250003208B6003308B7003808BC003908BD00A2
:102260003A08BE003B08BF004008C4004108C50052
:102270004208C6004308C70020009501C701883105
:102280002B2390318831FD21903121002008F4006A
:102290002108F5002208F6002308F700803188277E
:1022A00090310030F4000030F5002030F600773037
:1022B000F7008031E721903170082100B0007108EB
:1022C000B1007208B2007308B30001302000C700EB
:1022D00088312B2390318831FD2190312100240851
:1022E000F4002508F5002608F6002708F7008031DD
:1022F000882790310030F4000030F5002030F600DF
:102300007730F7008031E721903170082100B80064
:102310007108B9007208BA007308BB0002302000CF
:10232000C70088312B2390318831FD219031003056
:10233000F4004030F5007B30F6008730F700803144
:10234000882790310030F4000030F5002030F6008E
:102350007730F7008031E721903170082100C0000C
:102360007108C1007208C2007308C3000330200066
:10237000C70088312B2390318831FD219031210015
:102380002808F4002908F5002A08F6002B08F700B1
:102390008031882790314C30F4003730F500093017
:1023A000F6007030F7008031E7219031700821008D
:1023B000C8007108C9007208CA007308CB00043055
:1023C0002000C70088312B2390318831FD219031C6
:1023D00021002C08F4002D08F5002E08F6002F0827
:1023E000F7008031882790314C30F4003730F50009
:1023F0000930F6007030F7008031E7219031700825
:102400002100CC007108CD007208CE007308CF0007
:102410003408F0003508F1003608F2003708F30000
:102420006630F4006630F5006630F6007E30F70066
:102430008031E72190317008BF007108C000720838
:10244000C1007308C20021003008F0003108F1001B
:102450003208F2003308F300CD30F400CC30F50040
:102460004C30F6007B30F7008031E72190313F0897
:10247000F4004008F5004108F6004208F7008031FA
:10248000F922903170082100B0007108B100720883
:10249000B2007308B3003C08F0003D08F1003E08AC
:1024A000F2003F08F3006630F4006630F500663055
:1024B000F6007E30F7008031E72190317008BF00D0
:1024C0007108C0007208C1007308C20021003808FA
:1024D000F0003908F1003A08F2003B08F300CD3073
:1024E000F400CC30F5004C30F6007B30F700803142
:1024F000E72190313F08F4004008F5004108F6005C
:102500004208F7008031F922903170082100B800AC
:102510007108B9007208BA007308BB004408F000E3
:102520004508F1004608F2004708F3006630F40061
:102530006630F5006630F6007E30F7008031E72126
:1025400090317008BF007108C0007208C1007308A4
:10255000C20021004008F0004108F1004208F200EA
:102560004308F300CD30F400CC30F5004C30F600D9
:102570007B30F7008031E72190313F08F4004008BC
:10258000F5004108F6004208F7008031F922903149
:1025900070082100C0007108C1007208C2007308F1
:1025A000C3003808F0003908F1003A08F2003B088F
:1025B000F3003808F4003908F5003A08F6003B0843
:1025C000F7008031E72190317008BF007108C0002A
:1025D0007208C1007308C20021004008F0004108E1
:1025E000F1004208F2004308F3004008F4004108FB
:1025F000F5004208F6004308F7008031E7219031EA
:102600003F08F4004008F5004108F6004208F700D2
:102610008031F92290317008C7007108C800720833
:10262000C9007308CA008831142290317008F40080
:102630007108F5007208F6007308F70021003008F1
:10264000F0003108F1003208F2003308F300803165
:102650004C2490317008C7007108C8007208C90086
:102660007308CA008831E0209031E030F4002E3049
:10267000F5006530F6008430F7008031E7219031B5
:1026800070082100D0007108D1007208D2007308D0
:10269000D3003008F0003108F1003208F2003308AE
:1026A000F3003008F4003108F5003208F600330872
:1026B000F7008031E72190317008BF007108C00039
:1026C0007208C1007308C20021004008F0004108F0
:1026D000F1004208F2004308F3004008F40041080A
:1026E000F5004208F6004308F7008031E7219031F9
:1026F0003F08F4004008F5004108F6004208F700E2
:102700008031F92290317008C7007108C800720842
:10271000C9007308CA008831142290317008F4008F
:102720007108F5007208F6007308F70021003808F8
:10273000F0003908F1003A08F2003B08F30080315C
:102740004C2490317008C7007108C8007208C90095
:102750007308CA008831E0209031E030F4002E3058
:10276000F5006530F6008430F7008031E7219031C4
:1027700070082100D4007108D5007208D6007308D3
:10278000D70020001508F000883136239031BD3085
:10279000F4003730F5000630F6007230F700803173
:1027A000E721903121004808F4004908F5004A0863
:1027B000F6004B08F7008031E72190317008C30024
:1027C0007108C4007208C5007308C600B630F00076
:1027D0003D30F1001F30F2007F30F3002100580837
:1027E000F4005908F5005A08F6005B08F70080313C
:1027F000E72190317008BF007108C0007208C10065
:102800007308C2001508F000883136239031BD30BE
:10281000F4003730F5000630F6007230F7008031F2
:10282000E72190313F08F4004008F5004108F60028
:102830004208F7008031E72190317008F4007108F8
:10284000F5007208F6007308F7004308F00044082A
:10285000F1004508F2004608F300803188279031E6
:102860007008C3007108C4007208C5007308C60070
:10287000B630F0003D30F1001F30F2007F30F30041
:1028800021005008F4005108F5005208F6005308E2
:10289000F7008031E72190317008BF007108C00057
:1028A0007208C1007308C2001508F0008831362391
:1028B0009031BD30F4003730F5000630F60072304C
:1028C000F7008031E72190313F08F4004008F5001F
:1028D0004108F6004208F7008031E72190314308B3
:1028E000F4004408F5004508F6004608F70080317A
:1028F000F922903121005808F4005908F5005A08CF
:10290000F6005B08F7008031F92290317008210051
:10291000D8007108D9007208DA007308DB002000C3
:102920001508F000883136239031BD30F40037307F
:10293000F5000630F6007230F7008031E721903163
:1029400021004C08F4004D08F5004E08F6004F0831
:10295000F7008031E72190317008C3007108C4008E
:102960007208C5007308C600B630F0003D30F100B3
:102970001F30F2007F30F30021005C08F4005D0896
:10298000F5005E08F6005F08F7008031E72190311E
:102990007008BF007108C0007208C1007308C2004F
:1029A0001508F000883136239031BD30F4003730FF
:1029B000F5000630F6007230F7008031E7219031E3
:1029C0003F08F4004008F5004108F6004208F7000F
:1029D0008031E72190317008F4007108F500720829
:1029E000F6007308F7004308F0004408F1004508BA
:1029F000F2004608F3008031882790317008C30048
:102A00007108C4007208C5007308C600B630F00033
:102A10003D30F1001F30F2007F30F30021005408F8
:102A2000F4005508F5005608F6005708F700803105
:102A3000E72190317008BF007108C0007208C10022
:102A40007308C2001508F000883136239031BD307C
:102A5000F4003730F5000630F6007230F7008031B0
:102A6000E72190313F08F4004008F5004108F600E6
:102A70004208F7008031E72190314308F400440810
:102A8000F5004508F6004608F7008031F92290313C
:102A900021005C08F4005D08F5005E08F6005F08A0
:102AA000F7008031F922903170082100DC007108B4
:102AB000DD007208DE007308DF005808F4005908D2
:102AC000F5005A08F6005B08F700CD30F000CC3076
:102AD000F100CC30F2007B30F3008031D82390310C
:102AE000013003180030F00070080319972DCD3025
:102AF000F400CC30F5004C30F6007B30F7002100BC
:102B00005808F0005908F1005A08F2005B08F30079
:102B10008031D8239031013003180030F000700864
:102B20000319972D2100D801D901DA01DB01210019
:102B30005C08F4005D08F5005E08F6005F08F70029
:102B4000CD30F000CC30F100CC30F2007B30F3001F
:102B50008031D8239031013003180030F000700824
:102B60000319D22DCD30F400CC30F5004C30F600F6
:102B70007B30F70021005C08F0005D08F1005E0882
:102B8000F2005F08F3008031D82390310130031840
:102B90000030F00070080319D22D2100DC01DD01A6
:102BA000DE01DF01210000305C062000C3000030A0
:102BB00021005D062000C400803021005E06200058
:102BC000C500003021005F062000C6002100580823
:102BD000F0005908F1005A08F2005B08F3000030D9
:102BE000F4000030F5000030F6007E30F700803150
:102BF000E72190317008BF007108C0007208C10061
:102C00007308C2004308F0004408F1004508F200D0
:102C10004608F3003F08F4004008F5004108F600BC
:102C20004208F7008031F92290317008C70071081E
:102C3000C8007208C9007308CA00003021005C0691
:102C4000F00000305D06F10080305E06F2000030DA
:102C50005F06F30020003F08F4004008F50041083B
:102C6000F6004208F7008031882790317008CB00C9
:102C70007108CC007208CD007308CE008831452061
:062C800090310B29422EE9
:081720000034003400340034F1
:081728000034003400340034E9
:081730000034003400340034E1
:081738000034003400340034D9
:1017400000340034003400340034003400340034F9
:1017500000340034003400340034003400340034E9
:1017600000340034003400340034003400340034D9
:081770000034003400340034A1
:08177800003400340034003499
:08178000003400340034003491
:08178800003400340034003489
:08179000003400340034003481
:08179800003400340034003479
:0417A00000340034DD
:1017A40006343C34043484347D349F346A348434C1
:1017B4005C3490340134843460344D343B348134AB
:1017C4005134EC3447347C34DE348D349F347634F5
:1017D40006343C3404348434C03459340B348534F2
:1017E4007434043444348434F9349B344F348234B0
:0817F4000034003400347F349E
:020000040001F9
:04000E00A43F3316C2
:00000001FF
