:0400000090313629DC
:08000600FA1FF213003008009C
:10000E00FB14FB1F1128FF30F300F200F100F0008B
:08001E00FA0DF20CFF3008009E
:100026007B15FB1F1D280130F300F201F101F001E1
:08003600FA0DF20CFF30080086
:0E003E00F201F101F001F801F30100300800B9
:10004C007C185C28FC182D287C197B282628A101FB
:10005C007208031D4D287108F2007008F100780831
:10006C00F000F801A1157208031D4D287108F2006B
:10007C007008F100F001A11121167208031D4D2822
:10008C007108F200F101A115720803196F282108FB
:10009C00F302031D031C73280310F21B5C28F80DDC
:1000AC00F00DF10DF20DF30B532873287B1B701C14
:1000BC007728F81F7728F00A0319F10A0319F20AB6
:1000CC00031D7728F20CF10CF00CF30A03197B28B2
:1000DC0077280130FC001F207E280230FC00132002
:1000EC007E280430FC0003207E280830FC0007200A
:0400FC0000000800F8
:10010000A1017208031D95287108F2007008F10022
:10011000F001A1157208031D95287108F200F10184
:10012000A111211672080319A3282108F302031D47
:10013000031CA7280310F21BAB28F00DF10DF20DE4
:10014000F30B9B28A7280130FC001F20AE280230AB
:0E015000FC001320AE280430FC000320080041
:10015E00FB09FA09F909F809F80A0319F90A03194A
:08016E00FA0A0319FB0A08005C
:100176007408F8027508031C750FF9027608031C4B
:10018600760FFA027708031C770FFB02F30D073090
:10019600FC00730DF80DF90DFA0DFB0D7408731CB8
:1001A600E228F8027508031C750FF9027608031C8D
:1001B600760FFA027708031C770FFB02EF28F80781
:1001C60075080318750FF90776080318760FFA07EE
:1001D60077080318770FFB07F30DFC0BCC28720D7D
:1001E600F80DF90DFA0DFB0D7408731C0829F802B9
:1001F6007508031C750FF9027608031C760FFA02C0
:100206007708031C770FFB021529F80775080318F2
:10021600750FF90776080318760FFA07770803189B
:10022600770FFB07F20D0730FC00720DF80DF90D84
:10023600FA0DFB0D7408721C2E29F8027508031CB2
:10024600750FF9027608031C760FFA027708031C6D
:10025600770FFB023B29F80775080318750FF90796
:1002660076080318760FFA0777080318770FFB0747
:10027600F20DFC0B1829710DF80DF90DFA0DFB0D99
:100286007408721C5429F8027508031C750FF902CC
:100296007608031C760FFA027708031C770FFB0219
:1002A6006129F80775080318750FF907760803180A
:1002B600760FFA0777080318770FFB07F10D07305B
:1002C600FC00710DF80DF90DFA0DFB0D7408711C8B
:1002D6007A29F8027508031C750FF9027608031CC3
:1002E600760FFA027708031C770FFB028729F807B7
:1002F60075080318750FF90776080318760FFA07BD
:1003060077080318770FFB07F10DFC0B6429700DB6
:10031600F80DF90DFA0DFB0D7408711CA029F802F1
:100326007508031C750FF9027608031C760FFA028E
:100336007708031C770FFB02AD29F8077508031829
:10034600750FF90776080318760FFA07770803186A
:10035600770FFB07F00D0730FC00700DF80DF90D57
:10036600FA0DFB0D7408701CC629F8027508031CEB
:10037600750FF9027608031C760FFA027708031C3C
:10038600770FFB02D329F80775080318750FF907CD
:1003960076080318760FFA0777080318770FFB0716
:1003A600F00DFC0BB0297018E6297408F8077508DB
:1003B6000318750FF90776080318760FFA077708FA
:0803C6000318770FFB07080084
:1003CE007B14FB1FF229F201FA1FFF30F200F1003D
:0A03DE00F000FA0DF20CFF300800E9
:1003E800200072087606A100F801F9017308770267
:1003F800031C162A7708FD007308F7007D08F30030
:100408007608FD007208F6007D08F2007508FD0008
:100418007108F5007D08F1007408FD007008F4000B
:100428007D08F000770803198F2A7208FA00F2177E
:10043800F61777087302F7000319492A083077027C
:10044800031C3F2AF7007408F9007508F4007608C1
:10045800F500F60108307702031C3F2AF7007408FC
:10046800F9007508F400F50108307702031C3F2AEB
:100478007A08F2008F2A77080319492A0310F60C24
:10048800F50CF40CF90CF70B422AA11F562AF909AE
:10049800F409F509F609F90A0319F40A0319F50A22
:1004A8000319F60A7908F80774080318740FF00797
:1004B80075080318750FF10776080318760FF20709
:1004C800A11B6F2A031C7F2AF20CF10CF00CF80C0C
:1004D800F30F7F2A8B2A0318832AF809F009F109F8
:1004E800F209F80A0319F00A0319F10A0319F20AC2
:1004F8008030FA06872A0130FC002620912A023033
:10050800FC002620912A0430FC008020912A083023
:0E051800FC000720912A0030FC0000000800C3
:100526002000FB017308031D77080319E92A7208E6
:100536007606FA007708F3077E30031CA62AF30234
:100546000318EC2AA92AF302031CEF2A7208F80002
:100556007108FC007008FD00F817F6170310F20189
:10056600F101F0011830A1007D1CC32A7408F007C0
:1005760075080318750FF10776080318760FF2074A
:10058600F20CF10CF00CF80CFC0CFD0C0310A10B9A
:10059600B72AF21BD32AF80DF00DF10DF20DF30375
:1005A6007B1B701CE52AF81FE52AF00A0319F10ADD
:1005B6000319F20A031DE52AF20CF10CF00CF30AFA
:1005C6000319EC2AFA1FF2130030F12A01301F201A
:1005D600F12A02300720F12A043013200000080017
:1005E6002000FA017308031D7A147708031DFA1414
:1005F6007A0803193E2B033A0319092B7A18062B9E
:10060600F61F3C2B3A2BF21F3A2B3C2B72088039F3
:10061600FA00F21376088039F6137A060319172BB7
:100626007A0803193A2B3C2B7708730203191E2B01
:10063600031C322B362B760872020319252B031C5A
:10064600322B362B7508710203192C2B031C322B07
:10065600362B7408700203193E2B0318362BFA0842
:1006660003193C2B3A2BFA0803193A2B3C2B03149B
:0E067600080003100800031403150800080014
:100684002000FB01FC01F80173080319B92B72085F
:10069400FA00F2179E30F302F31FA92BF309F30AB1
:1006A40008307302031C7E2BF300F80D7008F80069
:1006B4007108F0007208F100F20108307302031CA3
:1006C4007E2BF300F80D7008F8007108F000F101BA
:1006D40008307302031C7E2BF300F80D7008F80039
:1006E400F00108307302031C7E2BF300F80DF801AF
:1006F4007308031D0310882B73080319882B031038
:10070400F20CF10CF00CF80CF30B812B7B1B781C16
:10071400962B031C962BF80A0319F00A0319F10A05
:100724000319F20AF21BB62BFA1FB92BF209F109CD
:10073400F009F809F80A0319F00A0319F10A031970
:10074400F20AB92BF201F101F001F801B92B7B1483
:10075400FB1FBC2BF201FA1FBC2BF200F100F000CE
:10076400F800FA0DF20CBC2B0130FC00BE2B00305B
:10077400FC00BE2BFF30FC00FC080319C22BE72150
:100784007208F3007108F2007008F1007808F000B4
:0207940008005B
:100796002000E903E9036908003C0318D72BE903A5
:1007A600000000000000CE2B00000000000000004A
:0407B6000000080037
:0607BA00FB15FF300800F2
:1007C000710DF80DF90D7408F8027508031C750F0A
:1007D000F902F00DF10D0F30FC00710DF80DF90D5F
:1007E0007408701CF92BF8027508031C750FF902C8
:1007F000FE2BF80775080318750FF907F00DF10DBA
:10080000FC0BED2B70180A2C7408F80775080318F8
:08081000750FF9070000080054
:1008180020002230FC00F801F901FA01FB01FC0379
:100828000319412C0310FB0CFA0CF90CF80CF30C0F
:10083800F20CF10CF00C031C132CFC030319332CE1
:100848007408F80775080318750FF9077608031870
:10085800760FFA0777080318770FFB07172C740829
:10086800F80775080318750FF90776080318760F47
:0C087800FA0777080318770FFB07080049
:100884007408003A031D5B2C7508003A031D5B2CA9
:100894007608003A031D5B2C7708003A031D5B2C95
:1008A400FF30F000FF30F100FF30F2007F30F30042
:1008B400F32C2000FC01F71BFC0AFD01FB01FA01EB
:1008C400F901F80173087204710470040319EE2C21
:1008D40073087706A000A01BFD09F71F7C2CF40900
:1008E400F509F609F709F40A0319F50A0319F60AD2
:1008F4000319F70AF31F892CF009F109F209F30926
:10090400F00A0319F10A0319F20A0319F30A730826
:100914007704A000A01BAA2CBB20FC1BC72CFD1F26
:10092400EE2CF009F109F209F309F00A0319F10AAE
:100934000319F20A0319F30AF809F909FA09FB0978
:10094400F80A0319F90A0319FA0A0319FB0AEE2C27
:10095400F71FC12CF31BBB2C7308FB007208FA00B1
:100964007108F9007008F800F301F201F101F001D7
:10097400912CF301F201F101F001F00A0034F309C2
:10098400F209F109F009FC178E2CF80A0319F90A87
:100994000319FA0A0319FB0A74087802031D912C3F
:1009A40075087902031D912C76087A02031D912C97
:1009B40077087B02031D912CFB01FA01F901F80170
:1009C400F00A0319F10A0319F20A0319F30AF31FCF
:1009D400912CA0012016FF34A0017C1CF22CAF2026
:0409E400003E0800C9
:0A09E80020008030F606F42108001C
:1009F20020007008F8007108F0007208F100730816
:100A0200F200F301FB01FC019E30F300FA01F21F38
:100A1200162DF809F009F109F209F80A0319F00A8A
:100A22000319F10A0319F20AFA170230FC00262010
:020A32000800BA
:0C0A34000E30FD00FD0B1C2D0000080022
:0E0A40004030F0001F30F100F201F301080019
:100A4E007408003A031D402D7508003A031D402D11
:100A5E007608003A031D402D7708003A031D402DFD
:100A6E00FF30F000FF30F1007F30F200FF30F30076
:100A7E00DA2D200077080319CE2D73080319D12D16
:100A8E00720876068039FA00F217F617A10172087D
:100A9E00F8007108FC007008FD007408FD0275086E
:100AAE00031C750FFC027608031C760FF802F80182
:100ABE00FC01FD01031C6A2D0310F20CF10CF00C6D
:100ACE00F80C0130A1007708F302031C742D7E3060
:100ADE002107F3070318D42D792D7E302107F30754
:100AEE00031CD72D1830FA07FD0DFC0DF80DF00D77
:100AFE00F10DF20DA10D7408F0027508031C750FAF
:100B0E00F1027608031C760FF202760DA104211C69
:100B1E00922D7D149D2D7408F00775080318750F1E
:100B2E00F10776080318760AF2077D10FA031F30D4
:100B3E007A05031D7B2D7B1B7D1CC42D0310F00D30
:100B4E00F10DF20DA10D7408F0027508031C750F5E
:100B5E00F1027608031C760FF202760D210401399C
:100B6E00FD070318FC0A0319F80A031DC42DF80C1F
:100B7E00FC0CFD0CF30A0319D42DFA1FF813780898
:100B8E00F2007C08F1007D08F0000030D92D013014
:100B9E00DD23D92D02301F20D92D04300720D92D69
:080BAE000830132000000800CC
:100BB60056302000DC000030DD0003305C07840086
:100BC60000305D3D850000085A07F10000305B3DAE
:100BD600F2007108DA007208DB0080307206F0005D
:100BE60080307002031DF92D003071020318002EAB
:100BF600F001F101F201F301412E8030F000803066
:100C06005B067002031D092E5A08FF3C0318312E9D
:100C1600F401F501F601F7015608F0005708F10056
:100C26005808F2005908F300F32201300318003087
:100C3600F00070080319282EFF30F000FF30F10095
:100C4600FF30F200FF30F300412EFF30F000FF309E
:100C5600F1007F30F200FF30F300412E03305C07D5
:100C6600860000305D3D87005A0881005608F00076
:0E0C76005708F1005808F2005908F300080072
:100C84007408003A031D4F2E7508003A031D4F2EB9
:100C9400FF30F0007F30F100A72E2000FD01F901A4
:100CA400F801710870040319003471087506FA001C
:100CB400FA1BFD09FB01F51F642EF409F509F40A7A
:100CC4000319F50AF11F6B2EF009F109F00A031953
:100CD400F10A71087504FA00FA1B802EE0237B18D0
:100CE400932EFD1F0034F009F109F00A0319F10AEB
:100CF400F809F909F80A0319F90A0034F51F8F2EC7
:100D0400F11B8B2E7108F9007008F800F101F00155
:100D1400732EF101F001F00A0034F109F009FB0A25
:100D2400702EF80A0319F90A74087802031D732E49
:100D340075087902031D732EF901F801F00A0319ED
:0C0D4400F10AF11F732E0000FF340800BC
:100D50005630F4000030F500033074078400003092
:100D6000753D85007E300002F000F1010030F13B5E
:100D700020005A0886005B0887007008810071080F
:100D8000413181000330740786000030753D8700D3
:100D90007E3081005608F0005708F1005808F20034
:060DA0005908F3000800F1
:100DA600F401F501F601F70120005608F000570896
:100DB600F1005808F2005908F300F3220130031835
:100DC6000030F00070080319F52E00305606F000CA
:100DD60000305706F10080305806F2000030590600
:100DE600F300FD2E5608F0005708F1005808F200EF
:060DF6005908F30008009B
:100DFC0020007008F8007108F000F101F201F30115
:100E0C00FB01FC019630F300FA01F01F132FF809D7
:100E1C00F009F80A0319F00AFA177008F1007808BB
:0A0E2C00F000F801F2018020080038
:100E360020005908F000F101F201F301FF30F0053E
:100E46000030F1057008DE007108DF007F307002A7
:100E5600F2000030713BF3007208DE007308DF0019
:100E660080307306F00080307002031D3C2F003086
:100E760072020318602FF401F501F601F701560816
:100E8600F0005708F1005808F2005908F300F32261
:100E9600013003180030F000700803195B2F003092
:100EA600F0000030F1008030F2007F30F300B52F03
:100EB600F001F101F201F301B52F5F08003C031DBB
:100EC600662F5E08183C0318712F5608F000570865
:100ED600F1005808F2005908F300B52F5608F00043
:100EE6005708F1005808F2005908F3004223F92484
:100EF6007008DA007108DB007208DC007308DD0098
:100F06007008F4007108F5007208F6007308F7001F
:100F16005608F0005708F1005808F2005908F30087
:100F2600F322013003180030F00070080319AD2FCA
:100F36000030F4000030F5000030F6007F30F70096
:100F46005A08F0005B08F1005C08F2005D08F30047
:100F5600F424B52F5A08F0005B08F1005C08F20093
:060F66005D08F300080025
:100F6C00200073087706031DC82F72087606031D30
:100F7C00C82F71087506031DC82F70087406031955
:0A0F8C000315080003110800080017
:100F9600FF302000A500FF30A600FF30A700FF307D
:100FA600A800FF30BB00FF30BC000030BD000030A1
:100FB600BE00FF30B700FF30B8000030B900003087
:100FC600BA00FF30B300FF30B4000030B500003087
:100FD600B60023009E1690309D0021008E170E133A
:100FE6002000911EFA2F23001908F000F32F0800A5
:1010000020005608AA005708AB005808F00001302D
:10101000F200700803190F28F235FF3E0A28720803
:10102000B0007209B2005908F1000130F0007108F7
:1010300003191D28F035FF3E18287008B100F0098B
:101040007008A3008030560784000030573D8500AB
:101050007208800470088005A2015E080319312817
:10106000A209803084022208003A03193A28230892
:1010700080053C2831088004803120258831E83003
:10108000F4000330F500F601F70180310C248831BB
:101090007008DF007108E0007208E1007308E200E8
:1010A0005A08F0005B08F1005C08F2005D08F300EC
:1010B000F035F10DF20DF30DF035F10DF20DF30DEC
:1010C0000A30F400F501F601F70180310C24883173
:1010D0007008E3007108E4007208E5007308E60098
:1010E0007008F4007108F5007208F6007308F70044
:1010F0005F08F0006008F1006108F2006208F30088
:101100008031422488317008E7007108E8007108D6
:10111000F400F50174087504031991280230F000F9
:10112000E4286708A4006308F4006408F500650873
:10113000F6006608F7005F08F0006008F10061083B
:10114000F2006208F3008031422488317808F00010
:101150007908F1007A08F2007B08F3007008DF00DC
:101160007108E0007208E1007308E2006308F5000E
:101170006408F6006508F7006608F800F837F70C11
:10118000F60CF50C80307806F4008030730674029B
:10119000031DD42872087702031DD4287108760233
:1011A000031DD428700875020318D728A40A240840
:1011B000F100F1367108A900073071020318E32825
:0A11C0000130F000E428F0010800FF
:1011CA002000FB017308031921297208FA00F2179B
:1011DA008E30F302F31F2429F309F30A083073024D
:1011EA00031C0729F300F10D7208F100F20108301F
:1011FA007302031C0729F300F10DF1017308031DA3
:10120A0003100F29730803190F290310F20CF10CAC
:10121A00F30B0A297B1B711C1929031C1929F10AD2
:10122A000319F20AF21B3029FA1F3329F209F109CC
:10123A00F10A0319F20A3329F201F10133297B1465
:10124A00FB1F3629F201FA1F3629FF30F200F1009E
:10125A00FA0DF20C36290130FC0038290030FC0066
:10126A003829FF30FC00FC0803193E298031E721A8
:0C127A0088317108F0007208F1000800D3
:1012860020005C08F0005D08F100F035F10DF03546
:10129600F10D70085A07840071085B3D850000084F
:1012A600DE0001310008DF0001310008E0000131F5
:1012B6000008E1005C085D0403199D295608F0004A
:1012C6005708F1005808F2005908F3005E08F400C8
:1012D6005F08F5006008F6006108F7008031932288
:1012E60088310130DC020030DD3B5C08F4005D082B
:1012F600F500F435F50DF435F50D74085A0784003C
:1013060075085B3D85000008F40001310008F50012
:1013160001310008F60001310008F7008031F421A0
:1013260088317008DE007108DF007208E00073087B
:10133600E1005D295E08F0005F08F1006008F20038
:061346006108F30008003D
:10134C0001302000D7002208D6062A0884002B087A
:10135C0085002208003A0319B62931088004B829FF
:10136C00230880052408E9008031CB238831D60975
:10137C0057080319D92957085605F000031DC92928
:10138C0031088004CB2923088005D735023024028C
:10139C00E9008031CB238831000000000000000000
:1013AC0000000000BE292208003A0319E029230896
:1013BC008005E229310880042408E9008031CB2320
:0413CC00883108005C
:1013D000833021009D0520005608F000F035F035DF
:1013E000700821009D0480311A2588319D149D1CB0
:1013F000FA29F7291C08F100F0011B08F00400305D
:04140000F1040800EB
:10140400E8302000AC000930AD005630AE000030AA
:0E141400AF00F03021009E009D011D14080065
:10142200332A3030F0005D2A3130F0005D2A32304C
:10143200F0005D2A3330F0005D2A3430F0005D2A7E
:101442003530F0005D2A3630F0005D2A3730F0008A
:101452005D2A3830F0005D2A3930F0005D2A2A30EA
:10146200F0005D2A20005608003A0319122A560895
:10147200013A0319152A5608023A0319182A56087E
:10148200033A03191B2A5608043A03191E2A56085E
:10149200053A0319212A5608063A0319242A56083E
:1014A200073A0319272A5608083A03192A2A56081E
:0A14B200093A03192D2A302A080018
:0E14BC00022220004708D600E8211D1008007B
:1014CA0020007008F800FB01FC019E30F300FA01CD
:1014DA00F201F101F0010230FC008031262088314E
:0214EA000800F8
:1014EC0020007008F8007108F000F101F201F3011E
:1014FC00FB01FC019630F300FA017008F10078084A
:0E150C00F000F801F2018031802088310800E3
:10151A0052302000D600A6213A30D600A621F40186
:10152A00F501F601F7014708F0004808F1004908FB
:10153A00F2004A08F3008031F32288310130031C9B
:10154A000030F00070080319AD2A2B30F000AF2AE2
:10155A002D30F0007008D600A621F401F501F6013D
:10156A00F7014708F0004808F1004908F2004A0864
:10157A00F3008031F32288310130031C0030F0007F
:10158A0070080319E42A4708F0004808F1004908DE
:10159A00F2004A08F3000030F4000030F500203071
:1015AA00F6008230F7008031932288317008D1002A
:1015BA007108D2007208D3007308D400032B0030DC
:1015CA004706F00000304806F10080304906F20074
:1015DA0000304A06F3000030F4000030F5002030F5
:1015EA00F6008230F7008031932288317008D100EA
:1015FA007108D2007208D3007308D4005108F000B1
:10160A005208F1005308F2005408F300E52070086C
:10161A00CF007108D000E830F4000330F5008031C3
:10162A00422688317808F0007908F1007008D10064
:10163A007108D2006430F4000030F5004F08F00061
:10164A005008F1008031422688317808F000790884
:10165A00F10070085102F0007108523BF100643049
:10166A00F4000030F5008031422688317008D60037
:10167A00112270082000D600A6216430F400003040
:10168A00F5004F08F0005008F100803142268831F9
:10169A007808F0007908F1007008D1007108D200CA
:1016AA000A30F4000030F5004F08F0005008F1004D
:1016BA008031422688317808F0007908F1007008F4
:1016CA005102F0007108523BF1000A30F400003078
:1016DA00F5008031422688317008D6001122700840
:1016EA002000D600A6212E30D600A6210A30F4000A
:1016FA000030F5004F08F0005008F1008031422612
:10170A0088317808F0007908F1007008D6001122B3
:10171A0070082000D600A6212030D600A62150301D
:10172A00D600A6213A30D600A621F401F501F60129
:10173A00F7014B08F0004C08F1004D08F2004E0882
:10174A00F3008031F32288310130031C0030F000AD
:10175A0070080319B32B2B30F000B52B2D30F00095
:10176A007008D600A621F401F501F601F7014B082D
:10177A00F0004C08F1004D08F2004E08F3008031E9
:10178A00F32288310130031C0030F000700803197D
:10179A00EA2B4B08F0004C08F1004D08F2004E0805
:1017AA00F3000030F4000030F5002030F6008230FB
:1017BA00F7008031932288317008D1007108D20075
:1017CA007208D3007308D400092C00304B06F000CD
:1017DA0000304C06F10080304D06F20000304E0613
:1017EA00F3000030F4000030F5002030F6008230BB
:1017FA00F7008031932288317008D1007108D20035
:10180A007208D3007308D4005108F0005208F1009E
:10181A005308F2005408F300E5207008CF0071085D
:10182A00D000E830F4000330F500803142268831D8
:10183A007808F0007908F1007008D1007108D20028
:10184A006430F4000030F5004F08F0005008F10051
:10185A008031422688317808F0007908F100700852
:10186A005102F0007108523BF1006430F40000307C
:10187A00F5008031422688317008D600112270089E
:10188A002000D600A6216430F4000030F5004F088D
:10189A00F0005008F1008031422688317808F000C3
:1018AA007908F1007008D1007108D2000A30F400FA
:1018BA000030F5004F08F0005008F1008031422650
:1018CA0088317808F0007908F10070085102F000B8
:1018DA007108523BF1000A30F4000030F500803103
:1018EA00422688317008D600112270082000D600DE
:1018FA00A6212E30D600A6210A30F4000030F500C9
:10190A004F08F0005008F1008031422688317808EB
:10191A00F0007908F1007008D60011227008200042
:10192A00D600A6210A30D600A6210830D600A62164
:10193A000830D600A6210830D600A6210830D600E5
:10194A00A6210830D600A6210830D600A6210830E4
:10195A00D600A6210830D600A6210830D600A62136
:10196A000830D600A6210830D600A6210830D600B5
:10197A00A6210830D600A6210830D600A6210830B4
:0C198A00D600A6210830D600A6210800D7
:1019960020004708F4004808F5004908F6004A0800
:1019A600F700F001F101F201F3018031F3228831F1
:1019B6000130031C0030F00070080319E72CF00119
:1019C600F101F201F301E32D4708CB004808CC00F2
:1019D6004908CD004A08CE000030F4000030F5007A
:1019E6000030F6007F30F7004708F0004808F100A5
:1019F6004908F2004A08F3008031F32288310130A9
:101A060003180030F00070080319242D4B08F40069
:101A16004C08F5004D08F6004E08F7000030F000BF
:101A26000030F1000030F2007F30F30080312725CE
:101A360088317008CB007108CC007208CD0073089D
:101A4600CE004B08D6004C08D7004D08D8004E08EB
:101A5600D9005430DA000030DB008031A826883106
:101A66007008CB007108CC007208CD007308CE0058
:101A76007008D6007108D7007208D8007308D9001C
:101A86005408DA005508DB00DB37DA0C8031DB2539
:101A960088317008CB007108CC007208CD0073083D
:101AA600CE000030F4000030F5000030F6007F3044
:101AB600F7004708F0004808F1004908F2004A0814
:101AC600F3008031F3228831013003180030F00032
:101AD60070080319892D4B08F4004C08F5004D08D1
:101AE600F6004E08F7000030F0000030F10000303C
:101AF600F2007F30F3008031272588317008CB0053
:101B06007108CC007208CD007308CE001430D300E3
:101B16004B08F4004C08F5004D08F6004E08F70097
:101B26004708F0004808F1004908F2004A08F300A7
:101B36008031272588314B08F4004C08F5004D0804
:101B4600F6004E08F7008031F42188310030F400A9
:101B56000030F5000030F6008030F7008031272590
:101B660088317008CF007108D0007208D100730860
:101B7600D2004B08F4004C08F5004D08F6004E085C
:101B8600F7008031B62788310130031D0030F000A0
:101B960070080319CF2DDB2D4F08CB005008CC0061
:101BA6005108CD005208CE00D3035308031D8B2DD8
:101BB6004B08F0004C08F1004D08F2004E08F30007
:021BC600080015
:101BC800703021009900073095002F3023008C00D9
:101BD8008D018F0190012F3021008C0020308D0065
:101BE8008E018F01900120008C018D018E018F01E3
:101BF8009001022223009F15CF309B009C011E15E7
:101C08008031CB2788310D302000D6000030D70036
:101C18000430D8000630D9008030DA002530DB00E7
:101C2800DC01DD01DE0100201A30FC00F830FD0087
:0C1C3800FD0B1C2EFC0B1C2E00000800F5
:101C440012001E00F003031D222EF103031D222E99
:021C5400080086
:101C560020004708D6004808D7004908D8004A0897
:101C6600D9008031D32688317008CC007108CD00A8
:101C76007208CE007308CF00F401F501F601F701F2
:101C86008031B62788310130031D0030F00070081E
:101C96000319522EF001F101F201F301452F4C0810
:101CA600F4004D08F5004E08F6004F08F700003026
:101CB600F0000030F1000030F2007F30F300803198
:101CC600F3228831013003180030F0007008CB0091
:101CD60070080319892E4C08F4004D08F5004E08CB
:101CE600F6004F08F7000030F0000030F100003039
:101CF600F2007F30F3008031272588317008CC0050
:101D06007108CD007208CE007308CF004C08F000B1
:101D16004D08F1004E08F2004F08F3004C08F4009D
:101D26004D08F5004E08F6004F08F7008031932263
:101D360088317008D0007108D1007208D20073088B
:101D4600D3007008D6007108D7007208D80073084F
:101D5600D900B030DA008F30DB000530DC0000300F
:101D6600DD0043214C08F4004D08F5004E08F6004E
:101D76004F08F7008031932288317008CC00710833
:101D8600CD007208CE007308CF005008D600510867
:101D9600D7005208D8005308D900C830DA008F306F
:101DA600DB000430DC000030DD0043217008F40065
:101DB6007108F5007208F6007308F7004C08F00089
:101DC6004D08F1004E08F2004F08F3008031272538
:101DD60088317008CC007108CD007208CE007308F7
:101DE600CF004B080319122F4C08F4004D08F500DC
:101DF6004E08F6004F08F700DB30F0000F30F10018
:101E06004930F2007F30F3008031F42488317008C5
:101E1600CC007108CD007208CE007308CF00F40123
:101E2600F501F601F7014708F0004808F1004908F6
:101E3600F2004A08F3008031F3228831013003189A
:101E46000030F00070080319352F00304C06F00002
:101E560000304D06F10080304E06F20000304F068D
:101E6600F3003D2F4C08F0004D08F1004E08F2003B
:101E76004F08F3007008CC007108CD007208CE0040
:061E86007308CF00080004
:10200000F401F501F601F70120004708F000480847
:10201000F1004908F2004A08F3008031B6279031F8
:102020000130031D0030F000700803192028003033
:10203000F0000030F1000030F2007F30F30035296D
:102040004708F4004808F5004908F6004A08F70078
:10205000FC30F000D430F1003230F2008530F30073
:102060008031F3229031013003180030F000700805
:1020700003194328FF30F000FF30F1007F30F200F9
:10208000FF30F30035294F30F400AC30F500AE30AE
:10209000F6008530F7004708F0004808F1004908CD
:1020A000F2004A08F3008031F32290310130031826
:1020B0000030F000700803196228F001F101F2010C
:1020C000F3013529F401F501F601F7014708F000A5
:1020D0004808F1004908F2004A08F3008031F32271
:1020E0009031013003180030F0007008CD00700806
:1020F000031982280030C7060030C8068030C906A0
:102100000030CA064708F0004808F1004908F2000C
:102110004A08F3003B30F400AA30F5003830F600EE
:102120007F30F7008031932290317008C70071082A
:10213000C8007208C9007308CA007008D600710888
:10214000D7007208D8007308D90080311B2790315E
:102150008831E52090317008CB007108CC008031C7
:10216000FE2690317008F4007108F5007208F60040
:102170007308F7004708F0004808F1004908F2002A
:102180004A08F3008031F42490317008C7007108C8
:10219000C8007208C9007308CA007008D600710828
:1021A000D7007208D8007308D9008830DA008F3061
:1021B000DB000930DC000030DD0088314321903144
:1021C0007008D6007108D7007208D8007308D900CB
:1021D0004B08DA004C08DB008031DB2590317008B9
:1021E000C7007108C8007208C9007308CA004D080A
:1021F00003192D29FF30F400FF30F5007F30F60081
:10220000FF30F7004708F0004808F1004908F200E5
:102210004A08F3008031B62790310130031D0030A9
:10222000F000700803191929F001F101F201F3011E
:1022300035294708F4004808F5004908F6004A081F
:10224000F7000030F0000030F1000030F2007F3085
:10225000F30080312725903135294708F0004808E0
:0C226000F1004908F2004A08F3000800F1
:10226C00463084008F308500A03086000030870017
:10227C004230F0000130F100883122269031883153
:10228C00E42590312100E001E10180306106F0008D
:10229C0080307002031D5429643060020318D92960
:1022AC002000C70188315E2290318831762290312E
:1022BC0021002008F4002108F5002208F60023086C
:1022CC00F7008031F421903170082100A0007108D2
:1022DC00A1007208A2007308A30001302000C700FF
:1022EC0088315E2290318831762290312100240889
:1022FC00F4002508F5002608F6002708F7008031C1
:10230C00F421903170082100A4007108A500720816
:10231C00A6007308A70003302000C70088315E2296
:10232C00903188317622903121002808F400290858
:10233C00F5002A08F6002B08F7008031F4219031C3
:10234C0070082100A8007108A9007208AA0073087F
:10235C00AB0004302000C70088315E2290318831F8
:10236C007622903121002C08F4002D08F5002E085F
:10237C00F6002F08F7008031F4219031700821000D
:10238C00AC007108AD007208AE007308AF004E309F
:10239C00FC00EB30FD00FD0BD129FC0BD129E00A30
:1023AC000319E10A4B290030F4000030F5004830E5
:1023BC00F6008530F7002008F0002108F100220813
:1023CC00F2002308F300803127259031700821009A
:1023DC00A0007108A1007208A2007308A3000030CD
:1023EC00F4000030F5004830F6008530F700240882
:1023FC00F0002508F1002608F2002708F3008031D0
:10240C002725903170082100A4007108A5007208DE
:10241C00A6007308A7000030F4000030F500483027
:10242C00F6008530F7002808F0002908F1002A088A
:10243C00F2002B08F3008031272590317008210021
:10244C00A8007108A9007208AA007308AB0000303C
:10245C00F4000030F5004830F6008530F7002C0809
:10246C00F0002D08F1002E08F2002F08F300803147
:10247C002725903170082100AC007108AD0072085E
:10248C00AE007308AF0020009501C70188315E22B1
:10249C00903188317622903121002008F4002108F7
:1024AC00F5002208F6002308F7008031F42490315F
:1024BC000030F4000030F5002030F6007730F700E3
:1024CC0080319322903170082100B0007108B10066
:1024DC007208B2007308B30001302000C7008831C5
:1024EC005E22903188317622903121002408F4004C
:1024FC002508F5002608F6002708F7008031F4249B
:10250C0090310030F4000030F5002030F6007730C8
:10251C00F70080319322903170082100B8007108C7
:10252C00B9007208BA007308BB0002302000C70063
:10253C0088315E2290318831762290310030F4005F
:10254C008030F5007D30F6008730F7008031F424C0
:10255C0090310030F4000030F5002030F600773078
:10256C00F70080319322903170082100C00071086F
:10257C00C1007208C2007308C30003302000C700FA
:10258C0088315E22903188317622903121002808E2
:10259C00F4002908F5002A08F6002B08F700803112
:1025AC00F42490314C30F4003730F5000930F6004B
:1025BC007030F70080319322903170082100C800F0
:1025CC007108C9007208CA007308CB0004302000DF
:1025DC00C70088315E2290318831762290312100FB
:1025EC002C08F4002D08F5002E08F6002F08F70033
:1025FC008031F42490314C30F4003730F500093040
:10260C00F6007030F7008031932290317008210071
:10261C00D0007108D1007208D2007308D3003408BE
:10262C00F4003508F5003608F6003708F7003008D6
:10263C00F0003108F1003208F2003308F300803169
:10264C00F42490317008BF007108C0007208C100FA
:10265C007308C2001508F000883165229031BD3036
:10266C00F4003730F5000630F6007230F700803198
:10267C0093229031DB30F4000F30F500C930F600B6
:10268C008130F7008031932290317008C7007108B7
:10269C00C8007208C9007308CA0000207008F40052
:1026AC007108F5007208F6007308F7000030F000AE
:1026BC000030F1000030F2007F30F3008031F42460
:1026CC0090313F08F4004008F5004108F60042083C
:1026DC00F70080319322903121003408F400350842
:1026EC00F5003608F6003708F7008031F4219031F8
:1026FC0070082100B4007108B5007208B6007308A8
:10270C00B7003C08F0003D08F1003E08F2003F081D
:10271C00F3006630F4006630F5006630F6007E306B
:10272C00F7008031932290317008BF007108C0000F
:10273C007208C1007308C20021003808F000390883
:10274C00F1003A08F2003B08F300CD30F400CC3035
:10275C00F5004C30F6007B30F7008031932290313D
:10276C003F08F4004008F5004108F6004208F70065
:10277C008031F421903121003C08F4003D08F50033
:10278C003E08F6003F08F7008031F42190317008C4
:10279C002100BC007108BD007208BE007308BF00A8
:1027AC004408F0004508F1004608F2004708F30021
:1027BC006630F4006630F5006630F6007E30F700C7
:1027CC008031932290317008BF007108C0007208EC
:1027DC00C1007308C20021004008F0004108F1005C
:1027EC004208F2004308F300CD30F400CC30F50081
:1027FC004C30F6007B30F7008031932290313F084B
:10280C00F4004008F5004108F6004208F70080315A
:10281C00F421903121004408F4004508F5004608E5
:10282C00F6004708F7008031F42190317008210040
:10283C00C4007108C5007208C6007308C7004C08B4
:10284C00F0004D08F1004E08F2004F08F30066301E
:10285C00F4006630F5006630F6007E30F70080310B
:10286C00932290317008BF007108C0007208C1003B
:10287C007308C20021004808F0004908F1004A081A
:10288C00F2004B08F300CD30F400CC30F5004C30A6
:10289C00F6007B30F7008031932290313F08F40032
:1028AC004008F5004108F6004208F7008031F42199
:1028BC0090317008F4007108F5007208F600730886
:1028CC00F70021004808F0004908F1004A08F2001E
:1028DC004B08F3008031F424903170082100C800BB
:1028EC007108C9007208CA007308CB005408F000C4
:1028FC005508F1005608F2005708F3006630F40052
:10290C006630F5006630F6007E30F7008031932299
:10291C0090317008BF007108C0007208C1007308C4
:10292C00C20021005008F0005108F1005208F200DA
:10293C005308F300CD30F400CC30F5004C30F600E9
:10294C007B30F7008031932290313F08F40040082F
:10295C00F5004108F6004208F7008031F42190316F
:10296C007008F4007108F5007208F6007308F7009F
:10297C0021005008F0005108F1005208F2005308F1
:10298C00F3008031F424903170082100D0007108DC
:10299C00D1007208D2007308D3004C08F0004D0827
:1029AC00F1004E08F2004F08F3004808F400490803
:1029BC00F5004A08F6004B08F7008031F4219031FD
:1029CC007008BF007108C0007208C1007308C20013
:1029DC001508F000883165229031BD30F400373095
:1029EC00F5000630F6007230F700803193229031FA
:1029FC003F08F4004008F5004108F6004208F700D3
:102A0C008031932290310030F4000030F50000301A
:102A1C00F6007E30F7008031932290312100580867
:102A2C00F4005908F5005A08F6005B08F7008031ED
:102A3C00F42190311F30F4008530F5006B30F60036
:102A4C007E30F7008031932290317008C3007108FA
:102A5C00C4007208C5007308C60021003808F000D5
:102A6C003908F1003A08F2003B08F3003808F4008A
:102A7C003908F5003A08F6003B08F700803193223C
:102A8C0090317008BF007108C0007208C100730853
:102A9C00C20021004008F0004108F1004208F20099
:102AAC004308F3004008F4004108F5004208F60022
:102ABC004308F7008031932290313F08F40040081E
:102ACC00F5004108F6004208F7008031F4219031FE
:102ADC007008C7007108C8007208C9007308CA00E2
:102AEC008831CB2490317008F4007108F50072081D
:102AFC00F6007308F70021003008F0003108F100EF
:102B0C003208F2003308F300803127259031700829
:102B1C00C7007108C8007208C9007308CA00883160
:102B2C002B269031E030F4002E30F5006530F600A5
:102B3C008430F7008031932290310A30F400D73082
:102B4C00F5002330F6007B30F70080319322903172
:102B5C004308F4004408F5004508F6004608F70061
:102B6C008031F421903170082100D8007108D9000F
:102B7C007208DA007308DB005408F0005508F10005
:102B8C005608F2005708F3005008F4005108F500FD
:102B9C005208F6005308F7008031F4219031700888
:102BAC00BF007108C0007208C1007308C20015088C
:102BBC00F000883165229031BD30F4003730F500DB
:102BCC000630F6007230F7008031932290313F08C6
:102BDC00F4004008F5004108F6004208F700803187
:102BEC00932290310030F4000030F5000030F600F4
:102BFC007E30F70080319322903121005C08F40084
:102C0C005D08F5005E08F6005F08F7008031F421DE
:102C1C0090311F30F4008530F5006B30F6007E30BB
:102C2C00F7008031932290317008C3007108C40002
:102C3C007208C5007308C60021003008F000310886
:102C4C00F1003208F2003308F3003008F4003108C8
:102C5C00F5003208F6003308F700803193229031EA
:102C6C007008BF007108C0007208C1007308C20070
:102C7C0021004008F0004108F1004208F20043082E
:102C8C00F3004008F4004108F5004208F600430840
:102C9C00F7008031932290313F08F4004008F50092
:102CAC004108F6004208F7008031F4219031700899
:102CBC00C7007108C8007208C9007308CA008831BF
:102CCC00CB2490317008F4007108F5007208F600FE
:102CDC007308F70021003808F0003908F1003A08B1
:102CEC00F2003B08F3008031272590317008C700B3
:102CFC007108C8007208C9007308CA0088312B26F5
:102D0C009031E030F4002E30F5006530F600843060
:102D1C00F7008031932290310A30F400D730F5005F
:102D2C002330F6007B30F70080319322903143083A
:102D3C00F4004408F5004508F6004608F700803119
:102D4C00F421903170082100DC007108DD0072085C
:102D5C00DE007308DF005808F4005908F5005A0823
:102D6C00F6005B08F700CD30F000CC30F100CC3031
:102D7C00F2007B30F3008031F322903101300318E4
:102D8C000030F00070080319EB2ECD30F400CC307D
:102D9C00F5004C30F6007B30F70021005808F000AD
:102DAC005908F1005A08F2005B08F3008031F32255
:102DBC009031013003180030F00070080319EB2E2D
:102DCC002100D801D901DA01DB0121005C08F400F3
:102DDC005D08F5005E08F6005F08F700CD30F000E6
:102DEC00CC30F100CC30F2007B30F3008031F32298
:102DFC009031013003180030F00070080319262FB1
:102E0C00CD30F400CC30F5004C30F6007B30F700C0
:102E1C0021005C08F0005D08F1005E08F2005F081C
:102E2C00F3008031F3229031013003180030F000B0
:102E3C0070080319262F2100DC01DD01DE01DF0102
:102E4C00210058082000C700210059082000C800A4
:102E5C0021005A082000C90021005B082000CA008C
:102E6C0021005C082000CB0021005D082000CC0074
:102E7C0021005E082000CD0021005F082000CE005C
:102E8C0088318D22903121003008B4003108B50012
:102E9C003208B6003308B7003808BC003908BD004A
:102EAC003A08BE003B08BF004008C4004108C500FA
:102EBC004208C6004308C7004808CC004908CD00AA
:102ECC004A08CE004B08CF005008D4005108D5005A
:0C2EDC005208D6005308D700492A732F73
:081E8C0000340034003400347E
:081E9400003400340034003476
:081E9C0000340034003400346E
:081EA400003400340034003466
:101EAC000034003400340034003400340034003486
:101EBC000034003400340034003400340034003476
:101ECC000034003400340034003400340034003466
:101EDC000034003400340034003400340034003456
:101EEC000034003400340034003400340034003446
:081EFC0000340034003400340E
:081F0400003400340034003405
:041F0C000034003469
:101F10000034003400347F341834723431347E3469
:101F2000F034FD3475347C344734583463347A34B7
:101F3000583495341D3478348234C4342E34753496
:101F4000A834783421347234EF34933400346F344D
:101F5000A034923427346B34463456341534683404
:101F600006343C34043484347D349F346A348434FD
:101F70005C3490340134843460344D343B348134E7
:101F80005134EC3447347C34DE348D349F34763431
:101F900006343C3404348434C03459340B3485342E
:101FA0007434043444348434F9349B344F348234EC
:081FB0000034003400347F34DA
:020000040001F9
:04000E00E23F331684
:00000001FF
