:040000008831CA2B4E
:0E000600F201F101F001F801F30100300800F1
:100014007B15FB1F14280130F300F201F101F001FC
:08002400FA0DF20CFF30080098
:08002C00FA1FF2130030080076
:10003400FB14FB1F2428FF30F300F200F100F00052
:08004400FA0DF20CFF30080078
:10004C0021002E082400910014182D282A281108AC
:04005C00F0000800A8
:10006000A0017208031D45287108F2007008F10014
:10007000F001A0157208031D45287108F200F10176
:10008000A01120167208031953282008F302031D3B
:10009000031C57280310F21B5B28F00DF10DF20D25
:1000A000F30B4B2857280130FC0003205E28023058
:0E00B000FC000A205E280430FC001620080028
:1000BE0023009E18642800005F2821002E082300CC
:0400CE009A0008008C
:0600D200FB15FF300800E1
:1000D8007C18A228FC1873287C19C1286C28A00158
:1000E8007208031D93287108F2007008F10078085F
:1000F800F000F801A0157208031D93287108F2009A
:100108007008F100F001A01120167208031D932851
:100118007108F200F101A01572080319B52820082A
:10012800F302031D031CB9280310F21BA228F80DC3
:10013800F00DF10DF20DF30B9928B9287B1B701CFB
:10014800BD28F81FBD28F00A0319F10A0319F20A9D
:10015800031DBD28F20CF10CF00CF30A0319C12899
:10016800BD280130FC000320C4280230FC000A200E
:10017800C4280430FC001620C4280830FC001A20CB
:04018800000008006B
:10018C002000FA017308031D7A147708031DFA1472
:10019C007A0803191129033A0319DC287A18D9288B
:1001AC00F61F0F290D29F21F0D290F29720880390E
:1001BC00FA00F21376088039F6137A060319EA2846
:1001CC007A0803190D290F29770873020319F128EE
:1001DC00031C05290929760872020319F828031C47
:1001EC0005290929750871020319FF28031C052923
:1001FC000929740870020319112903180929FA082E
:10020C0003190F290D29FA0803190D290F290314B5
:0E021C00080003100800031403150800080072
:10022A00A630F4000030F500033074078400003073
:10023A00753D85007E300002F000F1010030F13B8F
:10024A0021002A0886002B0887007008810071089F
:10025A00413181000330740786000030753D870004
:10026A007E3081002608F0002708F1002808F200F5
:06027A002908F300080052
:10028000A6302100AC000030AD0003302C07840004
:1002900000302D3D850000082A07F10000302B3D7D
:1002A000F2007108AA007208AB0080307206F000FC
:1002B00080307002031D5E29003071020318652929
:1002C000F001F101F201F301A7298030F000803044
:1002D0002B067002031D6E292A08FF3C031896297D
:1002E000F401F501F601F7012608F0002708F100F6
:1002F0002808F2002908F300C62001300318003056
:10030000F000700803198D29FF30F000FF30F10074
:10031000FF30F200FF30F300A729FF30F000FF307C
:10032000F1007F30F200FF30F300A72903302100F5
:100330002C07860000302D3D87002A088100260802
:10034000F0002708F1002808F2002908F30008004F
:0A03500071088A007008820008009E
:10035A00200073087706031DBF2972087606031D5D
:10036A00BF2971087506031DBF2970087406031991
:0A037A000315080003110800080035
:10038400200072087606A000F801F90173087702CC
:10039400031CE4297708FD007308F7007D08F300C7
:1003A4007608FD007208F6007D08F2007508FD006D
:1003B4007108F5007D08F1007408FD007008F40070
:1003C4007D08F000770803195D2A7208FA00F21715
:1003D400F61777087302F7000319172A0830770213
:1003E400031C0D2AF7007408F9007508F400760858
:1003F400F500F60108307702031C0D2AF700740893
:10040400F9007508F400F50108307702031C0D2A81
:100414007A08F2005D2A77080319172A0310F60CEC
:10042400F50CF40CF90CF70B102AA01F242AF90977
:10043400F409F509F609F90A0319F40A0319F50A86
:100444000319F60A7908F80774080318740FF007FB
:1004540075080318750FF10776080318760FF2076D
:10046400A01B3D2A031C4D2AF20CF10CF00CF80CD5
:10047400F30F4D2A592A0318512AF809F009F109F2
:10048400F209F80A0319F00A0319F10A0319F20A26
:100494008030FA06552A0130FC006C205F2A0230B5
:1004A400FC006C205F2A0430FC0030205F2A0830F6
:0E04B400FC001A205F2A0030FC000000080047
:1004C200710DF80DF90D7408F8027508031C750F0B
:1004D200F902F00DF10D0F30FC00710DF80DF90D60
:1004E2007408701C7A2AF8027508031C750FF90249
:1004F2007F2AF80775080318750FF907F00DF10D3B
:10050200FC0B6E2A70188B2A7408F80775080318FA
:08051200750FF9070000080055
:0C051A000E30FD00FD0B8F2A00000800D1
:100526007408003A031DAC2A7508003A031DAC2A6C
:100536007608003A031DAC2A7708003A031DAC2A58
:10054600FF30F000FF30F1007F30F200FF30F300A3
:10055600462B2000770803193A2B730803193D2B05
:10056600720876068039FA00F217F617A0017208AB
:10057600F8007108FC007008FD007408FD0275089B
:10058600031C750FFC027608031C760FF802F801AF
:10059600FC01FD01031CD62A0310F20CF10CF00C31
:1005A600F80C0130A0007708F302031CE02A7E3025
:1005B6002007F3070318402BE52A7E302007F307B0
:1005C600031C432B1830FA07FD0DFC0DF80DF00D3A
:1005D600F10DF20DA00D7408F0027508031C750FDD
:1005E600F1027608031C760FF202760DA004201C99
:1005F600FE2A7D14092B7408F00775080318750F79
:10060600F10776080318760AF2077D10FA031F3001
:100616007A05031DE72A7B1B7D1C302B0310F00D8A
:10062600F10DF20DA00D7408F0027508031C750F8C
:10063600F1027608031C760FF202760D20040139CA
:10064600FD070318FC0A0319F80A031D302BF80CE2
:10065600FC0CFD0CF30A0319402BFA1FF81378085B
:10066600F2007C08F1007D08F0000030452B0130D7
:100676006920452B02300320452B04301A20452BD8
:0806860008300A200000080002
:10068E00200027088600280887006708810041316E
:0C069E002508F0002608F100A821080043
:0A06AA0020008030F606C22108008F
:1006B4007B14FB1F652BF201FA1FFF30F200F100DF
:0A06C400F000FA0DF20CFF30080000
:1006CE007408003A031D742B7508003A031D742B31
:1006DE00FF30F0007F30F100CC2B2000FD01F9013E
:1006EE00F801710870040319003471087506FA00D8
:1006FE00FA1BFD09FB01F51F892BF409F509F40A14
:10070E000319F50AF11F902BF009F109F00A0319EC
:10071E00F10A71087504FA00FA1BA52B61227B18E9
:10072E00B82BFD1F0034F009F109F00A0319F10A84
:10073E00F809F909F80A0319F90A0034F51FB42B60
:10074E00F11BB02B7108F9007008F800F101F001EF
:10075E00982BF101F001F00A0034F109F009FB0ABF
:10076E00952BF80A0319F90A74087802031D982BC1
:10077E0075087902031D982BF901F801F00A031987
:0C078E00F10AF11F982B0000FF34080056
:10079A00833021009D0520006708F000F035F03510
:1007AA00700821009D048D229D149D1CDD2BDA2BDF
:1007BA001C08F100F0011B08F0040030F1040800E5
:1007CA005F302000A5000030A600AE30A700003040
:1007DA00A800FF30AD00FF30AE000030AF0000309F
:1007EA00B000FF30B100FF30B2000030B30000307B
:1007FA00B400FF30A100FF30A2000030A300003097
:10080A00A40023009E1690309D0021008E170E131F
:10081A002000911E142C23001908F0000D2C08004A
:10082A002000FB017308031D770803196B2C72085B
:10083A007606FA007708F3077E30031C282CF302A9
:10084A0003186E2C2B2CF302031C712C7208F8006F
:10085A007108FC007008FD00F817F6170310F20182
:10086A00F101F0011830A0007D1C452C7408F00736
:10087A0075080318750FF10776080318760FF20743
:10088A00F20CF10CF00CF80CFC0CFD0C0310A00B94
:10089A00392CF21B552CF80DF00DF10DF20DF30366
:1008AA007B1B701C672CF81F672CF00A0319F10ACE
:1008BA000319F20A031D672CF20CF10CF00CF30A6F
:1008CA0003196E2CFA1FF2130030732C0130032027
:1008DA00732C02301A20732C04300A2000000800FE
:1008EA00972C3030F000C12C3130F000C12C32305E
:1008FA00F000C12C3330F000C12C3430F000C12C90
:10090A003530F000C12C3630F000C12C3730F00001
:10091A00C12C3830F000C12C3930F000C12C2A30FB
:10092A00F000C12C20006708003A0319762C6708EA
:10093A00013A0319792C6708023A03197C2C6708D3
:10094A00033A03197F2C6708043A0319822C6708B3
:10095A00053A0319852C6708063A0319882C670893
:10096A00073A03198B2C6708083A03198E2C670873
:0A097A00093A0319912C942C08008F
:1009840020006708F4006808F5006908F6006A08A2
:10099400F700F001F101F201F301C6200130031C5C
:1009A4000030F00070080319DC2CF001F101F201B1
:1009B400F301D82D6708EB006808EC006908ED0026
:1009C4006A08EE000030F4000030F5000030F60054
:1009D4007F30F7006708F0006808F1006908F2004A
:1009E4006A08F300C620013003180030F0007008D4
:1009F4000319152D6B08F4006C08F5006D08F6005A
:100A04006E08F7000030F0000030F1000030F20012
:100A14007F30F30093227008EB007108EC00720839
:100A2400ED007308EE006B082100A60020006C089E
:100A34002100A70020006D082100A80020006E08F6
:100A44002100A900A430AA000030AB0015217008D1
:100A54002000EB007108EC007208ED007308EE0052
:100A640070082100A6007108A7007208A800730886
:100A7400A9002408AA002508AB00AB37AA0C402122
:100A840070082000EB007108EC007208ED00730898
:100A9400EE000030F4000030F5000030F6007F3046
:100AA400F7006708F0006808F1006908F2006A08B6
:100AB400F300C620013003180030F0007008031959
:100AC4007C2D6B08F4006C08F5006D08F6006E08C8
:100AD400F7000030F0000030F1000030F2007F3009
:100AE400F30093227008EB007108EC007208ED002B
:100AF4007308EE001430EF006B08F4006C08F50086
:100B04006D08F6006E08F7006708F0006808F10049
:100B14006908F2006A08F30093226B08F4006C0879
:100B2400F5006D08F6006E08F700C2210030F400ED
:100B34000030F5000030F6008030F7009322700892
:100B44002100A0007108A1007208A2007308A3008C
:100B540020006B08F4006C08F5006D08F6006E08C0
:100B6400F700AD210130031D0030F00070080319B7
:100B7400BC2DD02D210020082000EB0021002108ED
:100B84002000EC00210022082000ED0021002308B1
:100B94002000EE00EF036F08031D7E2D6B08F000AC
:0E0BA4006C08F1006D08F2006E08F300080006
:100BB200CD302000A9000330AA006730AB0000301E
:0E0BC200AC00F03021009E009D011D140800C3
:100BD000803020006806F00080307002031DF22D86
:100BE000003067020318FD2D6708003CF00068081C
:100BF000031C013EF101F102012E6708F0006808B4
:040C0000F1000800F7
:100C040020007008F8007108F000F101F201F3010E
:100C1400FB01FC019630F300FA017008F10078083A
:0A0C2400F000F801F2013020080092
:100C2E00F401F501F601F70120005108F000520819
:100C3E00F1005308F2005408F300C6200130031CE3
:100C4E000030F00070080319352E5108F4005208D8
:100C5E00F5005308F6005408F700492E00305106EF
:100C6E00F00000305206F10080305306F2000030E2
:100C7E005406F3007008F4007108F5007208F600CF
:100C8E007308F7007408D1007508D2007608D300F7
:100C9E007708D400F401F501F601F7015508F000CC
:100CAE005608F1005708F2005808F300C62001302C
:100CBE00031C0030F000700803196E2E5508F40066
:100CCE005608F5005708F6005808F700822E003037
:100CDE005506F00000305606F10080305706F2003F
:100CEE0000305806F3007008F4007108F500720821
:100CFE00F6007308F7007408D5007508D60076085C
:100D0E00D7007708D800F401F501F601F70159086C
:100D1E00F0005A08F1005B08F2005C08F300C620F0
:100D2E000130031C0030F00070080319A72E59087B
:100D3E00F4005A08F5005B08F6005C08F700BB2EBD
:100D4E0000305906F00000305A06F10080305B0684
:100D5E00F20000305C06F3007008F4007108F50034
:100D6E007208F6007308F7007408D9007508DA00E7
:100D7E007608DB007708DC005508F0005608F10015
:100D8E005708F2005808F3005508F4005608F5000D
:100D9E005708F6005808F70015247008E30071088C
:100DAE00E4007208E5007308E6005908F0005A08DE
:100DBE00F1005B08F2005C08F3005908F4005A08D1
:100DCE00F5005B08F6005C08F70015246308F400D4
:100DDE006408F5006508F6006608F700C221700881
:100DEE00E7007108E8007208E9007308EA00C224FF
:100DFE007008F4007108F5007208F6007308F70029
:100E0E005108F0005208F1005308F2005408F300A4
:100E1E0093227008DF007108E0007208E100730889
:100E2E00E200DD01DE018030F00080305E067002EF
:100E3E00031D232F5D08C83C031C9A2F5D08F0008C
:100E4E005E08F100F035F10DF035F10D0030700750
:100E5E0084009030713D85000008F00001310008DB
:100E6E00F10001310008F20001310008F3005F08C3
:100E7E00F4006008F5006108F6006208F7005523DB
:100E8E006F30F4001230F5008330F6007630F70044
:100E9E00C6200130031C0030F00070080319962F95
:100EAE005D08F0005E08F100F035F10DF035F10D42
:100EBE000030700784009030713D85000008F0000E
:100ECE0001310008F10001310008F2000131000883
:100EDE00F3005F08F4006008F5006108F600620890
:100EEE00F70055237008F4007108F5007208F6003B
:100EFE007308F7006F30F0001230F1000330F2008B
:100F0E007630F300C6200130031C0030F00070086C
:100F1E000319962F5D08F0005E08F1009E2FDD0A82
:100F2E000319DE0A1A2F1930F000FC30F100080008
:100F3E002000FB0173080319DB2F7208FA00F21769
:100F4E008E30F302F31FDE2FF309F30A083073021B
:100F5E00031CC12FF300F10D7208F100F2010830ED
:100F6E007302031CC12FF300F10DF1017308031D71
:100F7E000310C92F73080319C92F0310F20CF10CBB
:100F8E00F30BC42F7B1B711CD32F031CD32FF10A21
:100F9E000319F20AF21BEA2FFA1FED2FF209F109DB
:100FAE00F10A0319F20AED2FF201F101ED2F7B1474
:100FBE00FB1FF02FF201FA1FF02FFF30F200F100AD
:100FCE00FA0DF20CF02F0130FC00F22F0030FC0075
:100FDE00F22FFF30FC00FC080319F62F5A2371087C
:080FEE00F0007208F100080098
:10100000803020005206F00080307002031D0A2854
:1010100000305102031C0F282B30F00011282D3016
:10102000F0007008E7008031472388312000510824
:10103000E7005208E8008031E82588317008D100C7
:101040007108D200E830F4000330F50080316723E6
:1010500088317808F0007908F1007008DB00710829
:10106000DC006430F4000030F5005108F000520854
:10107000F1008031672388317808F0007908F100A9
:1010800070085B02F00071085C3BF1006430F40012
:101090000030F5008031672388317008E700803127
:1010A0007524883170082000E7008031472388319B
:1010B0006430F4000030F50020005108F0005208C0
:1010C000F1008031672388317808F0007908F10059
:1010D0007008DB007108DC000A30F4000030F50015
:1010E0005108F0005208F1008031672388317808F8
:1010F000F0007908F10070085B02F00071085C3BB9
:10110000F1000A30F4000030F500803167238831A7
:101110007008E70080317524883170082000E700EE
:101120008031472388310A30F4000030F500200078
:101130005108F0005208F1008031672388317808A7
:10114000F0007908F1007008E700803175248831DB
:1011500070082000E70080314723883120302000CC
:10116000E700803147238831803020005406F000AA
:1011700080307002031DBE2800305302031CC328B8
:101180002B30F000C5282D30F0007008E7008031CA
:101190004723883120005308E7005408E8008031D5
:1011A000E82588317008D3007108D400E830F400D5
:1011B0000330F5008031672388317808F000790822
:1011C000F1007008DB007108DC006430F4000030CE
:1011D000F5005308F0005408F1008031672388318E
:1011E0007808F0007908F10070085B02F0007108DF
:1011F0005C3BF1006430F4000030F500803167237F
:1012000088317008E700803175248831700820002B
:10121000E7008031472388316430F4000030F50066
:1012200020005308F0005408F10080316723883112
:101230007808F0007908F1007008DB007108DC0024
:101240000A30F4000030F5005308F0005408F100B3
:101250008031672388317808F0007908F100700840
:101260005B02F00071085C3BF1000A30F4000030D2
:10127000F5008031672388317008E70080317524DC
:10128000883170082000E7008031472388310A3018
:10129000F4000030F50020005308F0005408F1007D
:1012A0008031672388317808F0007908F1007008F0
:1012B000E70080317524883170082000E700803114
:1012C0004723883120302000E700803147238831D0
:1012D000803020005606F00080307002031D722915
:1012E00000305502031C77292B30F00079292D306E
:1012F000F0007008E700803147238831200055084E
:10130000E7005608E8008031E82588317008D500EC
:101310007108D600E830F4000330F500803167230F
:1013200088317808F0007908F1007008DB00710856
:10133000DC006430F4000030F5005508F000560879
:10134000F1008031672388317808F0007908F100D6
:1013500070085B02F00071085C3BF1006430F4003F
:101360000030F5008031672388317008E700803154
:101370007524883170082000E700803147238831C8
:101380006430F4000030F50020005508F0005608E5
:10139000F1008031672388317808F0007908F10086
:1013A0007008DB007108DC000A30F4000030F50042
:1013B0005508F0005608F10080316723883178081D
:1013C000F0007908F10070085B02F00071085C3BE6
:1013D000F1000A30F4000030F500803167238831D5
:1013E0007008E70080317524883170082000E7001C
:1013F0008031472388310A30F4000030F5002000A6
:101400005508F0005608F1008031672388317808CC
:10141000F0007908F1007008E70080317524883108
:1014200070082000E70080314723883120302000F9
:10143000E700803147238831803020005806F000D3
:1014400080307002031D262A00305702031C2B2A0D
:101450002B30F0002D2A2D30F0007008E70080318D
:101460004723883120005708E7005808E8008031FA
:10147000E82588317008D7007108D800E830F400FA
:101480000330F5008031672388317808F00079084F
:10149000F1007008DB007108DC006430F4000030FB
:1014A000F5005708F0005808F100803167238831B3
:1014B0007808F0007908F10070085B02F00071080C
:1014C0005C3BF1006430F4000030F50080316723AC
:1014D00088317008E7008031752488317008200059
:1014E000E7008031472388316430F4000030F50094
:1014F00020005708F0005808F10080316723883138
:101500007808F0007908F1007008DB007108DC0051
:101510000A30F4000030F5005708F0005808F100D8
:101520008031672388317808F0007908F10070086D
:101530005B02F00071085C3BF1000A30F4000030FF
:10154000F5008031672388317008E7008031752409
:10155000883170082000E7008031472388310A3045
:10156000F4000030F50020005708F0005808F100A2
:101570008031672388317808F0007908F10070081D
:10158000E70080317524883170082000E700803141
:101590004723883120302000E700803147238831FD
:1015A000803020005A06F00080307002031DDA2AD5
:1015B00000305902031CDF2A2B30F000E12A2D30C5
:1015C000F0007008E7008031472388312000590877
:1015D000E7005A08E8008031E82588317008D90012
:1015E0007108DA00E830F4000330F5008031672339
:1015F00088317808F0007908F1007008DB00710884
:10160000DC006430F4000030F5005908F0005A089E
:10161000F1008031672388317808F0007908F10003
:1016200070085B02F00071085C3BF1006430F4006C
:101630000030F5008031672388317008E700803181
:101640007524883170082000E700803147238831F5
:101650006430F4000030F50020005908F0005A080A
:10166000F1008031672388317808F0007908F100B3
:101670007008DB007108DC000A30F4000030F5006F
:101680005908F0005A08F100803167238831780842
:10169000F0007908F10070085B02F00071085C3B13
:1016A000F1000A30F4000030F50080316723883102
:1016B0007008E70080317524883170082000E70049
:1016C0008031472388310A30F4000030F5002000D3
:1016D0005908F0005A08F1008031672388317808F2
:1016E000F0007908F1007008E70080317524883136
:1016F00070082000E7008031472388310A3020003D
:0A170000E70080314723883108001C
:10170A007030210099002F3023008C008D018F0149
:10171A0090012F3021008C008D018E018F019001E4
:10172A0020008C018D018E018F0190018031D92515
:10173A00883123009F15CF309B009C011E158031F4
:10174A00E52388310B30FB002630FC005D30FD00BC
:10175A00FD0BAD2BFC0BAD2BFB0BAD2B00000000E2
:02176A00080075
:10176C008031D925883120005108E7008031CD2304
:06177C0088311D10080079
:1017820012001E00F003031DC12BF103031DC12B28
:0217920008004D
:101794002000C701C801C901CA01C301C401C501B0
:1017A400C601BF01C001C101C201BB01BC01BD0131
:1017B400BE01B701B801B901BA01CD01CE01CB0117
:1017C400CC0185232000C701C801C901CA01C30196
:1017D400C401C501C601BF01C001C101C201BB01F1
:1017E400BC01BD01BE01B701B801B901BA01B5011F
:1017F400B60180303606F00080307002031D042CE0
:101804000A3035020318862C0130D100B62380310A
:10181400022688313708F4003808F5003908F60044
:101824003A08F7008031C22188317008B700710886
:10183400B8007208B9007308BA00D101B623803128
:10184400022688313B08F4003C08F5003D08F60008
:101854003E08F7008031C22188317008BB0071084E
:10186400BC007208BD007308BE000230D100B6236C
:101874008031022688313F08F4004008F500410811
:10188400F6004208F7008031C22188317008BF0099
:101894007108C0007208C1007308C2000430D1008E
:1018A400B6238031022688314308F4004408F50049
:1018B4004508F6004608F7008031C22188317008D7
:1018C400C3007108C4007208C5007308C600033061
:1018D400D100B6238031022688314708F400480835
:1018E400F5004908F6004A08F7008031C221883122
:1018F4007008C7007108C8007208C9007308CA00DC
:10190400B50A0319B60AFB2B0030F4000030F500C9
:101914002030F6008230F7003708F0003808F10074
:101924003908F2003A08F3008031932288310030FC
:10193400F4000030F5007F30F6008730F700803186
:10194400552388317008B7007108B8007208B900CF
:101954007308BA000030F4000030F5002030F600BF
:101964008230F7003B08F0003C08F1003D08F2002B
:101974003E08F3008031932288310030F400403077
:10198400F5000130F6008830F700803155238831A6
:101994007008BB007108BC007208BD007308BE006B
:1019A4000030F4000030F5002030F6008230F700FB
:1019B4003F08F0004008F1004108F2004208F3003B
:1019C4008031932288310030F4000030F50010306B
:1019D400F6008830F7008031552388317008BF0045
:1019E4007108C0007208C1007308C2000030F4001E
:1019F4000030F5002030F6008230F7004308F00094
:101A04004408F1004508F2004608F30080319322AF
:101A140088310030F4008030F5000D30F600873056
:101A2400F7008031552388317008C3007108C40061
:101A34007208C5007308C6000030F4000030F500D9
:101A44002030F6008230F7004708F0004808F10023
:101A54004908F2004A08F3008031932288310030AB
:101A6400F4000030F5005330F6008730F700803181
:101A7400552388317008C7007108C8007208C9006E
:101A84007308CA00F401F501F601F7013708F00004
:101A94003808F1003908F2003A08F3008031C62012
:101AA40088310130031C0030F000700803197A2DCE
:101AB4003708D1003808D2003908D3003A08D400D6
:101AC4003B08D5003C08D6003D08D7003E08D800A6
:101AD4003F08D9004008DA004108DB004208DC0076
:101AE4008031172688317008CF007108D000A12DED
:101AF4003708D1003808D2003908D3003A08D40096
:101B04003B08D5003C08D6003D08D7003E08D80065
:101B14003F08D9004008DA004108DB004208DC0035
:101B24008031172688317008003CF0007108031CCE
:101B3400013EF101F1027008CF007108D0004F0896
:101B4400CB005008CC00F401F501F601F7013B0885
:101B5400F0003C08F1003D08F2003E08F30080313B
:101B6400C62088310130031C0030F00070080319CE
:101B7400DB2D3B08D1003C08D2003D08D3003E08D1
:101B8400D4003708D5003808D6003908D7003A08F9
:101B9400D8003F08D9004008DA004108DB004208B9
:101BA400DC008031172688317008CF007108D0001E
:101BB400022E3B08D1003C08D2003D08D3003E0869
:101BC400D4003708D5003808D6003908D7003A08B9
:101BD400D8003F08D9004008DA004108DB00420879
:101BE400DC008031172688317008003CF000710851
:101BF400031C013EF101F1027008CF007108D0000E
:101C04004F08CD005008CE0080304C06F0008030E4
:101C14007002031D0F2EC8304B02031C152EC83052
:101C2400CB00CC01252E8030FF3AF00080304C06EA
:101C34007002031D1F2E4B08383C031C252E383020
:101C4400CB00FF30CC0080304E06F00080307002B4
:101C5400031D2E2EC8304D02031C342EC830CD0077
:101C6400CE01442E8030FF3AF00080304E067002E0
:101C7400031D3E2E4D08383C031C442E3830CD0045
:101C8400FF30CE004B08D1004C08D2004D08D300E1
:101C94004E08D4003F08F0004008F1004108F2006B
:101CA4004208F30080319F2788317008D5007108FD
:101CB400D6004308F0004408F1004508F200460845
:101CC400F30080319F2788317008D7007108D8004D
:101CD4004708F0004808F1004908F2004A08F300F8
:101CE40080319F2788317008D9007108DA000020FC
:041CF400E42B7B2E34
:1020000000340034003400346F3412340334763436
:10201000A6349B34443476340A34D73423347734AA
:102020004234603465347734BC34743413347834D7
:102030000A34D73423347834A6349B344434783487
:1020400042346034653478346F3412340334793474
:10205000963443340B347934E334A5341B34793467
:10206000313408342C3479347F346A343C34793454
:10207000A6349B3444347934F434FD345434793404
:1020800042346034653479348F34C23475347934F1
:10209000B634F3347D34793402342B3407347A3453
:1020A00029345C340F347A3450348D3417347A3414
:1020B000E334A5341B347A340A34D73423347A34E5
:1020C000313408342C347A345834393434347A3452
:1020D000EC34513438347A341234833440347A3422
:1020E0003934B43448347A346034E53450347A3492
:1020F000F434FD3454347A341B342F345D347A3460
:102100004234603465347A34683491346D347A34CE
:10211000FC34A93471347A342334DB3479347A349E
:102120002534063401347B34B8341E3405347B3412
:1021300002342B3407347B34963443340B347B34F1
:1021400029345C340F347B34BC34743413347B3422
:102150000634813415347B349A34993419347B3401
:102160002D34B2341D347B34C134CA3421347B3431
:102170000A34D73423347B349E34EF3427347B3411
:10218000313408342C347B34C534203430347B343F
:102190000E342D3432347B34A234453436347B341F
:1021A00035345E343A347B34C93476343E347B344F
:1021B0005C348F3442347B34A6349B3444347B34D7
:1021C0003934B43448347B34CD34CC344C347B345F
:1021D0006034E53450347B34AA34F13452347B34E7
:1021E0003D340A3457347B34D13422345B347B346D
:1021F00064343B345F347B34AE34473461347B34F5
:102200004234603465347B34D534783469347B347B
:10221000683491346D347B34B2349D346F347B3404
:102220004634B63473347B34D934CE3477347B348B
:102230006D34E7347B347B340034003400347C3438
:102240002534063401347C346F34123403347C3446
:10225000B8341E3405347C3402342B3407347C34D7
:102260002734313408347C3471343D340A347C34BE
:10227000BA3449340C347C34043456340E347C344F
:102280004E34623410347C347334683411347C340A
:10229000BC34743413347C340634813415347C34C7
:1022A00050348D3417347C347534933418347C3482
:1022B000BE349F341A347C340834AC341C347C343F
:1022C0005234B8341E347C349C34C43420347C34CE
:1022D000C134CA3421347C340A34D73423347C34B6
:1022E0005434E33425347C349E34EF3427347C3446
:1022F000E734FB3429347C340C3402342B347C3402
:1023000056340E342D347C34A0341A342F347C34BB
:10231000E934263431347C343334333433347C344C
:102320005834393434347C34A234453436347C3433
:10233000EC34513438347C3435345E343A347C34C3
:102340007F346A343C347C34A43470343D347C347F
:10235000EE347C343F347C343734893441347C343B
:102360008134953443347C34CB34A13445347C34CB
:10237000F034A73446347C343934B43448347C34B3
:102380008334C0344A347C34CD34CC344C347C3443
:102390001734D9344E347C343B34DF344F347C34FE
:1023A0008534EB3451347C34CF34F73453347C34BB
:1023B0001934043456347C346234103458347C3448
:1023C000AC341C345A347C34D13422345B347C3405
:1023D0001B342F345D347C3464343B345F347C34C0
:1023E000AE34473461347C34F834533463347C3451
:1023F0004234603465347C346634663466347C340C
:10240000B034723468347C34FA347E346A347C34C8
:1024100044348B346C347C348D3497346E347C3457
:10242000D734A33470347C34FC34A93471347C3414
:102430004634B63473347C348F34C23475347C34CF
:10244000D934CE3477347C342334DB3479347C345F
:102450006D34E7347B347C349134ED347C347C341B
:10246000DB34F9347E347C341234833400347D34EC
:102470003734893401347D345C348F3402347D3414
:102480008134953403347D34A6349B3404347D3454
:10249000B8341E3405347D34DD34243406347D34C0
:1024A00002342B3407347D342734313408347D34FE
:1024B0004C34373409347D3471343D340A347D343E
:1024C000963443340B347D34BA3449340C347D347F
:1024D000CD34CC340C347D34F234D2340D347D34EC
:1024E0001734D9340E347D343B34DF340F347D342B
:1024F0006034E53410347D348534EB3411347D346C
:10250000AA34F13412347D34CF34F73413347D34AB
:10251000F434FD3414347D340634813415347D3480
:102520002B34873416347D3450348D3417347D3455
:102530007534933418347D349A34993419347D3495
:10254000BE349F341A347D34E334A5341B347D34D7
:102550000834AC341C347D342D34B2341D347D3415
:102560005234B8341E347D3464343B341F347D34EB
:102570008934413420347D34AE34473421347D34C1
:10258000D3344D3422347D34F834533423347D3401
:102590001D345A3424347D344234603425347D343F
:1025A0006634663426347D348B346C3427347D3481
:1025B000B034723428347D34D534783429347D34C1
:1025C000FA347E342A347D341F3485342B347D3400
:1025D00044348B342C347D3456340E342D347D34D5
:1025E0007B3414342E347D34A0341A342F347D34AB
:1025F000C534203430347D34E934263431347D34EC
:102600000E342D3432347D343334333433347D342A
:102610005834393434347D347D343F3435347D346A
:10262000A234453436347D34C7344B3437347D34AA
:10263000EC34513438347D341034583439347D34EA
:0826400035345E343A347D3478
:020000040001F9
:04000E00A43F3316C2
:00000001FF
