:02000000552E7B
:100006002000C603C6034608003C03180F28C60393
:1000160000000000000006280000000000000000AC
:0400260000000800CE
:10002A007408F8027508031C750FF9027608031C98
:10003A00760FFA027708031C770FFB02F30D0730DD
:10004A00FC00730DF80DF90DFA0DFB0D7408731C05
:10005A003C28F8027508031C750FF9027608031C80
:10006A00760FFA027708031C770FFB024928F80774
:10007A0075080318750FF90776080318760FFA073B
:10008A0077080318770FFB07F30DFC0B2628720D70
:10009A00F80DF90DFA0DFB0D7408731C6228F802AD
:1000AA007508031C750FF9027608031C760FFA020D
:1000BA007708031C770FFB026F28F80775080318E7
:1000CA00750FF90776080318760FFA0777080318E9
:1000DA00770FFB07F20D0730FC00720DF80DF90DD2
:1000EA00FA0DFB0D7408721C8828F8027508031CA7
:1000FA00750FF9027608031C760FFA027708031CBB
:10010A00770FFB029528F80775080318750FF9078A
:10011A0076080318760FFA0777080318770FFB0794
:10012A00F20DFC0B7228710DF80DF90DFA0DFB0D8D
:10013A007408721CAE28F8027508031C750FF902C0
:10014A007608031C760FFA027708031C770FFB0266
:10015A00BB28F80775080318750FF90776080318FE
:10016A00760FFA0777080318770FFB07F10D0730A8
:10017A00FC00710DF80DF90DFA0DFB0D7408711CD8
:10018A00D428F8027508031C750FF9027608031CB7
:10019A00760FFA027708031C770FFB02E128F807AB
:1001AA0075080318750FF90776080318760FFA070A
:1001BA0077080318770FFB07F10DFC0BBE28700DAB
:1001CA00F80DF90DFA0DFB0D7408711CFA28F802E6
:1001DA007508031C750FF9027608031C760FFA02DC
:1001EA007708031C770FFB020729F807750803181D
:1001FA00750FF90776080318760FFA0777080318B8
:10020A00770FFB07F00D0730FC00700DF80DF90DA4
:10021A00FA0DFB0D7408701C2029F8027508031CDE
:10022A00750FF9027608031C760FFA027708031C89
:10023A00770FFB022D29F80775080318750FF907C0
:10024A0076080318760FFA0777080318770FFB0763
:10025A00F00DFC0B0A29701840297408F807750874
:10026A000318750FF90776080318760FFA07770847
:08027A000318770FFB070800D1
:10028200FB09FA09F909F809F80A0319F90A031925
:08029200FA0A0319FB0A080037
:10029A0020002230FC00F801F901FA01FB01FC03FD
:1002AA00031982290310FB0CFA0CF90CF80CF30C55
:1002BA00F20CF10CF00C031C5429FC0303197429E9
:1002CA007408F80775080318750FF90776080318F4
:1002DA00760FFA0777080318770FFB07582974086F
:1002EA00F80775080318750FF90776080318760FCB
:0C02FA00FA0777080318770FFB070800CD
:1003060001302000C5002308C406290884002A08F5
:1003160085002308003A03199329210880049529AA
:10032600240880052708C6000320C40945080319C8
:10033600B22945084405F000031DA42921088004BC
:10034600A62924088005C53502302702C6000320E9
:1003560000000000000000000000000099292308AA
:10036600003A0319B92924088005BB29210880040D
:080376002708C600032008005F
:10037E007408003A031DD8297508003A031DD829C0
:10038E007608003A031DD8297708003A031DD829AC
:10039E00FF30F000FF30F100FF30F2007F30F3004D
:1003AE00702A2000FC01F71BFC0AFD01FB01FA017B
:1003BE00F901F801730872047104700403196B2AB1
:1003CE0073087706A000A01BFD09F71FF929F40991
:1003DE00F509F609F709F40A0319F50A0319F60ADD
:1003EE000319F70AF31F062AF009F109F209F309B6
:1003FE00F00A0319F10A0319F20A0319F30A730832
:10040E007704A000A01B272A1520FC1B442AFD1FE1
:10041E006B2AF009F109F209F309F00A0319F10A3E
:10042E000319F20A0319F30AF809F909FA09FB0983
:10043E00F80A0319F90A0319FA0A0319FB0A6B2AB7
:10044E00F71F3E2AF31B382A7308FB007208FA00C6
:10045E007108F9007008F800F301F201F101F001E2
:10046E000E2AF301F201F101F001F00A0034F30952
:10047E00F209F109F009FC170B2AF80A0319F90A17
:10048E000319FA0A0319FB0A74087802031D0E2ACF
:10049E0075087902031D0E2A76087A02031D0E2AAC
:1004AE0077087B02031D0E2AFB01FA01F901F80100
:1004BE00F00A0319F10A0319F20A0319F30AF31FDA
:1004CE000E2AA0012016FF34A0017C1C6F2A4121A8
:0404DE00003E0800D4
:0E04E2004030F0001F30F100F201F30108007D
:1004F00020003108A9003208AA003308F0000130BA
:10050000F20070080319872AF235FF3E822A72082A
:10051000A5007209A2003408F1000130F000710852
:100520000319952AF035FF3E902A7008A100F009C2
:100530007008A4008030310784000030323D85000F
:100540007208800470088005A30139080319A92ADC
:10055000A309803084022308003A0319B22A240830
:100560008005B42A210880047122E830F4000330A9
:10057000F500F601F7014D217008BA007108BB00C3
:100580007208BC007308BD003508F0003608F100A1
:100590003708F2003808F300F035F10DF20DF30DD5
:1005A000F035F10DF20DF30D0A30F400F501F6010E
:1005B000F7014D217008BE007108BF007208C0002D
:1005C0007308C1007008F4007108F5007208F600A5
:1005D0007308F7003A08F0003B08F1003C08F2000D
:1005E0003D08F300BF217008C2007108C300710804
:1005F000F400F501740875040319012B0230F000B2
:10060000522B4208A7003E08F4003F08F5004008BE
:10061000F6004108F7003A08F0003B08F1003C08FA
:10062000F2003D08F300BF217808F0007908F100DE
:100630007A08F2007B08F3007008BA007108BB006A
:100640007208BC007308BD003E08F5003F08F600C4
:100650004008F7004108F800F837F70CF60CF50CE5
:1006600080307806F400803073067402031D422B3C
:1006700072087702031D422B71087602031D422B7C
:10068000700875020318452BA70A2708F100F136F8
:100690007108A600073071020318512B0130F000D9
:0606A000522BF0010800DE
:1006A60020003108C40083213308C40083213508A3
:1006B600C400832133083107C4003508C4077F30DE
:1006C600C40583210330FC009730FD00FD0B692B28
:0A06D600FC0B692B00000000080077
:1006E00012001E00F003031D702BF103031D702B7D
:0206F000080000
:1006F2007C2D20000C118030B100B2010130B3001A
:100702000030B4007F30B5000030B6005323803093
:10071200B100B2010430B3000030B4007F30B50044
:100722000030B60053238130B100B201B301B401ED
:100732007F30B5000030B60053238130B100B201E2
:100742000530B3000030B4007F30B5000030B60091
:1007520053238230B100B2010130B3000030B40043
:100762007F30B5000030B60053238230B100B201B1
:100772000430B3000030B4007F30B5000030B60062
:1007820053238330B100B201B301B401B501B60104
:100792005323AE2D0C118030B100B201B301B4016C
:1007A2007F30B5000030B60053238030B100B20173
:1007B2000530B3000030B4007F30B5000030B60021
:1007C20053238130B100B2010130B3000030B400D4
:1007D2007F30B5000030B60053238130B100B20142
:1007E2000430B3000030B4007F30B5000030B600F2
:1007F20053238230B100B201B301B4017F30B5009E
:100802000030B60053238230B100B2010530B3008C
:100812000030B4007F30B5000030B600532383307F
:10082200B100B201B301B401B501B6015323AE2D3B
:100832000C158030B100B2010130B3000030B400B9
:100842006430B5000030B60053238030B100B201ED
:100852000430B3000030B4006430B5000030B6009C
:1008620053238130B100B2010130B3000030B40033
:100872006430B5000030B60053238130B100B201BC
:100882000430B3000030B4006430B5000030B6006C
:1008920053238230B100B2010130B3000030B40002
:1008A2006430B5000030B60053238230B100B2018B
:1008B2000430B3000030B4006430B5000030B6003C
:1008C20053238330B100B201B301B401B501B601C3
:1008D2005323AE2D0C158030B100B2010130B300AC
:1008E2000030B4006430B5000030B60053238030CD
:1008F200B100B2010430B3000030B4006430B5007E
:100902000030B60053238130B100B201B301B4010B
:100912006430B5000030B60053238130B100B2011B
:100922000530B3000030B4006430B5000030B600CA
:1009320053238230B100B201B301B4016430B50077
:100942000030B60053238230B100B2010530B3004B
:100952000030B4006430B5000030B6005323833059
:10096200B100B201B301B401B501B6015323AE2DFA
:100972008030B100B201B301B401B501B601532315
:100982008030B100B2010430B3000030B400B501D0
:10099200B60153238130B100B201B301B401B501F4
:1009A200B60153238130B100B2010430B3000030EC
:1009B200B400B501B60153238230B100B201B301D4
:1009C200B401B501B60153238230B100B201043043
:1009D200B3000030B400B501B60153238330B10037
:1009E200B2010130B3000030B4007F30B5000030F6
:1009F200B6005323AE2D8030B100B201B301B40171
:100A0200B501B60153238030B100B2010430B30006
:100A12000030B400B501B60153238130B100B201F8
:100A2200B301B401B501B60153238130B100B20163
:100A32000430B3000030B400B501B6015323823054
:100A4200B100B201B301B401B501B6015323823042
:100A5200B100B2010430B3000030B400B501B601F8
:100A620053238330B100B201B301B4017F30B5002A
:100A72000030B6005323AE2D8030B100B201B30175
:100A8200B401B501B60153238030B100B201043084
:100A9200B3000030B400B501B60153238130B10078
:100AA200B201B301B401B501B60153238130B100E3
:100AB200B2010430B3000030B400B501B6015323D3
:100AC2008230B100B201B301B401B501B6015323C2
:100AD2008230B100B2010430B3000030B400B5017D
:100AE200B60153238330B100B201B301B401B501A1
:100AF200B6015323AE2D200000302E06031D832D98
:100B020001302D0603197A2B00302E06031D8B2D82
:100B120002302D060319CB2B00302E06031D932D18
:100B220004302D060319192C00302E06031D9B2DAF
:100B320008302D0603196B2C00302E06031DA32D41
:100B420010302D060319B92C00302E06031DAB2DD3
:0C0B520020302D060319FC2C3D2D08005E
:100B5E0070302100990023008C018D0121008C0141
:100B6E008D0120008C018D010D30B1000030B200DE
:100B7E000430B3000330B4008030B5002530B60029
:100B8E00B701B801B90178221A30FC00F830FD0027
:0C0B9E00FD0BCF2DFC0BCF2D000008003C
:100BAA0020002D0886002E08870081010130B00040
:100BBA00AF012810290884002A0885002308003A72
:100BCA00031DFB2D25080005F1007108003A0319E1
:100BDA00FA2D281CF92D2D0886002E088700FF30D3
:100BEA0081002F08F000542EE72D0E2E250800054F
:100BFA00F1007108003A031D0E2E281C0D2E2D0837
:100C0A0086002E088700FF3081002F08F000542E3E
:100C1A00FB2D2608C60003202708C600032030083B
:100C2A0003192C2E25080005F1007108003A031952
:100C3A00202E3008AF04B03502302702C600032048
:100C4A00000000000000000000000000142E23082D
:100C5A00003A031D402E25080005F1007108003AEC
:100C6A000130031D0030F0002D0886002E08870091
:100C7A00700881004F2E25080005F1007108003A1E
:100C8A00013003190030F0002D0886002E08870075
:100C9A007008810023082F06F0007008AF000800D2
:100CAA002000AB01AC01AF252B30AD000030AE0007
:100CBA00D5257008AC002B08031D592E2C08AD0051
:080CCA00AE017923592E682EBA
:020000040001F9
:04000E00A43F3316C2
:00000001FF
