:040000009031002813
:0E000600F201F101F001F801F30100300800F1
:100014007B15FB1F14280130F300F201F101F001FC
:08002400FA0DF20CFF30080098
:08002C00FA1FF2130030080076
:10003400FB14FB1F2428FF30F300F200F100F00052
:08004400FA0DF20CFF30080078
:10004C007C185C28FC182D287C197B282628A101FB
:10005C007208031D4D287108F2007008F100780831
:10006C00F000F801A1157208031D4D287108F2006B
:10007C007008F100F001A11121167208031D4D2822
:10008C007108F200F101A115720803196F282108FB
:10009C00F302031D031C73280310F21B5C28F80DDC
:1000AC00F00DF10DF20DF30B532873287B1B701C14
:1000BC007728F81F7728F00A0319F10A0319F20AB6
:1000CC00031D7728F20CF10CF00CF30A03197B28B2
:1000DC0077280130FC0003207E280230FC000A2027
:1000EC007E280430FC0016207E280830FC001A20E4
:0400FC0000000800F8
:10010000A1017208031D95287108F2007008F10022
:10011000F001A1157208031D95287108F200F10184
:10012000A111211672080319A3282108F302031D47
:10013000031CA7280310F21BAB28F00DF10DF20DE4
:10014000F30B9B28A7280130FC000320AE280230C7
:0E015000FC000A20AE280430FC001620080037
:10015E00FB09FA09F909F809F80A0319F90A03194A
:08016E00FA0A0319FB0A08005C
:100176007408F8027508031C750FF9027608031C4B
:10018600760FFA027708031C770FFB02F30D073090
:10019600FC00730DF80DF90DFA0DFB0D7408731CB8
:1001A600E228F8027508031C750FF9027608031C8D
:1001B600760FFA027708031C770FFB02EF28F80781
:1001C60075080318750FF90776080318760FFA07EE
:1001D60077080318770FFB07F30DFC0BCC28720D7D
:1001E600F80DF90DFA0DFB0D7408731C0829F802B9
:1001F6007508031C750FF9027608031C760FFA02C0
:100206007708031C770FFB021529F80775080318F2
:10021600750FF90776080318760FFA07770803189B
:10022600770FFB07F20D0730FC00720DF80DF90D84
:10023600FA0DFB0D7408721C2E29F8027508031CB2
:10024600750FF9027608031C760FFA027708031C6D
:10025600770FFB023B29F80775080318750FF90796
:1002660076080318760FFA0777080318770FFB0747
:10027600F20DFC0B1829710DF80DF90DFA0DFB0D99
:100286007408721C5429F8027508031C750FF902CC
:100296007608031C760FFA027708031C770FFB0219
:1002A6006129F80775080318750FF907760803180A
:1002B600760FFA0777080318770FFB07F10D07305B
:1002C600FC00710DF80DF90DFA0DFB0D7408711C8B
:1002D6007A29F8027508031C750FF9027608031CC3
:1002E600760FFA027708031C770FFB028729F807B7
:1002F60075080318750FF90776080318760FFA07BD
:1003060077080318770FFB07F10DFC0B6429700DB6
:10031600F80DF90DFA0DFB0D7408711CA029F802F1
:100326007508031C750FF9027608031C760FFA028E
:100336007708031C770FFB02AD29F8077508031829
:10034600750FF90776080318760FFA07770803186A
:10035600770FFB07F00D0730FC00700DF80DF90D57
:10036600FA0DFB0D7408701CC629F8027508031CEB
:10037600750FF9027608031C760FFA027708031C3C
:10038600770FFB02D329F80775080318750FF907CD
:1003960076080318760FFA0777080318770FFB0716
:1003A600F00DFC0BB0297018E6297408F8077508DB
:1003B6000318750FF90776080318760FFA077708FA
:0803C6000318770FFB07080084
:1003CE0020002230FC00F801F901FA01FB01FC03C8
:1003DE0003191C2A0310FB0CFA0CF90CF80CF30C85
:1003EE00F20CF10CF00C031CEE29FC0303190E2A7F
:1003FE007408F80775080318750FF90776080318BF
:10040E00760FFA0777080318770FFB07F22974089F
:10041E00F80775080318750FF90776080318760F95
:0C042E00FA0777080318770FFB07080097
:06043A00FB15FF30080075
:0E0440004030F0001F30F100F201F30108001F
:10044E007408003A031D402A7508003A031D402A1D
:10045E007608003A031D402A7708003A031D402A09
:10046E00FF30F000FF30F100FF30F2007F30F3007C
:10047E00D82A2000FC01F71BFC0AFD01FB01FA0142
:10048E00F901F80173087204710470040319D32A78
:10049E0073087706A000A01BFD09F71F612AF40957
:1004AE00F509F609F709F40A0319F50A0319F60A0C
:1004BE000319F70AF31F6E2AF009F109F209F3097D
:1004CE00F00A0319F10A0319F20A0319F30A730861
:1004DE007704A000A01B8F2ABB20FC1BAC2AFD1F9B
:1004EE00D32AF009F109F209F309F00A0319F10A06
:1004FE000319F20A0319F30AF809F909FA09FB09B3
:10050E00F80A0319F90A0319FA0A0319FB0AD32A7E
:10051E00F71FA62AF31BA02A7308FB007208FA0025
:10052E007108F9007008F800F301F201F101F00111
:10053E00762AF301F201F101F001F00A0034F30919
:10054E00F209F109F009FC17732AF80A0319F90ADE
:10055E000319FA0A0319FB0A74087802031D762A96
:10056E0075087902031D762A76087A02031D762A0B
:10057E0077087B02031D762AFB01FA01F901F801C7
:10058E00F00A0319F10A0319F20A0319F30AF31F09
:10059E00762AA0012016FF34A0017C1CD72AAF209A
:0405AE00003E080003
:1005B2007B14FB1FE42AF201FA1FFF30F200F10064
:0A05C200F000FA0DF20CFF30080003
:1005CC002000FA017308031D7A147708031DFA142E
:1005DC007A080319312B033A0319FC2A7A18F92AE1
:1005EC00F61F2F2B2D2BF21F2D2B2F2B7208803942
:1005FC00FA00F21376088039F6137A0603190A2BDF
:10060C007A0803192D2B2F2B770873020319112B42
:10061C00031C252B292B760872020319182B031C9B
:10062C00252B292B7508710203191F2B031C252B55
:10063C00292B740870020319312B0318292BFA0883
:10064C0003192F2B2D2BFA0803192D2B2F2B0314E9
:0E065C0008000310080003140315080008002E
:10066A00200072087606A100F801F90173087702E2
:10067A00031C572B7708FD007308F7007D08F30069
:10068A007608FD007208F6007D08F2007508FD0084
:10069A007108F5007D08F1007408FD007008F40087
:1006AA007D08F00077080319D02B7208FA00F217B8
:1006BA00F61777087302F70003198A2B08307702B6
:1006CA00031C802BF7007408F9007508F4007608FB
:1006DA00F500F60108307702031C802BF700740836
:1006EA00F9007508F400F50108307702031C802B25
:1006FA007A08F200D02B770803198A2B0310F60C1C
:10070A00F50CF40CF90CF70B832BA11F972BF909A5
:10071A00F409F509F609F90A0319F40A0319F50A9D
:10072A000319F60A7908F80774080318740FF00712
:10073A0075080318750FF10776080318760FF20784
:10074A00A11BB02B031CC02BF20CF10CF00CF80C03
:10075A00F30FC02BCC2B0318C42BF809F009F109AD
:10076A00F209F80A0319F00A0319F10A0319F20A3D
:10077A008030FA06C82B0130FC002620D22B02302A
:10078A00FC002620D22B0430FC008020D22B08301B
:0E079A00FC001A20D22B0030FC0000000800EA
:1007A8002000E903E9036908003C0318E02BE9038A
:1007B800000000000000D72B00000000000000002F
:0407C8000000080025
:0C07CC000E30FD00FD0BE82B00000800C3
:1007D8002000FB017308031D77080319422C7208D7
:1007E8007606FA007708F3077E30031CFF2BF30226
:1007F8000318452C022CF302031C482C7208F8003D
:100808007108FC007008FD00F817F6170310F201D4
:10081800F101F0011830A1007D1C1C2C7408F007B0
:1008280075080318750FF10776080318760FF20795
:10083800F20CF10CF00CF80CFC0CFD0C0310A10BE5
:10084800102CF21B2C2CF80DF00DF10DF20DF3030A
:100858007B1B701C3E2CF81F3E2CF00A0319F10A72
:100868000319F20A031D3E2CF20CF10CF00CF30AEA
:100878000319452CFA1FF21300304A2C01300320CB
:100888004A2C02301A204A2C04300A2000000800A2
:1008980056302000DC000030DD0003305C078400A7
:1008A80000305D3D850000085A07F10000305B3DCF
:1008B800F2007108DA007208DB0080307206F0007E
:1008C80080307002031D6A2C003071020318712CED
:1008D800F001F101F201F301B22C8030F000803018
:1008E8005B067002031D7A2C5A08FF3C0318A22CE1
:1008F800F401F501F601F7015608F0005708F10078
:100908005808F2005908F300E622013003180030B5
:10091800F00070080319992CFF30F000FF30F10047
:10092800FF30F200FF30F300B22CFF30F000FF3050
:10093800F1007F30F200FF30F300B22C03305C0787
:10094800860000305D3D87005A0881005608F00097
:0E0958005708F1005808F2005908F300080093
:1009660001302000D7002A08D6062F088400300858
:1009760085002A08003A0319C32C32088004C52CC6
:10098600310880052308E900D423D609570803193E
:10099600E22C57085605F000031DD42C32088004BB
:1009A600D62C31088005D73502302302E900D4233E
:1009B600000000000000000000000000C92C2A080A
:1009C600003A0319E92C31088005EB2C3208800423
:0809D6002308E900D423080006
:1009DE0020005608AF005708B0005808F00001304C
:1009EE00F20070080319FE2CF235FF3EF92C720846
:1009FE00A2007209A4005908F1000130F00071083C
:100A0E0003190C2DF035FF3E072D7008B200F009CA
:100A1E007008B1008030560784000030573D8500C5
:100A2E007208800470088005AA015E080319202D43
:100A3E00AA09803084022A08003A0319292D3108A8
:100A4E0080052B2D320880042022E830F40003307C
:100A5E00F500F601F701E7217008DF007108E000EC
:100A6E007208E1007308E2005A08F0005B08F1001A
:100A7E005C08F2005D08F300F035F10DF20DF30D98
:100A8E00F035F10DF20DF30D0A30F400F501F6011B
:100A9E00F701E7217008E3007108E4007208E50031
:100AAE007308E6007008F4007108F5007208F6008D
:100ABE007308F7005F08F0006008F1006108F200AB
:100ACE006208F30027227008E7007108E800710839
:100ADE00F400F501740875040319782D0230F00046
:100AEE00C92D6708A3006308F4006408F5006508C3
:100AFE00F6006608F7005F08F0006008F100610874
:100B0E00F2006208F30027227808F0007908F1005D
:100B1E007A08F2007B08F3007008DF007108E0002D
:100B2E007208E1007308E2006308F5006408F6003D
:100B3E006508F7006608F800F837F70CF60CF50CA8
:100B4E0080307806F400803073067402031DB92DD0
:100B5E0072087702031DB92D71087602031DB92D97
:100B6E00700875020318BC2DA30A2308F100F13694
:100B7E007108A900073071020318C82D0130F0006A
:060B8E00C92DF001080072
:100B940020007008F8007108F000F101F201F3017F
:100BA400FB01FC019630F300FA01F01FDF2DF80978
:100BB400F009F80A0319F00AFA177008F100780826
:0A0BC400F000F801F20180200800A3
:100BCE005630F4000030F500033074078400003016
:100BDE00753D85007E300002F000F1010030F13BE2
:100BEE0020005A0886005B08870070088100710893
:100BFE00413181000330740786000030753D870057
:100C0E007E3081005608F0005708F1005808F200B7
:060C1E005908F300080074
:100C2400200073087706031D242E72087606031D20
:100C3400242E71087506031D242E700874060319EA
:0A0C44000315080003110800080062
:100C4E00F401F501F601F70120005608F0005708EF
:100C5E00F1005808F2005908F300E622013003189B
:100C6E000030F00070080319492E00305606F000CF
:100C7E0000305706F10080305806F2000030590659
:100C8E00F300512E5608F0005708F1005808F200F4
:060C9E005908F3000800F4
:100CA400833021009D0520005608F000F035F03512
:100CB400700821009D04E6239D149D1C622E5F2E66
:100CC4001C08F100F0011B08F0040030F1040800D6
:100CD4002000FB0173080319A62E7208FA00F2170C
:100CE4008E30F302F31FA92EF309F30A08307302BE
:100CF400031C8C2EF300F10D7208F100F201083090
:100D04007302031C8C2EF300F10DF1017308031D13
:100D14000310942E73080319942E0310F20CF10C93
:100D2400F30B8F2E7B1B711C9E2E031C9E2EF10A2F
:100D34000319F20AF21BB52EFA1FB82EF209F109B3
:100D4400F10A0319F20AB82EF201F101B82E7B144C
:100D5400FB1FBB2EF201FA1FBB2EFF30F200F10085
:100D6400FA0DF20CBB2E0130FC00BD2E0030FC004D
:100D7400BD2EFF30FC00FC080319C12ED9227108D6
:080D8400F0007208F100080004
:100D8C0023009E18CB2E0000C62E200056082300F0
:040D9C009A000800B1
:100DA00020005C08F0005D08F100F035F10DF03531
:100DB000F10D70085A07840071085B3D850000083A
:100DC000DE0001310008DF0001310008E0000131E0
:100DD0000008E1005C085D040319262F5608F000A6
:100DE0005708F1005808F2005908F3005E08F400B3
:100DF0005F08F5006008F6006108F700EC23013099
:100E0000DC020030DD3B5C08F4005D08F500F435E1
:100E1000F50DF435F50D74085A07840075085B3D2F
:100E200085000008F40001310008F50001310008D8
:100E3000F60001310008F70035237008DE00710864
:100E4000DF007208E0007308E100EA2E5E08F0009F
:0E0E50005F08F1006008F2006108F30008007E
:100E5E00803020005706F00080307002031D392FBD
:100E6E00003056020318442F5608003CF000570875
:100E7E00031C013EF101F102482F5608F0005708FD
:040E8E00F100080067
:100E9200C6302000A5000630A6005630A70000305C
:100EA200A800FF30BB00FF30BC000030BD000030A6
:100EB200BE00FF30B700FF30B8000030B90000308C
:100EC200BA00FF30B300FF30B4000030B50000308C
:100ED200B60023009E1690309D0021008E170E133F
:100EE2002000911E782F23001908F000712F0800AE
:0A0EF20020008030F60635230800CA
:100EFC0052302000AB000630AC005630AD00003054
:0E0F0C00AE00F03021009E009D011D14080073
:0E0F1A007E2720004708D60052261D10080032
:100F280020007008F800FB01FC019E30F300FA0174
:0E0F3800F201F101F0010230FC002620080059
:100F460012001E00F003031DA32FF103031DA32FA0
:020F5600080091
:100F5800703021009900073095002F3023008C0055
:100F68008D018F0190012F3021008C0020308D00E1
:100F78008E018F01900120008C018D018E018F015F
:100F880090017E2723009F15CF309B009C011E15E2
:100F980049270D302000D6000030D7000630D80091
:100FA8000430D9008030DA002530DB00DC01DD01B7
:100FB800DE01EF241A30FC00F830FD00FD0BE22FB3
:080FC800FC0BE22F0000080001
:100FD00020007008F8007108F000F101F201F3013F
:100FE000FB01FC019630F300FA017008F10078086B
:0A0FF000F000F801F2018020080073
:101000007408003A031D19287508003A031D1928B1
:101010007608003A031D19287708003A031D19289D
:10102000FF30F000FF30F1007F30F200FF30F300BE
:10103000BB28200077080319A72873080319AC28D8
:10104000720876068039FA00F217F617A1017208C5
:10105000F8007108FC007008FD007408FD027508B6
:10106000031C750FFC027608031C760FF802F801CA
:10107000FC01FD01031C43280310F20CF10CF00CE1
:10108000F80C0130A1007708F302031C4D287E30D4
:101090002107F3070318B12852287E302107F307F0
:1010A000031CB6281830FA07FD0DFC0DF80DF00DE5
:1010B000F10DF20DA10D7408F0027508031C750FF7
:1010C000F1027608031C760FF202760DA104211CB2
:1010D0006B287D1476287408F00775080318750FBF
:1010E000F10776080318760AF2077D10FA031F301D
:1010F0007A05031D54287B1B7D1C9D280310F00DD1
:10110000F10DF20DA10D7408F0027508031C750FA6
:10111000F1027608031C760FF202760D21040139E4
:10112000FD070318FC0A0319F80A031D9D28F80C93
:10113000FC0CFD0CF30A0319B128FA1FF813780808
:10114000F2007C08F1007D08F0000030BA28013080
:1011500080311D228831BA28023080310320883145
:10116000BA28043080311A208831BA2808308031FA
:081170000A208831000008008C
:101178002000D6018031C6268831F401F501F60138
:10118800F70120004708F0004808F1004908F2007C
:101198004A08F3008031E62288310130031C003010
:1011A800F00070080319DA28F001DC280130F0009B
:1011B8007008D6008031C626883120004708F00024
:1011C8004808F1004908F2004A08F30080316A260D
:1011D80088317008D6007108D70080312F278831F0
:1011E8008031CA2588310030F4000030F500203005
:1011F800F6008230F7008031EC23883180316A268E
:1012080088317008D6008031C62688312000D60182
:101218008031B3248831F401F501F601F7014B0858
:10122800F0004C08F1004D08F2004E08F300803140
:10123800E62288310130031C0030F00070080319E1
:101248002729F00129290130F0007008D6008031E3
:10125800B32488314B08F0004C08F1004D08F20027
:101268004E08F30080316A2688317008D60071086C
:10127800D70080312F2788318031CA258831003046
:10128800F4000030F5002030F6008230F70080319D
:10129800EC23883180316A2688317008D600803185
:0612A800B32488310800A8
:1012AE0020004708D6004808D7004908D8004A0849
:1012BE00D9008031272688317008CC007108CD0006
:1012CE007208CE007308CF00F401F501F601F701A4
:1012DE008031122688310130031D0030F000700875
:1012EE0003197E29F001F101F201F301712A4C0874
:1012FE00F4004D08F5004E08F6004F08F7000030D8
:10130E00F0000030F1000030F2007F30F300803149
:10131E00E6228831013003180030F0007008CB004F
:10132E0070080319B3294C08F4004D08F5004E0857
:10133E00F6004F08F7000030F0000030F1000030EA
:10134E00F2007F30F30000207008CC007108CD0051
:10135E007208CE007308CF004C08F0004D08F10063
:10136E004E08F2004F08F3004C08F4004D08F5004B
:10137E004E08F6004F08F7008031EC2388317008D4
:10138E00D0007108D1007208D2007308D300700823
:10139E00D6007108D7007208D8007308D900C5307E
:1013AE00DA008B30DB000530DC000030DD008031F0
:1013BE00D02688314C08F4004D08F5004E08F60092
:1013CE004F08F7008031EC2388317008CC0071088B
:1013DE00CD007208CE007308CF005008D600510819
:1013EE00D7005208D8005308D900DD30DA008B3010
:1013FE00DB000430DC000030DD008031D026883187
:10140E007008F4007108F5007208F6007308F70012
:10141E004C08F0004D08F1004E08F2004F08F300A2
:10142E0000207008CC007108CD007208CE00730841
:10143E00CF004B0803193E2A4C08F4004D08F50066
:10144E004E08F6004F08F700DB30F0000F30F100C9
:10145E004930F2007F30F3008031792788317008EF
:10146E00CC007108CD007208CE007308CF00F401D5
:10147E00F501F601F7014708F0004808F1004908A8
:10148E00F2004A08F3008031E62288310130031859
:10149E000030F00070080319612A00304C06F0008D
:1014AE0000304D06F10080304E06F20000304F063F
:1014BE00F300692A4C08F0004D08F1004E08F200C6
:1014CE004F08F3007008CC007108CD007208CE00F2
:0614DE007308CF000800B6
:1014E40020004708F4004808F5004908F6004A08B7
:1014F400F700F001F101F201F3018031E6228831B5
:101504000130031C0030F000700803198E2AF0012A
:10151400F101F201F301822B4708CB004808CC000B
:101524004908CD004A08CE000030F4000030F50030
:101534000030F6007F30F7004708F0004808F1005B
:101544004908F2004A08F3008031E622883101306C
:1015540003180030F00070080319C92A4B08F4007E
:101564004C08F5004D08F6004E08F7000030F00076
:101574000030F1000030F2007F30F30000207008EA
:10158400CB007108CC007208CD007308CE004B0864
:10159400D6004C08D7004D08D8004E08D900543066
:1015A400DA000030DB008031E72588317008CB0099
:1015B4007108CC007208CD007308CE007008D60004
:1015C4007108D7007208D8007308D9005408DA00EB
:1015D4005508DB00DB37DA0C80314C248831700885
:1015E400CB007108CC007208CD007308CE00003027
:1015F400F4000030F5000030F6007F30F7004708B3
:10160400F0004808F1004908F2004A08F30080316C
:10161400E6228831013003180030F0007008031905
:101624002C2B4B08F4004C08F5004D08F6004E082E
:10163400F7000030F0000030F1000030F2007F309D
:10164400F30000207008CB007108CC007208CD00B4
:101654007308CE001430D3004B08F4004C08F50096
:101664004D08F6004E08F7004708F0004808F1005E
:101674004908F2004A08F30000204B08F4004C0823
:10168400F5004D08F6004E08F70080313523883107
:101694000030F4000030F5000030F6008030F70030
:1016A40000207008CF007108D0007208D1007308C0
:1016B400D2004B08F4004C08F5004D08F6004E0823
:1016C400F7008031122688310130031D0030F0000C
:1016D400700803196E2B7A2B4F08CB005008CC00EE
:1016E4005108CD005208CE00D3035308031D2E2BFE
:1016F4004B08F0004C08F1004D08F2004E08F300CE
:021704000800DB
:10200000833084008B308500A0308600003087004C
:102010004230F0000130F1008031A327903180314F
:10202000AC2790312100E001E10180306106F00031
:1020300080307002031D1E286430600203189B2844
:102040002000C70180318D2790318031E827903101
:1020500021002008F4002108F5002208F6002308DA
:10206000F70080313523903170082100A0007108FD
:10207000A1007208A2007308A30001302000C7006D
:1020800080318D2790318031E8279031210024085C
:10209000F4002508F5002608F6002708F70080312F
:1020A0003523903170082100A4007108A500720842
:1020B000A6007308A70003302000C70080318D27D9
:1020C00090318031E827903121002808F400290858
:1020D000F5002A08F6002B08F700803135239031EF
:1020E00070082100A8007108A9007208AA007308EE
:1020F000AB0004302000C70080318D279031803143
:10210000E827903121002C08F4002D08F5002E0856
:10211000F6002F08F7008031352390317008210038
:10212000AC007108AD007208AE007308AF00E00AA1
:102130000319E10A15280030F4000030F50048309A
:10214000F6008530F7002008F0002108F100220891
:10215000F2002308F300883100209031700821003C
:10216000A0007108A1007208A2007308A30000304B
:10217000F4000030F5004830F6008530F700240800
:10218000F0002508F1002608F2002708F300883146
:102190000020903170082100A4007108A500720889
:1021A000A6007308A7000030F4000030F5004830A6
:1021B000F6008530F7002808F0002908F1002A0809
:1021C000F2002B08F30088310020903170082100C4
:1021D000A8007108A9007208AA007308AB000030BB
:1021E000F4000030F5004830F6008530F7002C0888
:1021F000F0002D08F1002E08F2002F08F3008831BE
:102200000020903170082100AC007108AD00720808
:10221000AE007308AF002000D6018031C626903191
:102220002000D6018031C62690312000D6018031B1
:10223000C62690312000D6018031B3249031D601DA
:102240008031B3249031D6018031B32490318D1E7A
:102250000B2921003008B4003108B5003208B6005F
:102260003308B7003808BC003908BD003A08BE0082
:102270003B08BF004008C4004108C5004208C60032
:102280004308C70020009501C70180318D27903198
:102290008031E827903121002008F4002108F50062
:1022A0002208F6002308F7008031792790310030AA
:1022B000F4000030F5002030F6007730F700803170
:1022C000EC23903170082100B0007108B100720851
:1022D000B2007308B30001302000C70080318D27A1
:1022E00090318031E827903121002408F40025083E
:1022F000F5002608F6002708F7008031792790318D
:102300000030F4000030F5002030F6007730F700A0
:102310008031EC23903170082100B8007108B900B9
:102320007208BA007308BB0002302000C700803179
:102330008D2790318031E82790310030F4008030D3
:10234000F5007D30F6008730F70080317927903135
:102350000030F4000030F5002030F6007730F70050
:102360008031EC23903170082100C0007108C10059
:102370007208C2007308C30003302000C700803118
:102380008D2790318031E827903121002808F40012
:102390002908F5002A08F6002B08F7008031792774
:1023A00090314C30F4003730F5000930F6007030D1
:1023B000F7008031EC23903170082100C8007108CB
:1023C000C9007208CA007308CB0004302000C7009F
:1023D00080318D2790318031E827903121002C0801
:1023E000F4002D08F5002E08F6002F08F7008031C4
:1023F000792790314C30F4003730F5000930F60081
:102400007030F7008031EC23903170082100CC004F
:102410007108CD007208CE007308CF003408F000B8
:102420003508F1003608F2003708F3006630F40092
:102430006630F5006630F6007E30F7008031EC2320
:1024400090317008BF007108C0007208C1007308A5
:10245000C20021003008F0003108F1003208F2001B
:102460003308F300CD30F400CC30F5004C30F600EA
:102470007B30F7008031EC2390313F08F4004008B6
:10248000F5004108F6004208F7008031352390310D
:1024900070082100B0007108B1007208B200730822
:1024A000B3003C08F0003D08F1003E08F2003F0890
:1024B000F3006630F4006630F5006630F6007E30DA
:1024C000F7008031EC2390317008BF007108C00024
:1024D0007208C1007308C20021003808F0003908F2
:1024E000F1003A08F2003B08F300CD30F400CC30A4
:1024F000F5004C30F6007B30F7008031EC23903152
:102500003F08F4004008F5004108F6004208F700D3
:1025100080313523903170082100B8007108B9006E
:102520007208BA007308BB004408F0004508F100C7
:102530004608F2004708F3006630F4006630F50004
:102540006630F6007E30F7008031EC239031700861
:10255000BF007108C0007208C1007308C2002100EA
:102560004008F0004108F1004208F2004308F3007F
:10257000CD30F400CC30F5004C30F6007B30F70065
:102580008031EC2390313F08F4004008F500410809
:10259000F6004208F70080313523903170082100A1
:1025A000C0007108C1007208C2007308C300380877
:1025B000F0003908F1003A08F2003B08F30038084F
:1025C000F4003908F5003A08F6003B08F7008031BE
:1025D000EC2390317008BF007108C0007208C10080
:1025E0007308C20021004008F0004108F1004208D1
:1025F000F2004308F3004008F4004108F5004208E7
:10260000F6004308F7008031EC2390313F08F400D6
:102610004008F5004108F6004208F70080313523F4
:1026200090317008C7007108C8007208C9007308AB
:10263000CA008831722290317008F4007108F500E8
:102640007208F6007308F70021003008F000310826
:10265000F1003208F2003308F30088310020903195
:102660007008C7007108C8007208C9007308CA0062
:10267000883157219031E030F4002E30F50065307C
:10268000F6008430F7008031EC239031700821008F
:10269000D0007108D1007208D2007308D30030084E
:1026A000F0003108F1003208F2003308F30030087E
:1026B000F4003108F5003208F6003308F7008031E5
:1026C000EC2390317008BF007108C0007208C1008F
:1026D0007308C20021004008F0004108F1004208E0
:1026E000F2004308F3004008F4004108F5004208F6
:1026F000F6004308F7008031EC2390313F08F400E6
:102700004008F5004108F6004208F7008031352303
:1027100090317008C7007108C8007208C9007308BA
:10272000CA008831722290317008F4007108F500F7
:102730007208F6007308F70021003808F000390825
:10274000F1003A08F2003B08F30088310020903194
:102750007008C7007108C8007208C9007308CA0071
:10276000883157219031E030F4002E30F50065308B
:10277000F6008430F7008031EC239031700821009E
:10278000D4007108D5007208D6007308D700200065
:102790001508F000803194279031BD30F4003730B7
:1027A000F5000630F6007230F7008031EC239031EE
:1027B00021004808F4004908F5004A08F6004B08D3
:1027C000F7008031EC2390317008C3007108C40019
:1027D0007208C5007308C6007C30F000D930F100E3
:1027E0002030F2007F30F30021005808F40059082F
:1027F000F5005A08F6005B08F7008031EC239031B1
:102800007008BF007108C0007208C1007308C200E0
:102810001508F000803194279031BD30F400373036
:10282000F5000630F6007230F7008031EC2390316D
:102830003F08F4004008F5004108F6004208F700A0
:102840008031EC2390317008F4007108F5007208B3
:10285000F6007308F7004308F0004408F10045084B
:10286000F2004608F3008031792790317008C300E8
:102870007108C4007208C5007308C6007C30F000FF
:10288000D930F1002030F2007F30F30021005008F1
:10289000F4005108F5005208F6005308F7008031A3
:1028A000EC2390317008BF007108C0007208C100AD
:1028B0007308C2001508F000803194279031BD30B4
:1028C000F4003730F5000630F6007230F700803142
:1028D000EC2390313F08F4004008F5004108F60071
:1028E0004208F7008031EC2390314308F40044089B
:1028F000F5004508F6004608F70080313523903191
:1029000021005808F4005908F5005A08F6005B0841
:10291000F70080313523903170082100D80071080C
:10292000D9007208DA007308DB0020001508F000F7
:10293000803194279031BD30F4003730F5000630F7
:10294000F6007230F7008031EC23903121004C0802
:10295000F4004D08F5004E08F6004F08F7008031EE
:10296000EC2390317008C3007108C4007208C500E0
:102970007308C6007C30F000D930F1002030F2003E
:102980007F30F30021005C08F4005D08F5005E086C
:10299000F6005F08F7008031EC2390317008BF002B
:1029A0007108C0007208C1007308C2001508F00069
:1029B000803194279031BD30F4003730F500063077
:1029C000F6007230F7008031EC2390313F08F400BC
:1029D0004008F5004108F6004208F7008031EC237A
:1029E00090317008F4007108F5007208F600730861
:1029F000F7004308F0004408F1004508F2004608DB
:102A0000F3008031792790317008C3007108C40049
:102A10007208C5007308C6007C30F000D930F100A0
:102A20002030F2007F30F30021005408F4005508F4
:102A3000F5005608F6005708F7008031EC23903176
:102A40007008BF007108C0007208C1007308C2009E
:102A50001508F000803194279031BD30F4003730F4
:102A6000F5000630F6007230F7008031EC2390312B
:102A70003F08F4004008F5004108F6004208F7005E
:102A80008031EC2390314308F4004408F5004508F8
:102A9000F6004608F70080313523903121005C08AC
:102AA000F4005D08F5005E08F6005F08F70080316D
:102AB0003523903170082100DC007108DD007208B8
:102AC000DE007308DF005808F4005908F5005A08C2
:102AD000F6005B08F700CD30F000CC30F100CC30D0
:102AE000F2007B30F3008031E62290310130031890
:102AF0000030F000700803199D2DCD30F400CC306B
:102B0000F5004C30F6007B30F70021005808F0004B
:102B10005908F1005A08F2005B08F3008031E62200
:102B20009031013003180030F000700803199D2D1A
:102B30002100D801D901DA01DB0121005C08F40091
:102B40005D08F5005E08F6005F08F700CD30F00084
:102B5000CC30F100CC30F2007B30F3008031E62243
:102B60009031013003180030F00070080319D82D9F
:102B7000CD30F400CC30F5004C30F6007B30F7005F
:102B800021005C08F0005D08F1005E08F2005F08BB
:102B9000F3008031E6229031013003180030F0005C
:102BA00070080319D82D2100DC01DD01DE01DF01F1
:102BB000210000305C062000C300003021005D06CB
:102BC0002000C400803021005E062000C5000030D7
:102BD00021005F062000C60021005808F0005908B7
:102BE000F1005A08F2005B08F3000030F4000030F6
:102BF000F5000030F6007E30F7008031EC23903194
:102C00007008BF007108C0007208C1007308C200DC
:102C10003F08F4004008F5004108F6004208F700BC
:102C20004308F0004408F1004508F2004608F300AC
:102C30008031792790317008C7007108C800720888
:102C4000C9007308CA00003021005C06F0000030A3
:102C50005D06F10080305E06F20000305F06F30092
:102C600020003F08F4004008F5004108F600420843
:102C7000F7008031352390317008CB007108CC000B
:102C80007208CD007308CE008831BC2090310B292A
:022C9000482ECC
:0817060000340034003400340B
:08170E00003400340034003403
:081716000034003400340034FB
:08171E000034003400340034F3
:101726000034003400340034003400340034003413
:101736000034003400340034003400340034003403
:1017460000340034003400340034003400340034F3
:081756000034003400340034BB
:08175E000034003400340034B3
:081766000034003400340034AB
:08176E000034003400340034A3
:0817760000340034003400349B
:08177E00003400340034003493
:0417860000340034F7
:10178A0006343C34043484347D349F346A348434DB
:10179A005C3490340134843460344D343B348134C5
:1017AA005134EC3447347C34DE348D349F3476340F
:1017BA0006343C3404348434C03459340B3485340C
:1017CA007434043444348434F9349B344F348234CA
:0817DA000034003400347F34B8
:020000040001F9
:04000E00A43F3316C2
:00000001FF
