:04000000883100281B
:0E000600F201F101F001F801F30100300800F1
:100014007B15FB1F14280130F300F201F101F001FC
:08002400FA0DF20CFF30080098
:08002C00FA1FF2130030080076
:10003400FB14FB1F2428FF30F300F200F100F00052
:08004400FA0DF20CFF30080078
:10004C0023009E182B28000026282000510823008E
:04005C009A000800FE
:10006000A0017208031D45287108F2007008F10014
:10007000F001A0157208031D45287108F200F10176
:10008000A01120167208031953282008F302031D3B
:10009000031C57280310F21B5B28F00DF10DF20D25
:1000A000F30B4B2857280130FC0003205E28023058
:0E00B000FC000A205E280430FC001620080028
:1000BE0020005108240091001418662863281108A6
:0400CE00F000080036
:1000D2007C189F28FC1870287C19BE286928A0016A
:1000E2007208031D90287108F2007008F100780868
:1000F200F000F801A0157208031D90287108F200A3
:100102007008F100F001A01120167208031D90285A
:100112007108F200F101A01572080319B228200833
:10012200F302031D031CB6280310F21B9F28F80DCF
:10013200F00DF10DF20DF30B9628B6287B1B701C07
:10014200BA28F81FBA28F00A0319F10A0319F20AA9
:10015200031DBA28F20CF10CF00CF30A0319BE28A5
:10016200BA280130FC000320C1280230FC000A201A
:10017200C1280430FC001620C1280830FC001A20D7
:040182000000080071
:10018600200072087606A000F801F90173087702CC
:10019600031CE5287708FD007308F7007D08F300C7
:1001A6007608FD007208F6007D08F2007508FD006D
:1001B6007108F5007D08F1007408FD007008F40070
:1001C6007D08F000770803195E297208FA00F21715
:1001D600F61777087302F700031918290830770213
:1001E600031C0E29F7007408F9007508F400760858
:1001F600F500F60108307702031C0E29F700740893
:10020600F9007508F400F50108307702031C0E2981
:100216007A08F2005E297708031918290310F60CEC
:10022600F50CF40CF90CF70B1129A01F2529F90977
:10023600F409F509F609F90A0319F40A0319F50A86
:100246000319F60A7908F80774080318740FF007FB
:1002560075080318750FF10776080318760FF2076D
:10026600A01B3E29031C4E29F20CF10CF00CF80CD5
:10027600F30F4E295A2903185229F809F009F109F2
:10028600F209F80A0319F00A0319F10A0319F20A26
:100296008030FA0656290130FC00692060290230B8
:1002A600FC00692060290430FC00302060290830F9
:0E02B600FC001A2060290030FC000000080047
:0A02C40071088A007008820008002B
:0602CE00FB15FF300800E3
:1002D400710DF80DF90D7408F8027508031C750FFB
:1002E400F902F00DF10D0F30FC00710DF80DF90D50
:1002F4007408701C8329F8027508031C750FF90231
:100304008829F80775080318750FF907F00DF10D22
:10031400FC0B7729701894297408F80775080318DA
:08032400750FF9070000080045
:0C032C000E30FD00FD0B982900000800B9
:0A03380020008030F606C320080004
:100342007408003A031DBA297508003A031DBA2938
:100352007608003A031DBA297708003A031DBA2924
:10036200FF30F000FF30F1007F30F200FF30F30089
:10037200542A200077080319482A730803194B2AC4
:10038200720876068039FA00F217F617A001720891
:10039200F8007108FC007008FD007408FD02750881
:1003A200031C750FFC027608031C760FF802F80195
:1003B200FC01FD01031CE4290310F20CF10CF00C0A
:1003C200F80C0130A0007708F302031CEE297E30FE
:1003D2002007F30703184E2AF3297E302007F3077C
:1003E200031C512A1830FA07FD0DFC0DF80DF00D13
:1003F200F10DF20DA00D7408F0027508031C750FC3
:10040200F1027608031C760FF202760DA004201C7E
:100412000C2A7D14172A7408F00775080318750F43
:10042200F10776080318760AF2077D10FA031F30E7
:100432007A05031DF5297B1B7D1C3E2A0310F00D56
:10044200F10DF20DA00D7408F0027508031C750F72
:10045200F1027608031C760FF202760D20040139B0
:10046200FD070318FC0A0319F80A031D3E2AF80CBB
:10047200FC0CFD0CF30A03194E2AFA1FF813780834
:10048200F2007C08F1007D08F0000030532A0130B0
:100492006721532A02300320532A04301A20532A98
:0804A20008300A2000000800E8
:1004AA007408003A031D622A7508003A031D622A7D
:1004BA00FF30F0007F30F100BA2A2000FD01F90177
:1004CA00F801710870040319003471087506FA00FE
:1004DA00FA1BFD09FB01F51F772AF409F509F40A4D
:1004EA000319F50AF11F7E2AF009F109F00A031926
:1004FA00F10A71087504FA00FA1B932A6A217B181B
:10050A00A62AFD1F0034F009F109F00A0319F10ABD
:10051A00F809F909F80A0319F90A0034F51FA22A99
:10052A00F11B9E2A7108F9007008F800F101F00128
:10053A00862AF101F001F00A0034F109F009FB0AF8
:10054A00832AF80A0319F90A74087802031D862A0D
:10055A0075087902031D862AF901F801F00A0319C0
:0C056A00F10AF11F862A0000FF3408008F
:10057600200027088600280887004F08810041319F
:0C0586002508F0002608F10062210800A2
:10059200833021009D0520004F08F000F035F03532
:1005A200700821009D0496219D149D1CD92AD62AEB
:1005B2001C08F100F0011B08F0040030F1040800EF
:1005C20026302000A5000030A6005130A7000030E0
:1005D200A800FF30AD00FF30AE000030AF000030A9
:1005E200B000FF30B100FF30B2000030B300003085
:1005F200B400FF30A100FF30A2000030A3000030A1
:10060200A40023009E1690309D0021008E170E1329
:100612002000911E102B23001908F000092B08005E
:100622002000FA017308031D7A147708031DFA14D7
:100632007A0803195C2B033A0319272B7A18242B07
:10064200F61F5A2B582BF21F582B5A2B720880393F
:10065200FA00F21376088039F6137A060319352B5D
:100662007A080319582B5A2B7708730203193C2B6B
:10067200031C502B542B760872020319432B031CC4
:10068200502B542B7508710203194A2B031C502B53
:10069200542B7408700203195C2B0318542BFA08AC
:1006A20003195A2B582BFA080319582B5A2B0314E7
:0E06B2000800031008000314031508000800D8
:1006C000822B3030F000AC2B3130F000AC2B3230CC
:1006D000F000AC2B3330F000AC2B3430F000AC2BFE
:1006E0003530F000AC2B3630F000AC2B3730F0005A
:1006F000AC2B3830F000AC2B3930F000AC2B2A306A
:10070000F000AC2B20004F08003A0319612B4F0872
:10071000013A0319642B4F08023A0319672B4F085B
:10072000033A03196A2B4F08043A03196D2B4F083B
:10073000053A0319702B4F08063A0319732B4F081B
:10074000073A0319762B4F08083A0319792B4F08FB
:0A075000093A03197C2B7F2B0800E7
:10075A00803020005006F00080307002031DB72B55
:10076A0000304F020318C22B4F08003CF00050081B
:10077A00031C013EF101F102C62B4F08F00050089C
:04078A00F100080072
:10078E00C9302000A9000230AA004F30AB00003063
:0E079E00AC00F03021009E009D011D140800EB
:1007AC0020007008F8007108F000F101F201F3016B
:1007BC00FB01FC019630F300FA01F01FEB2BF8095A
:1007CC00F009F80A0319F00AFA177008F100780812
:0A07DC00F000F801F20130200800DF
:1007E600803020004006F00080307002031DFD2B93
:1007F60000303F02031C022C2B30F000042C2D305D
:10080600F0007008CF00BB2220003F08CF00400850
:10081600D000AD237008BF007108C000E830F400B6
:100826000330F50055227808F0007908F1007008C9
:10083600C5007108C6006430F4000030F5003F08BA
:10084600F0004008F10055227808F0007908F10020
:1008560070084502F0007108463BF1006430F40070
:100866000030F50055227008CF0060237008200084
:10087600CF00BB226430F4000030F50020003F08B2
:10088600F0004008F10055227808F0007908F100E0
:100896007008C5007108C6000A30F4000030F50083
:1008A6003F08F0004008F10055227808F00079086A
:1008B600F10070084502F0007108463BF1000A306D
:1008C600F4000030F50055227008CF006023700850
:1008D6002000CF00BB220A30F4000030F5002000D3
:1008E6003F08F0004008F10055227808F00079082A
:1008F600F1007008CF00602370082000CF00BB22F3
:1009060020302000CF00BB22803020004206F000BD
:1009160080307002031D912C00304102031C962C7E
:100926002B30F000982C2D30F0007008CF00BB2241
:1009360020004108CF004208D000AD237008C10056
:100946007108C200E830F4000330F500552278083B
:10095600F0007908F1007008C5007108C60064301F
:10096600F4000030F5004108F0004208F10055227D
:100976007808F0007908F10070084502F000710867
:10098600463BF1006430F4000030F5005522700853
:10099600CF00602370082000CF00BB226430F40033
:1009A6000030F50020004108F0004208F100552211
:1009B6007808F0007908F1007008C5007108C600D3
:1009C6000A30F4000030F5004108F0004208F1005A
:1009D60055227808F0007908F10070084502F00009
:1009E6007108463BF1000A30F4000030F50055224C
:1009F6007008CF00602370082000CF00BB220A30A9
:100A0600F4000030F50020004108F0004208F10033
:100A160055227808F0007908F1007008CF006023AD
:100A260070082000CF00BB2220302000CF00BB2260
:100A3600803020004406F00080307002031D252D12
:100A460000304302031C2A2D2B30F0002C2D2D30B4
:100A5600F0007008CF00BB2220004308CF004408F6
:100A6600D000AD237008C3007108C400E830F4005C
:100A76000330F50055227808F0007908F100700877
:100A8600C5007108C6006430F4000030F500430864
:100A9600F0004408F10055227808F0007908F100CA
:100AA60070084502F0007108463BF1006430F4001E
:100AB6000030F50055227008CF0060237008200032
:100AC600CF00BB226430F4000030F500200043085C
:100AD600F0004408F10055227808F0007908F1008A
:100AE6007008C5007108C6000A30F4000030F50031
:100AF6004308F0004408F10055227808F000790810
:100B0600F10070084502F0007108463BF1000A301A
:100B1600F4000030F50055227008CF0060237008FD
:100B26002000CF00BB220A30F4000030F500200080
:100B36004308F0004408F10055227808F0007908CF
:100B4600F1007008CF00602370082000CF00BB22A0
:0A0B56000A302000CF00BB22080087
:0E0B6000C72320003F08CF00C9221D10080047
:100B6E0012001E00F003031DB72DF103031DB72D58
:020B7E0008006D
:100B8000803020004006F00080307002031DCA2D26
:100B900000303F02031CD12D3F08F2004008F30053
:100BA000DD2D3F08003CF0004008031C013EF10130
:100BB000F1027008F2007108F3007208BF007308B8
:100BC000C00080304206F00080307002031DEA2D24
:100BD00000304102031CF12D4108CD004208CE0037
:100BE000FD2D4108003CF0004208031C013EF101CC
:100BF000F1027008CD007108CE004D08C1004E080A
:100C0000C2003F08F0004008F100D6237008C90078
:100C10007108CA007208CB007308CC004D08F000C0
:100C20004E08F100D6237008F4007108F500720830
:100C3000F6007308F7004908F0004A08F1004B0875
:100C4000F2004C08F300A1217008C5007108C6002D
:100C50007208C7007308C800C301C4018030F000E7
:100C6000803044067002031D372E4308C83C031C25
:100C7000AE2E4308F0004408F100F035F10DF035D8
:100C8000F10D2430700784008930713D8500000823
:100C9000F00001310008F10001310008F2000131DB
:100CA0000008F3004508F4004608F5004708F60080
:100CB0004808F7009C216F30F4001230F5008330B3
:100CC000F6007630F70011230130031C0030F000ED
:100CD00070080319AA2E4308F0004408F100F0350B
:100CE000F10DF035F10D2430700784008930713D2D
:100CF00085000008F00001310008F1000131000812
:100D0000F20001310008F3004508F4004608F50040
:100D10004708F6004808F7009C217008F4007108A5
:100D2000F5007208F6007308F7006F30F00012301B
:100D3000F1000330F2007630F30011230130031C80
:100D40000030F00070080319AA2E4308F000440890
:100D5000F100B22EC30A0319C40A2E2E1930F00076
:060D6000FC30F100080068
:100D6600703021009900073023008C008D018F011F
:100D76009001073021008C008D018E018F019001BA
:100D860020008C018D018E018F019001C723230065
:100D96009F15CF309B009C011E15E1220B30FB00F6
:100DA6002630FC005D30FD00FD0BD72EFC0BD72E48
:0A0DB600FB0BD72E00000000080020
:101000008031B32688312000BB01BC01B901BA018F
:10101000B701B801B501B60180303606F000803066
:101020007002031D15280A30350203183828BF0145
:101030008031B025883170082000B7077108B83DAD
:101040000130BF008031B025883170082000B90719
:101050007108BA3D0230BF008031B0258831700878
:101060002000BB077108BC3DB50A0319B60A0C285D
:101070000A30F4000030F5003708F0003808F100BD
:1010800080315522883106307002B7000230713B42
:10109000B8000A30F4000030F5003908F0003A08D2
:1010A000F100803155228831FD307002B9000130E5
:1010B000713BBA000A30F4000030F5003B08F00044
:1010C0003C08F10080315522883132307002BB007B
:1010D0000230713BBC0080303806F0008030700276
:1010E000031D742800303702031C86283708BF0010
:1010F0003808C0003B08C1003C08C2008031C02550
:1011000088317008BD007108BE009D283708BF00F7
:101110003808C0003B08C1003C08C2008031C0252F
:1011200088317008003CF0007108031C013EF10199
:10113000F1027008BD007108BE003D08B7003E080E
:10114000B80080303A06F00080307002031DAA28F3
:1011500000303902031CBC283908BF003A08C0001F
:101160003B08C1003C08C2008031C02588317008AE
:10117000BD007108BE00D3283908BF003A08C0007E
:101180003B08C1003C08C2008031C025883170088E
:10119000003CF0007108031C013EF101F1027008EF
:1011A000BD007108BE003D08B9003E08BA0080309D
:1011B0003806F00080307002031DE028C830370286
:1011C000031CE628C830B700B801F6288030FF3A83
:1011D000F000803038067002031DF0283708383CD4
:1011E000031CF6283830B700FF30B80080303A06CC
:1011F000F00080307002031DFF28C8303902031C44
:101200000529C830B900BA0115298030FF3AF0002D
:1012100080303A067002031D0F293908383C031C40
:1012200015293830B900FF30BA003708BF00380838
:10123000C0003908C1003A08C200C301C4018031AE
:08124000F32388310328232960
:1012480000340034003400346F34123403347634FC
:10125800A6349B34443476340A34D7342334773470
:101268004234603465347734BC347434133478349D
:101278000A34D73423347834A6349B34443478344D
:1012880042346034653478346F341234033479343A
:10129800963443340B347934E334A5341B3479342D
:1012A800313408342C3479347F346A343C3479341A
:1012B800A6349B3444347934F434FD3454347934CA
:1012C80042346034653479348F34C23475347934B7
:1012D800B634F3347D34793402342B3407347A3419
:1012E80029345C340F347A3450348D3417347A34DA
:1012F800E334A5341B347A340A34D73423347A34AB
:10130800313408342C347A345834393434347A3417
:10131800EC34513438347A341234833440347A34E7
:101328003934B43448347A346034E53450347A3457
:10133800F434FD3454347A341B342F345D347A3425
:101348004234603465347A34683491346D347A3494
:10135800FC34A93471347A342334DB3479347A3464
:101368002534063401347B34B8341E3405347B34D8
:1013780002342B3407347B34963443340B347B34B7
:1013880029345C340F347B34BC34743413347B34E8
:101398000634813415347B349A34993419347B34C7
:1013A8002D34B2341D347B34C134CA3421347B34F7
:1013B8000A34D73423347B349E34EF3427347B34D7
:1013C800313408342C347B34C534203430347B3405
:1013D8000E342D3432347B34A234453436347B34E5
:1013E80035345E343A347B34C93476343E347B3415
:1013F8005C348F3442347B34A6349B3444347B349D
:101408003934B43448347B34CD34CC344C347B3424
:101418006034E53450347B34AA34F13452347B34AC
:101428003D340A3457347B34D13422345B347B3432
:1014380064343B345F347B34AE34473461347B34BA
:101448004234603465347B34D534783469347B3441
:10145800683491346D347B34B2349D346F347B34CA
:101468004634B63473347B34D934CE3477347B3451
:101478006D34E7347B347B340034003400347C34FE
:101488002534063401347C346F34123403347C340C
:10149800B8341E3405347C3402342B3407347C349D
:1014A8002734313408347C3471343D340A347C3484
:1014B800BA3449340C347C34043456340E347C3415
:1014C8004E34623410347C347334683411347C34D0
:1014D800BC34743413347C340634813415347C348D
:1014E80050348D3417347C347534933418347C3448
:1014F800BE349F341A347C340834AC341C347C3405
:101508005234B8341E347C349C34C43420347C3493
:10151800C134CA3421347C340A34D73423347C347B
:101528005434E33425347C349E34EF3427347C340B
:10153800E734FB3429347C340C3402342B347C34C7
:1015480056340E342D347C34A0341A342F347C3481
:10155800E934263431347C343334333433347C3412
:101568005834393434347C34A234453436347C34F9
:10157800EC34513438347C3435345E343A347C3489
:101588007F346A343C347C34A43470343D347C3445
:10159800EE347C343F347C343734893441347C3401
:1015A8008134953443347C34CB34A13445347C3491
:1015B800F034A73446347C343934B43448347C3479
:1015C8008334C0344A347C34CD34CC344C347C3409
:1015D8001734D9344E347C343B34DF344F347C34C4
:1015E8008534EB3451347C34CF34F73453347C3481
:1015F8001934043456347C346234103458347C340E
:10160800AC341C345A347C34D13422345B347C34CA
:101618001B342F345D347C3464343B345F347C3485
:10162800AE34473461347C34F834533463347C3416
:101638004234603465347C346634663466347C34D1
:10164800B034723468347C34FA347E346A347C348E
:1016580044348B346C347C348D3497346E347C341D
:10166800D734A33470347C34FC34A93471347C34DA
:101678004634B63473347C348F34C23475347C3495
:10168800D934CE3477347C342334DB3479347C3425
:101698006D34E7347B347C349134ED347C347C34E1
:1016A800DB34F9347E347C341234833400347D34B2
:1016B8003734893401347D345C348F3402347D34DA
:1016C8008134953403347D34A6349B3404347D341A
:1016D800B8341E3405347D34DD34243406347D3486
:1016E80002342B3407347D342734313408347D34C4
:1016F8004C34373409347D3471343D340A347D3404
:10170800963443340B347D34BA3449340C347D3444
:10171800CD34CC340C347D34F234D2340D347D34B1
:101728001734D9340E347D343B34DF340F347D34F0
:101738006034E53410347D348534EB3411347D3431
:10174800AA34F13412347D34CF34F73413347D3471
:10175800F434FD3414347D340634813415347D3446
:101768002B34873416347D3450348D3417347D341B
:101778007534933418347D349A34993419347D345B
:10178800BE349F341A347D34E334A5341B347D349D
:101798000834AC341C347D342D34B2341D347D34DB
:1017A8005234B8341E347D3464343B341F347D34B1
:1017B8008934413420347D34AE34473421347D3487
:1017C800D3344D3422347D34F834533423347D34C7
:1017D8001D345A3424347D344234603425347D3405
:1017E8006634663426347D348B346C3427347D3447
:1017F800B034723428347D34D534783429347D3487
:10180800FA347E342A347D341F3485342B347D34C5
:1018180044348B342C347D3456340E342D347D349A
:101828007B3414342E347D34A0341A342F347D3470
:10183800C534203430347D34E934263431347D34B1
:101848000E342D3432347D343334333433347D34F0
:101858005834393434347D347D343F3435347D3430
:10186800A234453436347D34C7344B3437347D3470
:10187800EC34513438347D341034583439347D34B0
:0818880035345E343A347D343E
:020000040001F9
:04000E00A43F3316C2
:00000001FF
