:040000008831262BF2
:0E000600F201F101F001F801F30100300800F1
:100014007B15FB1F14280130F300F201F101F001FC
:08002400FA0DF20CFF30080098
:08002C00FA1FF2130030080076
:10003400FB14FB1F2428FF30F300F200F100F00052
:08004400FA0DF20CFF30080078
:10004C0021003E082400910014182D282A2811089C
:04005C00F0000800A8
:10006000A0017208031D45287108F2007008F10014
:10007000F001A0157208031D45287108F200F10176
:10008000A01120167208031953282008F302031D3B
:10009000031C57280310F21B5B28F00DF10DF20D25
:1000A000F30B4B2857280130FC0003205E28023058
:0E00B000FC000A205E280430FC001620080028
:1000BE0023009E18642800005F2821003E082300BC
:0400CE009A0008008C
:0600D200FB15FF300800E1
:1000D8007C18A228FC1873287C19C1286C28A00158
:1000E8007208031D93287108F2007008F10078085F
:1000F800F000F801A0157208031D93287108F2009A
:100108007008F100F001A01120167208031D932851
:100118007108F200F101A01572080319B52820082A
:10012800F302031D031CB9280310F21BA228F80DC3
:10013800F00DF10DF20DF30B9928B9287B1B701CFB
:10014800BD28F81FBD28F00A0319F10A0319F20A9D
:10015800031DBD28F20CF10CF00CF30A0319C12899
:10016800BD280130FC000320C4280230FC000A200E
:10017800C4280430FC001620C4280830FC001A20CB
:04018800000008006B
:10018C002000FA017308031D7A147708031DFA1472
:10019C007A0803191129033A0319DC287A18D9288B
:1001AC00F61F0F290D29F21F0D290F29720880390E
:1001BC00FA00F21376088039F6137A060319EA2846
:1001CC007A0803190D290F29770873020319F128EE
:1001DC00031C05290929760872020319F828031C47
:1001EC0005290929750871020319FF28031C052923
:1001FC000929740870020319112903180929FA082E
:10020C0003190F290D29FA0803190D290F290314B5
:0E021C00080003100800031403150800080072
:10022A00B630F4000030F500033074078400003063
:10023A00753D85007E300002F000F1010030F13B8F
:10024A0021003A0886003B0887007008810071087F
:10025A00413181000330740786000030753D870004
:10026A007E3081003608F0003708F1003808F200C5
:06027A003908F300080042
:10028000B6302100BC000030BD0003303C078400C4
:1002900000303D3D850000083A07F10000303B3D4D
:1002A000F2007108BA007208BB0080307206F000DC
:1002B00080307002031D5E29003071020318652929
:1002C000F001F101F201F301A7298030F000803044
:1002D0003B067002031D6E293A08FF3C031896295D
:1002E000F401F501F601F7013608F0003708F100D6
:1002F0003808F2003908F300C62001300318003036
:10030000F000700803198D29FF30F000FF30F10074
:10031000FF30F200FF30F300A729FF30F000FF307C
:10032000F1007F30F200FF30F300A72903302100F5
:100330003C07860000303D3D87003A0881003608C2
:10034000F0003708F1003808F2003908F30008001F
:0A03500071088A007008820008009E
:10035A00200073087706031DBF2972087606031D5D
:10036A00BF2971087506031DBF2970087406031991
:0A037A000315080003110800080035
:10038400200072087606A000F801F90173087702CC
:10039400031CE4297708FD007308F7007D08F300C7
:1003A4007608FD007208F6007D08F2007508FD006D
:1003B4007108F5007D08F1007408FD007008F40070
:1003C4007D08F000770803195D2A7208FA00F21715
:1003D400F61777087302F7000319172A0830770213
:1003E400031C0D2AF7007408F9007508F400760858
:1003F400F500F60108307702031C0D2AF700740893
:10040400F9007508F400F50108307702031C0D2A81
:100414007A08F2005D2A77080319172A0310F60CEC
:10042400F50CF40CF90CF70B102AA01F242AF90977
:10043400F409F509F609F90A0319F40A0319F50A86
:100444000319F60A7908F80774080318740FF007FB
:1004540075080318750FF10776080318760FF2076D
:10046400A01B3D2A031C4D2AF20CF10CF00CF80CD5
:10047400F30F4D2A592A0318512AF809F009F109F2
:10048400F209F80A0319F00A0319F10A0319F20A26
:100494008030FA06552A0130FC006C205F2A0230B5
:1004A400FC006C205F2A0430FC0030205F2A0830F6
:0E04B400FC001A205F2A0030FC000000080047
:1004C200710DF80DF90D7408F8027508031C750F0B
:1004D200F902F00DF10D0F30FC00710DF80DF90D60
:1004E2007408701C7A2AF8027508031C750FF90249
:1004F2007F2AF80775080318750FF907F00DF10D3B
:10050200FC0B6E2A70188B2A7408F80775080318FA
:08051200750FF9070000080055
:0C051A000E30FD00FD0B8F2A00000800D1
:100526007408003A031DAC2A7508003A031DAC2A6C
:100536007608003A031DAC2A7708003A031DAC2A58
:10054600FF30F000FF30F1007F30F200FF30F300A3
:10055600462B2000770803193A2B730803193D2B05
:10056600720876068039FA00F217F617A0017208AB
:10057600F8007108FC007008FD007408FD0275089B
:10058600031C750FFC027608031C760FF802F801AF
:10059600FC01FD01031CD62A0310F20CF10CF00C31
:1005A600F80C0130A0007708F302031CE02A7E3025
:1005B6002007F3070318402BE52A7E302007F307B0
:1005C600031C432B1830FA07FD0DFC0DF80DF00D3A
:1005D600F10DF20DA00D7408F0027508031C750FDD
:1005E600F1027608031C760FF202760DA004201C99
:1005F600FE2A7D14092B7408F00775080318750F79
:10060600F10776080318760AF2077D10FA031F3001
:100616007A05031DE72A7B1B7D1C302B0310F00D8A
:10062600F10DF20DA00D7408F0027508031C750F8C
:10063600F1027608031C760FF202760D20040139CA
:10064600FD070318FC0A0319F80A031D302BF80CE2
:10065600FC0CFD0CF30A0319402BFA1FF81378085B
:10066600F2007C08F1007D08F0000030452B0130D7
:100676006920452B02300320452B04301A20452BD8
:0806860008300A200000080002
:10068E00200027088600280887006F088100413166
:0C069E002508F0002608F100A821080043
:0A06AA0020008030F606C22108008F
:1006B4007B14FB1F652BF201FA1FFF30F200F100DF
:0A06C400F000FA0DF20CFF30080000
:1006CE007408003A031D742B7508003A031D742B31
:1006DE00FF30F0007F30F100CC2B2000FD01F9013E
:1006EE00F801710870040319003471087506FA00D8
:1006FE00FA1BFD09FB01F51F892BF409F509F40A14
:10070E000319F50AF11F902BF009F109F00A0319EC
:10071E00F10A71087504FA00FA1BA52B61227B18E9
:10072E00B82BFD1F0034F009F109F00A0319F10A84
:10073E00F809F909F80A0319F90A0034F51FB42B60
:10074E00F11BB02B7108F9007008F800F101F001EF
:10075E00982BF101F001F00A0034F109F009FB0ABF
:10076E00952BF80A0319F90A74087802031D982BC1
:10077E0075087902031D982BF901F801F00A031987
:0C078E00F10AF11F982B0000FF34080056
:10079A00833021009D0520006F08F000F035F03508
:1007AA00700821009D048D229D149D1CDD2BDA2BDF
:1007BA001C08F100F0011B08F0040030F1040800E5
:1007CA005F302000A5000030A600BE30A700003030
:1007DA00A800FF30AD00FF30AE000030AF0000309F
:1007EA00B000FF30B100FF30B2000030B30000307B
:1007FA00B400FF30A100FF30A2000030A300003097
:10080A00A40023009E1690309D0021008E170E131F
:10081A002000911E142C23001908F0000D2C08004A
:10082A002000FB017308031D770803196B2C72085B
:10083A007606FA007708F3077E30031C282CF302A9
:10084A0003186E2C2B2CF302031C712C7208F8006F
:10085A007108FC007008FD00F817F6170310F20182
:10086A00F101F0011830A0007D1C452C7408F00736
:10087A0075080318750FF10776080318760FF20743
:10088A00F20CF10CF00CF80CFC0CFD0C0310A00B94
:10089A00392CF21B552CF80DF00DF10DF20DF30366
:1008AA007B1B701C672CF81F672CF00A0319F10ACE
:1008BA000319F20A031D672CF20CF10CF00CF30A6F
:1008CA0003196E2CFA1FF2130030732C0130032027
:1008DA00732C02301A20732C04300A2000000800FE
:1008EA00972C3030F000C12C3130F000C12C32305E
:1008FA00F000C12C3330F000C12C3430F000C12C90
:10090A003530F000C12C3630F000C12C3730F00001
:10091A00C12C3830F000C12C3930F000C12C2A30FB
:10092A00F000C12C20006F08003A0319762C6F08DA
:10093A00013A0319792C6F08023A03197C2C6F08C3
:10094A00033A03197F2C6F08043A0319822C6F08A3
:10095A00053A0319852C6F08063A0319882C6F0883
:10096A00073A03198B2C6F08083A03198E2C6F0863
:0A097A00093A0319912C942C08008F
:1009840021002808F4002908F5002A08F6002B089D
:10099400F700F001F101F201F301C6200130031C5C
:1009A4000030F00070080319DC2CF001F101F201B1
:1009B400F301D22D21002808AC002908AD002A0833
:1009C400AE002B08AF000030F4000030F50000301A
:1009D400F6007F30F7002808F0002908F1002A0803
:1009E400F2002B08F300C620013003180030F00099
:1009F40070080319182D21002C08F4002D08F500A7
:100A04002E08F6002F08F7000030F0000030F10047
:100A14000030F2007F30F300932270082100AC0014
:100A24007108AD007208AE007308AF0021002C08F5
:100A3400B6002D08B7002E08B8002F08B900B4304E
:100A4400BA000030BB0015217008AC007108AD007D
:100A54007208AE007308AF007008B6007108B700E2
:100A64007208B8007308B9003408BA003508BB002E
:100A7400BB37BA0C402170082100AC007108AD00EE
:100A84007208AE007308AF000030F4000030F500C7
:100A94000030F6007F30F7002808F0002908F10044
:100AA4002A08F2002B08F300C62001300318003096
:100AB400F00070080319792D21002C08F4002D088A
:100AC400F5002E08F6002F08F7000030F000003083
:100AD400F1000030F2007F30F3009322700821000F
:100AE400AC007108AD007208AE007308AF0014309A
:100AF4002000EF0021002C08F4002D08F5002E083A
:100B0400F6002F08F7002808F0002908F1002A0849
:100B1400F2002B08F300932221002C08F4002D0886
:100B2400F5002E08F6002F08F700C2210030F4006B
:100B34000030F5000030F6008030F7009322700892
:100B44002100B0007108B1007208B2007308B3004C
:100B54002C08F4002D08F5002E08F6002F08F700E5
:100B6400AD210130031D0030F00070080319BB2DC6
:100B7400C92D21003008AC003108AD003208AE00A8
:100B84003308AF002000EF036F08031D7C2D210004
:100B94002C08F0002D08F1002E08F2002F08F300B5
:020BA400080047
:100BA600CD302000A9000330AA006F30AB00003022
:0E0BB600AC00F03021009E009D011D140800CF
:100BC400803021002906F00080307002031DEC2DD6
:100BD400003028020318F72D2808003CF0002908EB
:100BE400031C013EF101F102FB2D2808F000290845
:040BF400F100080004
:100BF80020007008F8007108F000F101F201F3011B
:100C0800FB01FC019630F300FA017008F100780846
:0A0C1800F000F801F201302008009E
:100C2200F401F501F601F70120006108F000620805
:100C3200F1006308F2006408F300C6200130031CCF
:100C42000030F000700803192F2E6108F4006208CA
:100C5200F5006308F6006408F700432E00306106D1
:100C6200F00000306206F10080306306F2000030CE
:100C72006406F3007008F4007108F5007208F600CB
:100C82007308F7007408E1007508E2007608E300D3
:100C92007708E400F401F501F601F7016508F000B8
:100CA2006608F1006708F2006808F300C620013008
:100CB200031C0030F00070080319682E6508F40068
:100CC2006608F5006708F6006808F7007C2E003019
:100CD2006506F00000306606F10080306706F2001B
:100CE20000306806F3007008F4007108F50072081D
:100CF200F6007308F7007408E5007508E600760848
:100D0200E7007708E800F401F501F601F701690848
:100D1200F0006A08F1006B08F2006C08F300C620CC
:100D22000130031C0030F00070080319A12E69087D
:100D3200F4006A08F5006B08F6006C08F700B52E9F
:100D420000306906F00000306A06F10080306B0660
:100D5200F20000306C06F3007008F4007108F50030
:100D62007208F6007308F7007408E9007508EA00D3
:100D72007608EB007708EC006508F0006608F100E1
:100D82006708F2006808F3006508F4006608F500D9
:100D92006708F6006808F700152470082100A4000F
:100DA2007108A5007208A6007308A7002000690850
:100DB200F0006A08F1006B08F2006C08F3006908A1
:100DC200F4006A08F5006B08F6006C08F7001524B9
:100DD20021002408F4002508F5002608F60027085B
:100DE200F700C22170082100A8007108A90072084A
:100DF200AA007308AB00C2247008F4007108F50061
:100E02007208F6007308F70020006108F00062081B
:100E1200F1006308F2006408F300932270082100D5
:100E2200A0007108A1007208A2007308A3002000AC
:100E3200ED01EE018030F00080306E067002031D7D
:100E4200242F6D08C83C031C9D2F6D08F0006E080E
:100E5200F100F035F10DF035F10D0030700784002E
:100E62009030713D85000008F00001310008F1006A
:100E720001310008F20001310008F30021002008CE
:100E8200F4002108F5002208F6002308F700552394
:100E92006F30F4001230F5008330F6007630F70040
:100EA200C6200130031C0030F00070080319992F8E
:100EB2006D08F0006E08F100F035F10DF035F10D1E
:100EC2000030700784009030713D85000008F0000A
:100ED20001310008F10001310008F200013100087F
:100EE200F30021002008F4002108F5002208F60092
:100EF2002308F70055237008F4007108F500720802
:100F0200F6007308F7006F30F0001230F100033082
:100F1200F2007630F300C6200130031C0030F000EE
:100F220070080319992F6D08F0006E08F100A12FC7
:100F3200ED0A0319EE0A1B2FE730F0000330F1002F
:020F42000800A5
:100F44002000FB0173080319DE2F7208FA00F21760
:100F54008E30F302F31FE12FF309F30A0830730212
:100F6400031CC42FF300F10D7208F100F2010830E4
:100F74007302031CC42FF300F10DF1017308031D68
:100F84000310CC2F73080319CC2F0310F20CF10CAF
:100F9400F30BC72F7B1B711CD62F031CD62FF10A12
:100FA4000319F20AF21BED2FFA1FF02FF209F109CF
:100FB400F10A0319F20AF02FF201F101F02F7B1468
:100FC400FB1FF32FF201FA1FF32FFF30F200F100A1
:100FD400FA0DF20CF32F0130FC00F52F0030FC0069
:100FE400F52FFF30FC00FC080319F92F5A23710870
:080FF400F0007208F100080092
:10100000803020006206F00080307002031D0A2844
:1010100000306102031C0F282B30F00011282D3006
:10102000F0007008EF00803147238831200061080C
:101030002100A800200062082100A9008031E225DB
:10104000883170082000E1007108E200E830F40007
:101050000330F5008031672388317808F000790883
:10106000F1007008E9007108EA006430F400003013
:10107000F5006108F0006208F100803167238831D3
:101080007808F0007908F10070086902F000710832
:101090006A3BF1006430F4000030F50080316723D2
:1010A00088317008EF008031752488317008200085
:1010B000EF008031472388316430F4000030F500C0
:1010C00020006108F0006208F10080316723883158
:1010D0007808F0007908F1007008E9007108EA006A
:1010E0000A30F4000030F5006108F0006208F100F9
:1010F0008031672388317808F0007908F1007008A2
:101100006902F00071086A3BF1000A30F400003017
:10111000F5008031672388317008EF008031752435
:10112000883170082000EF008031472388310A3071
:10113000F4000030F50020006108F0006208F100C2
:101140008031672388317808F0007908F100700851
:10115000EF0080317524883170082000EF00803165
:101160004723883120302000EF0080314723883129
:10117000803020006406F00080307002031DC22819
:1011800000306302031CC7282B30F000C9282D3023
:10119000F0007008EF008031472388312000630899
:1011A0002100A800200064082100A9008031E22568
:1011B000883170082000E3007108E400E830F40092
:1011C0000330F5008031672388317808F000790812
:1011D000F1007008E9007108EA006430F4000030A2
:1011E000F5006308F0006408F1008031672388315E
:1011F0007808F0007908F10070086902F0007108C1
:101200006A3BF1006430F4000030F5008031672360
:1012100088317008EF008031752488317008200013
:10122000EF008031472388316430F4000030F5004E
:1012300020006308F0006408F100803167238831E2
:101240007808F0007908F1007008E9007108EA00F8
:101250000A30F4000030F5006308F0006408F10083
:101260008031672388317808F0007908F100700830
:101270006902F00071086A3BF1000A30F4000030A6
:10128000F5008031672388317008EF0080317524C4
:10129000883170082000EF008031472388310A3000
:1012A000F4000030F50020006308F0006408F1004D
:1012B0008031672388317808F0007908F1007008E0
:1012C000EF0080317524883170082000EF008031F4
:1012D0004723883120302000EF00803147238831B8
:1012E000803020006606F00080307002031D7A29ED
:1012F00000306502031C7F292B30F00081292D303E
:10130000F0007008EF008031472388312000650825
:101310002100A800200066082100A9008031E225F4
:10132000883170082000E5007108E600E830F4001C
:101330000330F5008031672388317808F0007908A0
:10134000F1007008E9007108EA006430F400003030
:10135000F5006508F0006608F100803167238831E8
:101360007808F0007908F10070086902F00071084F
:101370006A3BF1006430F4000030F50080316723EF
:1013800088317008EF0080317524883170082000A2
:10139000EF008031472388316430F4000030F500DD
:1013A00020006508F0006608F1008031672388316D
:1013B0007808F0007908F1007008E9007108EA0087
:1013C0000A30F4000030F5006508F0006608F1000E
:1013D0008031672388317808F0007908F1007008BF
:1013E0006902F00071086A3BF1000A30F400003035
:1013F000F5008031672388317008EF008031752453
:10140000883170082000EF008031472388310A308E
:10141000F4000030F50020006508F0006608F100D7
:101420008031672388317808F0007908F10070086E
:10143000EF0080317524883170082000EF00803182
:101440004723883120302000EF0080314723883146
:10145000803020006806F00080307002031D322AC0
:1014600000306702031C372A2B30F000392A2D3058
:10147000F0007008EF0080314723883120006708B2
:101480002100A800200068082100A9008031E22581
:10149000883170082000E7007108E800E830F400A7
:1014A0000330F5008031672388317808F00079082F
:1014B000F1007008E9007108EA006430F4000030BF
:1014C000F5006708F0006808F10080316723883173
:1014D0007808F0007908F10070086902F0007108DE
:1014E0006A3BF1006430F4000030F500803167237E
:1014F00088317008EF008031752488317008200031
:10150000EF008031472388316430F4000030F5006B
:1015100020006708F0006808F100803167238831F7
:101520007808F0007908F1007008E9007108EA0015
:101530000A30F4000030F5006708F0006808F10098
:101540008031672388317808F0007908F10070084D
:101550006902F00071086A3BF1000A30F4000030C3
:10156000F5008031672388317008EF0080317524E1
:10157000883170082000EF008031472388310A301D
:10158000F4000030F50020006708F0006808F10062
:101590008031672388317808F0007908F1007008FD
:1015A000EF0080317524883170082000EF00803111
:1015B000472388310A302000EF00803147238831EB
:0215C000080021
:1015C2007030210099002F3023008C008D018F0193
:1015D20090012F3021008C008D018E018F0190012E
:1015E20020008C018D018E018F0190018031D32565
:1015F200883123009F15CF309B009C011E1580313E
:10160200E52388310B30FB002630FC005D30FD0005
:10161200FD0B092BFC0B092BFB0B092B0000000017
:021622000800BE
:101624008031D325883120006108EF008031CD233B
:0616340088311D100800C2
:10163A0012001E00F003031D1D2BF103031D1D2BB9
:02164A00080096
:10164C002000D701D801D901DA01D301D401D50189
:10165C00D601CF01D001D101D201CB01CC01CD01FA
:10166C00CE01C701C801C901CA01C301C401C5012A
:10167C00C601BF01C001C101C201BB01BC01BD015A
:10168C00BE01B701B801B901BA01DD01DE01DB0110
:10169C00DC01E1222000B501B60180303606F000F5
:1016AC0080307002031D5C2B643035020318C52B8F
:1016BC000130E10012238031FC2588313708F40019
:1016CC003808F5003908F6003A08F7008031C221D5
:1016DC0088317008B7007108B8007208B900730837
:1016EC00BA00E10112238031FC2588313B08F4005B
:1016FC003C08F5003D08F6003E08F7008031C22199
:10170C0088317008BB007108BC007208BD007308FA
:10171C00BE000430E10012238031FC2588313F08E3
:10172C00F4004008F5004108F6004208F70080314B
:10173C00C22188317008BF007108C0007208C10056
:10174C007308C2000330E10012238031FC2588317C
:10175C004308F4004408F5004508F6004608F70075
:10176C008031C22188317008C3007108C40072082E
:10177C00C5007308C600B50A0319B60A532B00300E
:10178C00F4000030F5004830F6008530F7003708DB
:10179C00F0003808F1003908F2003A08F300803103
:1017AC00932288317008B7007108B8007208B9002C
:1017BC007308BA000030F4000030F5004830F60031
:1017CC008530F7003B08F0003C08F1003D08F200C2
:1017DC003E08F3008031932288317008BB007108F9
:1017EC00BC007208BD007308BE000030F40000306D
:1017FC00F5004830F6008530F7003F08F00040084F
:10180C00F1004108F2004208F30080319322883144
:10181C007008BF007108C0007208C1007308C200D4
:10182C000030F4000030F5004830F6008530F70049
:10183C004308F0004408F1004508F2004608F300A4
:10184C008031932288317008C3007108C40072087B
:10185C00C5007308C6002000D701D801D901DA01F0
:10186C00D301D401D501D601CF01D001D101D201D0
:10187C00CB01CC01CD01CE01C701C801C901CA0100
:10188C00B501B60180303606F00080307002031DC1
:10189C00512C643035020318D32C0130E100122393
:1018AC008031FC2588314708F4004808F5004908C8
:1018BC00F6004A08F7008031C22188317008C70051
:1018CC007108C8007208C9007308CA00E10112232C
:1018DC008031FC2588314B08F4004C08F5004D088C
:1018EC00F6004E08F7008031C22188317008CB0019
:1018FC007108CC007208CD007308CE000230E100F4
:10190C0012238031FC2588314F08F4005008F50073
:10191C005108F6005208F7008031C2218831700856
:10192C00CF007108D0007208D1007308D2000430C7
:10193C00E10012238031FC2588315308F40054084F
:10194C00F5005508F6005608F7008031C2218831A1
:10195C007008D3007108D4007208D5007308D60043
:10196C000330E10012238031FC2588315708F40044
:10197C005808F5005908F6005A08F7008031C221C2
:10198C0088317008D7007108D8007208D900730824
:10199C00DA00B50A0319B60A482C0030F4000030FE
:1019AC00F5004830F6008530F7004708F00048088D
:1019BC00F1004908F2004A08F30080319322883183
:1019CC003708F4003808F5003908F6003A08F70033
:1019DC008031552388317008C7007108C80072081F
:1019EC00C9007308CA000030F4000030F50048301C
:1019FC00F6008530F7004B08F0004C08F1004D085C
:101A0C00F2004E08F3008031932288313B08F40039
:101A1C003C08F5003D08F6003E08F70080315523E0
:101A2C0088317008CB007108CC007208CD007308A7
:101A3C00CE000030F4000030F5004830F600853060
:101A4C00F7004F08F0005008F1005108F20052085E
:101A5C00F3008031932288310030F4000030F5001F
:101A6C001030F6008830F70080315523883170082B
:101A7C00CF007108D0007208D1007308D20000307A
:101A8C00F4000030F5004830F6008530F7005308BC
:101A9C00F0005408F1005508F2005608F3008031AC
:101AAC00932288313F08F4004008F5004108F60005
:101ABC004208F7008031552388317008D300710833
:101ACC00D4007208D5007308D6000030F400003042
:101ADC00F5004830F6008530F7005708F00058083C
:101AEC00F1005908F2005A08F30080319322883132
:101AFC004308F4004408F5004508F6004608F700D2
:101B0C008031552388317008D7007108D8007208CD
:101B1C00D9007308DA00F401F501F601F701470862
:101B2C00F0004808F1004908F2004A08F30080313F
:101B3C00C62088310130031C0030F00070080319F6
:101B4C00C72D4708E1004808E2004908E3004A08AD
:101B5C00E4004B08E5004C08E6004D08E7004E0891
:101B6C00E8004F08E9005008EA005108EB00520861
:101B7C00EC008031112688317008DF007108E0001C
:101B8C00EE2D4708E1004808E2004908E3004A0846
:101B9C00E4004B08E5004C08E6004D08E7004E0851
:101BAC00E8004F08E9005008EA005108EB00520821
:101BBC00EC008031112688317008003CF00071086F
:101BCC00031C013EF101F1027008DF007108E00016
:101BDC005F08DB006008DC00F401F501F601F70199
:101BEC004B08F0004C08F1004D08F2004E08F300D1
:101BFC008031C62088310130031C0030F0007008A1
:101C0C000319282E4B08E1004C08E2004D08E300B4
:101C1C004E08E4004708E5004808E6004908E700DC
:101C2C004A08E8004F08E9005008EA005108EB00A8
:101C3C005208EC008031112688317008DF007108E1
:101C4C00E0004F2E4B08E1004C08E2004D08E30089
:101C5C004E08E4004708E5004808E6004908E7009C
:101C6C004A08E8004F08E9005008EA005108EB0068
:101C7C005208EC008031112688317008003CF000CD
:101C8C007108031C013EF101F1027008DF007108BC
:101C9C00E0005F08DD006008DE005308F000540827
:101CAC00F1005508F2005608F3000930F400283012
:101CBC00F5002030F6007730F7008031152488319C
:101CCC00F530F4004030F5001530F6008630F700A2
:101CDC008031152488317008D3007108D400720843
:101CEC00D5007308D6005708F0005808F1005908C1
:101CFC00F2005A08F3000930F4002830F5002030C7
:101D0C00F6007730F700803115248831F530F40077
:101D1C004030F5001530F6008630F7008031152480
:101D2C0088317008D7007108D8007208D900730880
:101D3C00DA0080305C06F00080307002031DA82EA3
:101D4C00C8305B02031CAE2EC830DB00DC01BE2E9B
:101D5C008030FF3AF00080305C067002031DB82E14
:101D6C005B08383C031CBE2E3830DB00FF30DC0037
:101D7C0080305E06F00080307002031DC72EC83024
:101D8C005D02031CCD2EC830DD00DE01DD2E80305F
:101D9C00FF3AF00080305E067002031DD72E5D08FE
:101DAC00383C031CDD2E3830DD00FF30DE005B08D4
:101DBC00E1005C08E2005D08E3005E08E400530803
:101DCC00F0005408F1005508F2005608F300803179
:101DDC00A22788317008E5007108E6005708F0006A
:101DEC005808F1005908F2005A08F3008031A22774
:101DFC0088317008E7007108E8000020312C052FAD
:1020000000340034003400346F3412340334763436
:10201000A6349B34443476340A34D73423347734AA
:102020004234603465347734BC34743413347834D7
:102030000A34D73423347834A6349B344434783487
:1020400042346034653478346F3412340334793474
:10205000963443340B347934E334A5341B34793467
:10206000313408342C3479347F346A343C34793454
:10207000A6349B3444347934F434FD345434793404
:1020800042346034653479348F34C23475347934F1
:10209000B634F3347D34793402342B3407347A3453
:1020A00029345C340F347A3450348D3417347A3414
:1020B000E334A5341B347A340A34D73423347A34E5
:1020C000313408342C347A345834393434347A3452
:1020D000EC34513438347A341234833440347A3422
:1020E0003934B43448347A346034E53450347A3492
:1020F000F434FD3454347A341B342F345D347A3460
:102100004234603465347A34683491346D347A34CE
:10211000FC34A93471347A342334DB3479347A349E
:102120002534063401347B34B8341E3405347B3412
:1021300002342B3407347B34963443340B347B34F1
:1021400029345C340F347B34BC34743413347B3422
:102150000634813415347B349A34993419347B3401
:102160002D34B2341D347B34C134CA3421347B3431
:102170000A34D73423347B349E34EF3427347B3411
:10218000313408342C347B34C534203430347B343F
:102190000E342D3432347B34A234453436347B341F
:1021A00035345E343A347B34C93476343E347B344F
:1021B0005C348F3442347B34A6349B3444347B34D7
:1021C0003934B43448347B34CD34CC344C347B345F
:1021D0006034E53450347B34AA34F13452347B34E7
:1021E0003D340A3457347B34D13422345B347B346D
:1021F00064343B345F347B34AE34473461347B34F5
:102200004234603465347B34D534783469347B347B
:10221000683491346D347B34B2349D346F347B3404
:102220004634B63473347B34D934CE3477347B348B
:102230006D34E7347B347B340034003400347C3438
:102240002534063401347C346F34123403347C3446
:10225000B8341E3405347C3402342B3407347C34D7
:102260002734313408347C3471343D340A347C34BE
:10227000BA3449340C347C34043456340E347C344F
:102280004E34623410347C347334683411347C340A
:10229000BC34743413347C340634813415347C34C7
:1022A00050348D3417347C347534933418347C3482
:1022B000BE349F341A347C340834AC341C347C343F
:1022C0005234B8341E347C349C34C43420347C34CE
:1022D000C134CA3421347C340A34D73423347C34B6
:1022E0005434E33425347C349E34EF3427347C3446
:1022F000E734FB3429347C340C3402342B347C3402
:1023000056340E342D347C34A0341A342F347C34BB
:10231000E934263431347C343334333433347C344C
:102320005834393434347C34A234453436347C3433
:10233000EC34513438347C3435345E343A347C34C3
:102340007F346A343C347C34A43470343D347C347F
:10235000EE347C343F347C343734893441347C343B
:102360008134953443347C34CB34A13445347C34CB
:10237000F034A73446347C343934B43448347C34B3
:102380008334C0344A347C34CD34CC344C347C3443
:102390001734D9344E347C343B34DF344F347C34FE
:1023A0008534EB3451347C34CF34F73453347C34BB
:1023B0001934043456347C346234103458347C3448
:1023C000AC341C345A347C34D13422345B347C3405
:1023D0001B342F345D347C3464343B345F347C34C0
:1023E000AE34473461347C34F834533463347C3451
:1023F0004234603465347C346634663466347C340C
:10240000B034723468347C34FA347E346A347C34C8
:1024100044348B346C347C348D3497346E347C3457
:10242000D734A33470347C34FC34A93471347C3414
:102430004634B63473347C348F34C23475347C34CF
:10244000D934CE3477347C342334DB3479347C345F
:102450006D34E7347B347C349134ED347C347C341B
:10246000DB34F9347E347C341234833400347D34EC
:102470003734893401347D345C348F3402347D3414
:102480008134953403347D34A6349B3404347D3454
:10249000B8341E3405347D34DD34243406347D34C0
:1024A00002342B3407347D342734313408347D34FE
:1024B0004C34373409347D3471343D340A347D343E
:1024C000963443340B347D34BA3449340C347D347F
:1024D000CD34CC340C347D34F234D2340D347D34EC
:1024E0001734D9340E347D343B34DF340F347D342B
:1024F0006034E53410347D348534EB3411347D346C
:10250000AA34F13412347D34CF34F73413347D34AB
:10251000F434FD3414347D340634813415347D3480
:102520002B34873416347D3450348D3417347D3455
:102530007534933418347D349A34993419347D3495
:10254000BE349F341A347D34E334A5341B347D34D7
:102550000834AC341C347D342D34B2341D347D3415
:102560005234B8341E347D3464343B341F347D34EB
:102570008934413420347D34AE34473421347D34C1
:10258000D3344D3422347D34F834533423347D3401
:102590001D345A3424347D344234603425347D343F
:1025A0006634663426347D348B346C3427347D3481
:1025B000B034723428347D34D534783429347D34C1
:1025C000FA347E342A347D341F3485342B347D3400
:1025D00044348B342C347D3456340E342D347D34D5
:1025E0007B3414342E347D34A0341A342F347D34AB
:1025F000C534203430347D34E934263431347D34EC
:102600000E342D3432347D343334333433347D342A
:102610005834393434347D347D343F3435347D346A
:10262000A234453436347D34C7344B3437347D34AA
:10263000EC34513438347D341034583439347D34EA
:0826400035345E343A347D3478
:020000040001F9
:04000E00A43F3316C2
:00000001FF
