:020000006A296B
:100006008C302000A0000030A1003630A200003065
:10001600A300FF30A400FF30A5000030A60000308A
:10002600A700FF30A800FF30A9000030AA0000306A
:10003600AB00FF30AC00FF30AD000030AE0000304A
:10004600AF0023009E1690309D0021008C140C14E6
:100056002000911E322823001908F0002B280800E2
:10006600803020003605F1000730F0007108F300FB
:10007600700803194128F336FF3E3C284030360508
:10008600F2000630F1007208F000710803194E28DC
:10009600F036FF3E49287008F30620303605F20098
:1000A6000530F1007208F000710803195D28F0367A
:1000B600FF3E58287008F30610303605F200720825
:1000C600F000F036F036F036F0367008F3060830F9
:1000D6003605F2007208F000F036F036F036700899
:1000E600F30604303605F2007208F000F036F036FA
:1000F6007008F30602303605F2007208F000F0369A
:1001060070087306F10001303605F0007108F0063C
:020116000800DF
:1001180023009E18912800008C2820003608230010
:040128009A00080031
:10012C0012001E00F003031D9628F103031D9628F0
:02013C000800B9
:10013E00E03020003004F0007008B1000130B20051
:10014E007008B60033207018AF2823001E10B12897
:10015E0023001E1420003108B6008C202000320827
:10016E00B60033207018BE2823001E10C0282300AE
:10017E001E1420003208B6008C2020003208B60073
:10018E008C2020003208B6008C204230FD00FD0B82
:06019E00CE28000008005D
:1001A40070302100990023008C01013021008C0063
:1001B40020008C0123009F1510309B0000309C0010
:0A01C4001E15032023001E1708007B
:1001CE00C03020003104F0007008B3007008B60093
:1001DE0033207018F52823001E10F72823001E1454
:1001EE0020003308B6008C2020003008B6003320E3
:1001FE007018042923001E10062923001E14200047
:10020E003008B6008C2020003208B600332070185B
:10021E00132923001E10152923001E142000320856
:10022E00B6008C204230FD00FD0B1B29000008009B
:10023E00803020003004F3007308B3000730F20062
:10024E003108F0003208F100720803193229F13733
:10025E00F00CFF3E2C297F307005B4007F30310545
:10026E00B5007308B60033207018402923001E1005
:10027E00422923001E1420003308B6008C202000D3
:10028E003408B600332070184F2923001E10512950
:10029E0023001E1420003408B6008C2020003508E0
:1002AE00B600332070185E2923001E10602923002B
:1002BE001E1420003508B6008C204230FD00FD0BC8
:0602CE0066290000080093
:1002D400D2202000B0019F2002302000B000B101E4
:1002E4006430B200E7200230FB000430FC00BA3076
:1002F400FD00FD0B7B29FC0B7B29FB0B7B290000FC
:100304002000B0014C30B1001D30B2001F210B3071
:10031400FB002630FC005D30FD00FD0B8F29FC0B3B
:0E0324008F29FB0B8F29000000006E299829FD
:020000040001F9
:04000E00A43F1316E2
:00000001FF
