:02000000C72B0C
:10000600FB09FA09F909F809F80A0319F90A0319A3
:08001600FA0A0319FB0A0800B5
:10001E007408F8027508031C750FF9027608031CA4
:10002E00760FFA027708031C770FFB02F30D0730E9
:10003E00FC00730DF80DF90DFA0DFB0D7408731C11
:10004E003628F8027508031C750FF9027608031C92
:10005E00760FFA027708031C770FFB024328F80786
:10006E0075080318750FF90776080318760FFA0747
:10007E0077080318770FFB07F30DFC0B2028720D82
:10008E00F80DF90DFA0DFB0D7408731C5C28F802BF
:10009E007508031C750FF9027608031C760FFA0219
:1000AE007708031C770FFB026928F80775080318F9
:1000BE00750FF90776080318760FFA0777080318F5
:1000CE00770FFB07F20D0730FC00720DF80DF90DDE
:1000DE00FA0DFB0D7408721C8228F8027508031CB9
:1000EE00750FF9027608031C760FFA027708031CC7
:1000FE00770FFB028F28F80775080318750FF9079D
:10010E0076080318760FFA0777080318770FFB07A0
:10011E00F20DFC0B6C28710DF80DF90DFA0DFB0D9F
:10012E007408721CA828F8027508031C750FF902D2
:10013E007608031C760FFA027708031C770FFB0272
:10014E00B528F80775080318750FF9077608031810
:10015E00760FFA0777080318770FFB07F10D0730B4
:10016E00FC00710DF80DF90DFA0DFB0D7408711CE4
:10017E00CE28F8027508031C750FF9027608031CC9
:10018E00760FFA027708031C770FFB02DB28F807BD
:10019E0075080318750FF90776080318760FFA0716
:1001AE0077080318770FFB07F10DFC0BB828700DBD
:1001BE00F80DF90DFA0DFB0D7408711CF428F802F8
:1001CE007508031C750FF9027608031C760FFA02E8
:1001DE007708031C770FFB020129F807750803182F
:1001EE00750FF90776080318760FFA0777080318C4
:1001FE00770FFB07F00D0730FC00700DF80DF90DB1
:10020E00FA0DFB0D7408701C1A29F8027508031CF0
:10021E00750FF9027608031C760FFA027708031C95
:10022E00770FFB022729F80775080318750FF907D2
:10023E0076080318760FFA0777080318770FFB076F
:10024E00F00DFC0B042970183A297408F80775088C
:10025E000318750FF90776080318760FFA07770853
:08026E000318770FFB070800DD
:1002760020002230FC00F801F901FA01FB01FC0321
:10028600031970290310FB0CFA0CF90CF80CF30C8B
:10029600F20CF10CF00C031C4229FC030319622931
:1002A6007408F80775080318750FF9077608031818
:1002B600760FFA0777080318770FFB0746297408A5
:1002C600F80775080318750FF90776080318760FEF
:0C02D600FA0777080318770FFB070800F1
:0E02E2004030F0001F30F100F201F30108007F
:1002F0007408003A031D91297508003A031D9129DD
:100300007608003A031D91297708003A031D9129C8
:10031000FF30F000FF30F100FF30F2007F30F300DB
:10032000292A2000FC01F71BFC0AFD01FB01FA0150
:10033000F901F80173087204710470040319242A86
:1003400073087706A000A01BFD09F71FB229F40966
:10035000F509F609F709F40A0319F50A0319F60A6B
:100360000319F70AF31FBF29F009F109F209F3098C
:10037000F00A0319F10A0319F20A0319F30A7308C0
:100380007704A000A01BE0290F20FC1BFD29FD1F06
:10039000242AF009F109F209F309F00A0319F10A14
:1003A0000319F20A0319F30AF809F909FA09FB0912
:1003B000F80A0319F90A0319FA0A0319FB0A242A8D
:1003C000F71FF729F31BF1297308FB007208FA00E5
:1003D0007108F9007008F800F301F201F101F00171
:1003E000C729F301F201F101F001F00A0034F30929
:1003F000F209F109F009FC17C429F80A0319F90AEE
:100400000319FA0A0319FB0A74087802031DC729A5
:1004100075087902031DC72976087A02031DC729CA
:1004200077087B02031DC729FB01FA01F901F801D6
:10043000F00A0319F10A0319F20A0319F30AF31F68
:10044000C729A0012016FF34A0017C1C282A032004
:04045000003E080062
:1004540020003C08A1003D08A2003E08F000013045
:10046400F20070080319392AF235FF3E342A720863
:10047400B9007209B8003F08F1000130F0007108BA
:100484000319472AF035FF3E422A7008A500F009F7
:100494007008A40080303C07840000303D3D850096
:1004A4007208800470088005A301440803195B2ABC
:1004B400A309803084022308003A0319642A24081B
:1004C4008005662A250880047121E830F400033091
:1004D400F500F601F7013B217008C5007108C6005C
:1004E4007208C7007308C8004008F0004108F10012
:1004F4004208F2004308F300F035F10DF20DF30D5C
:10050400F035F10DF20DF30D0A30F400F501F601AA
:10051400F7013B217008C9007108CA007208CB00BA
:100524007308CC007008F4007108F5007208F60036
:100534007308F7004508F0004608F1004708F20088
:100544004808F30078217008CD007108CE007108C6
:10055400F400F501740875040319B32A0230F0009D
:10056400042B4D08B7004908F4004A08F5004B086D
:10057400F6004C08F7004508F0004608F10047086B
:10058400F2004808F30078217808F0007908F100B7
:100594007A08F2007B08F3007008C5007108C600F1
:1005A4007208C7007308C8004908F5004A08F60035
:1005B4004B08F7004C08F800F837F70CF60CF50C6C
:1005C40080307806F400803073067402031DF42A28
:1005D40072087702031DF42A71087602031DF42AB7
:1005E400700875020318F72AB70A3708F100F136C4
:1005F4007108A600073071020318032B0130F000C4
:06060400042BF0010800C8
:10060A008C302000AF000330B0003A30B100003027
:10061A00B200FF30B300FF30B4000030B500003044
:10062A00B600FF30A700FF30A8000030A900003054
:10063A00AA00FF30AB00FF30AC000030AD00003044
:10064A00AE0023009E1690309D0021008C140C14DD
:10065A002000911E342B23001908F0002D2B0800CE
:10066A002000BC03BC033C08003C0318412BBC031C
:10067A00000000000000382B00000000000000000D
:04068A000000080064
:10068E0012001E00F003031D472BF103031D472B21
:02069E00080052
:1006A00001302000BB002308BA062108840022087C
:1006B00085002308003A0319602B25088004622B6B
:1006C000240880053708BC003523BA093B08031904
:1006D0007F2B3B083A05F000031D712B2508800491
:1006E000732B24088005BB3502303702BC0035234C
:1006F000000000000000000000000000662B23083E
:10070000003A0319862B24088005882B25088004CD
:080710003708BC003523080086
:1007180023009E18912B00008C2B20003A08230000
:040728009A0008002B
:10072C0070302100990023008C01203021008C00B6
:10073C0020008C0123009F15CF309B009C011E15BF
:10074C0005230C302000BC000030BD000130BE0081
:10075C000230BF008030C0002530C100C201C3018F
:10076C00C4012A220B30FB002630FC005D30FD005A
:10077C00FD0BBE2BFC0BBE2BFB0BBE2B000000009D
:02078C00080063
:10078E0096238C1EE52BBA018C232000BA018C23F4
:10079E00D7302000BA008C232000BA01502301303C
:1007AE00BA005023D730BA0050234E30FC00EB3045
:1007BE00FD00FD0BE02BFC0BE02BFC2BBA018C2378
:1007CE002000BA018C232000BA018C232000BA012C
:1007DE005023BA015023BA0150234E30FC00EB30A7
:0E07EE00FD00FD0BF82BFC0BF82BC82BFD2B90
:020000040001F9
:04000E00A43F1316E2
:00000001FF
