:02000000172EB9
:10000600FB14FB1F0D28FF30F300F200F100F00097
:08001600FA0DF20CFF300800A6
:08001E00FA1FF2130030080084
:100026007B15FB1F1D280130F300F201F101F001E1
:08003600FA0DF20CFF30080086
:0E003E00F201F101F001F801F30100300800B9
:0C004C000E30FD00FD0B2828000008000D
:10005800200054082400910014183328302811086F
:04006800F00008009C
:10006C0023009E183B28000036282000540823004B
:04007C009A000800DE
:0A00800071088A0070088200080071
:10008A00A0017208031D5A287108F2007008F100D5
:10009A00F001A0157208031D5A287108F200F10137
:1000AA00A01120167208031968282008F302031DFC
:1000BA00031C6C280310F21B7028F00DF10DF20DD1
:1000CA00F30B60286C280130FC001F2073280230D3
:0E00DA00FC00132073280430FC000F200800E7
:1000E8007B14FB1F7F28F201FA1FFF30F200F1009A
:0A00F800F000FA0DF20CFF300800D2
:10010200833021009D0520005308F000F035F035C2
:10011200700821009D0426209D149D1C91288E2884
:100122001C08F100F0011B08F0040030F104080083
:1001320081302000A9000030AA005330AB0000300B
:0E014200AC00F03021009E009D011D1408004D
:10015000710DF80DF90D7408F8027508031C750F80
:10016000F902F00DF10D0F30FC00710DF80DF90DD5
:100170007408701CC128F8027508031C750FF90279
:10018000C628F80775080318750FF907F00DF10D6B
:10019000FC0BB5287018D2287408F80775080318E6
:0801A000750FF90700000800CB
:0601A800FB15FF3008000A
:1001AE007C180D29FC18DE287C192C29D728A001D3
:1001BE007208031DFE287108F2007008F10078081D
:1001CE00F000F801A0157208031DFE287108F20058
:1001DE007008F100F001A01120167208031DFE2810
:1001EE007108F200F101A0157208031920292008E8
:1001FE00F302031D031C24290310F21B0D29F80D15
:10020E00F00DF10DF20DF30B042924297B1B701C4C
:10021E002829F81F2829F00A0319F10A0319F20AEE
:10022E00031D2829F20CF10CF00CF30A03192C29EA
:10023E0028290130FC001F202F290230FC0013203A
:10024E002F290430FC000F202F290830FC0003203A
:04025E000000080094
:100262002000FB01730803196D297208FA00F217C6
:100272008E30F302F31F7029F309F30A0830730278
:10028200031C5329F300F10D7208F100F20108304A
:100292007302031C5329F300F10DF1017308031DCE
:1002A20003105B29730803195B290310F20CF10C8C
:1002B200F30B56297B1B711C6529031C6529F10A66
:1002C2000319F20AF21B7C29FA1F7F29F209F109AC
:1002D200F10A0319F20A7F29F201F1017F297B1445
:1002E200FB1F8229F201FA1F8229FF30F200F1007E
:1002F200FA0DF20C82290130FC0084290030FC0046
:100302008429FF30FC00FC08031988297420710835
:08031200F0007208F100080080
:10031A002000FB017308031D77080319E3297208FB
:10032A007606FA007708F3077E30031CA029F30249
:10033A000318E629A329F302031CE9297208F80025
:10034A007108FC007008FD00F817F6170310F20197
:10035A00F101F0011830A0007D1CBD297408F007D6
:10036A0075080318750FF10776080318760FF20758
:10037A00F20CF10CF00CF80CFC0CFD0C0310A00BA9
:10038A00B129F21BCD29F80DF00DF10DF20DF30391
:10039A007B1B701CDF29F81FDF29F00A0319F10AF9
:1003AA000319F20A031DDF29F20CF10CF00CF30A0F
:1003BA000319E629FA1FF2130030EB2901301F2036
:1003CA00EB2902300320EB29043013200000080037
:1003DA0020002708860052088100860A2508F000B6
:0803EA002608F1004020080084
:1003F20020007008F800FB01FC019E30F300FA01B6
:0E040200F201F101F0010230FC00D7200800E9
:0E041000992020005208D30081201D10080002
:10041E007408003A031D282A7508003A031D282A7D
:10042E007608003A031D282A7708003A031D282A69
:10043E00FF30F000FF30F1007F30F200FF30F300AC
:10044E00C22A200077080319B62A73080319B92A9D
:10045E00720876068039FA00F217F617A0017208B4
:10046E00F8007108FC007008FD007408FD027508A4
:10047E00031C750FFC027608031C760FF802F801B8
:10048E00FC01FD01031C522A0310F20CF10CF00CBE
:10049E00F80C0130A0007708F302031C5C2A7E30B2
:1004AE002007F3070318BC2A612A7E302007F307C2
:1004BE00031CBF2A1830FA07FD0DFC0DF80DF00DC8
:1004CE00F10DF20DA00D7408F0027508031C750FE6
:1004DE00F1027608031C760FF202760DA004201CA2
:1004EE007A2A7D14852A7408F00775080318750F8B
:1004FE00F10776080318760AF2077D10FA031F300B
:10050E007A05031D632A7B1B7D1CAC2A0310F00D9C
:10051E00F10DF20DA00D7408F0027508031C750F95
:10052E00F1027608031C760FF202760D20040139D3
:10053E00FD070318FC0A0319F80A031DAC2AF80C70
:10054E00FC0CFD0CF30A0319BC2AFA1FF8137808E9
:10055E00F2007C08F1007D08F0000030C12A013065
:10056E00D420C12A02301F20C12A04300320C12A00
:08057E00083013200000080002
:1005860036302000A5000030A6005430A700003009
:10059600A800FF30AD00FF30AE000030AF000030E5
:1005A600B000FF30A100FF30A2000030A3000030F1
:1005B600A400FF30B100FF30B2000030B3000030BD
:1005C600B40023009E1690309D0021008C140C145C
:1005D6002000911EF22A23001908F000EB2A0800D9
:1005E6007408003A031D002B7508003A031D002B02
:1005F600FF30F0007F30F100582B2000FD01F9019B
:10060600F801710870040319003471087506FA00C0
:10061600FA1BFD09FB01F51F152BF409F509F40A70
:100626000319F50AF11F1C2BF009F109F00A031949
:10063600F10A71087504FA00FA1B312BA8207B1801
:10064600442BFD1F0034F009F109F00A0319F10AE1
:10065600F809F909F80A0319F90A0034F51F402BBD
:10066600F11B3C2B7108F9007008F800F101F0014C
:10067600242BF101F001F00A0034F109F009FB0A1C
:10068600212BF80A0319F90A74087802031D242B92
:1006960075087902031D242BF901F801F00A0319E4
:0C06A600F10AF11F242B0000FF340800B3
:1006B2007B2B3030F000A52B3130F000A52B3230EF
:1006C200F000A52B3330F000A52B3430F000A52B21
:1006D2003530F000A52B3630F000A52B3730F00076
:1006E200A52B3830F000A52B3930F000A52B2A308D
:1006F200F000A52B20005208003A03195A2B520889
:10070200013A03195D2B5208023A0319602B520871
:10071200033A0319632B5208043A0319662B520851
:10072200053A0319692B5208063A03196C2B520831
:10073200073A03196F2B5208083A0319722B520811
:0A074200093A0319752B782B080003
:10074C00200072087606A000F801F9017308770200
:10075C00031CC82B7708FD007308F7007D08F30015
:10076C007608FD007208F6007D08F2007508FD00A1
:10077C007108F5007D08F1007408FD007008F400A4
:10078C007D08F00077080319412C7208FA00F21763
:10079C00F61777087302F7000319FB2B0830770262
:1007AC00031CF12BF7007408F9007508F4007608A7
:1007BC00F500F60108307702031CF12BF7007408E2
:1007CC00F9007508F400F50108307702031CF12BD1
:1007DC007A08F200412C77080319FB2B0310F60C56
:1007EC00F50CF40CF90CF70BF42BA01F082CF909E1
:1007FC00F409F509F609F90A0319F40A0319F50ABB
:10080C000319F60A7908F80774080318740FF0072F
:10081C0075080318750FF10776080318760FF207A1
:10082C00A01B212C031C312CF20CF10CF00CF80C3D
:10083C00F30F312C3D2C0318352CF809F009F10974
:10084C00F209F80A0319F00A0319F10A0319F20A5A
:10085C008030FA06392C0130FC00D720432C0230B2
:10086C00FC00D720432C0430FC004520432C0830DE
:0E087C00FC000320432C0030FC0000000800AC
:10088A002000FA017308031D7A147708031DFA146D
:10089A007A080319902C033A03195B2C7A18582CFE
:1008AA00F61F8E2C8C2CF21F8C2C8E2C7208803901
:1008BA00FA00F21376088039F6137A060319692CBE
:1008CA007A0803198C2C8E2C770873020319702C62
:1008DA00031C842C882C760872020319772C031CBB
:1008EA00842C882C7508710203197E2C031C842C15
:1008FA00882C740870020319902C0318882CFA08A3
:10090A0003198E2C8C2CFA0803198C2C8E2C0314A8
:0E091A0008000310080003140315080008006D
:1009280020007008F8007108F000F101F201F301ED
:10093800FB01FC019630F300FA017008F100780819
:0A094800F000F801F201452008005C
:1009520020004608F0004708F1004808F200490864
:10096200F3004A08F4004B08F5004C08F6004D0865
:10097200F700A6237008CE007108CF007208D000DD
:100982007308D1001508F000F921BD30F4003730AA
:10099200F5000630F6007230F7008D214E08F400A3
:1009A2004F08F5005008F6005108F7008D2100307D
:1009B200F4000030F5000030F6008030F7000F221E
:0209C20008002B
:0A09C40020008030F606A62308008C
:1009CE00F401F501F601F70120004608F000470892
:1009DE00F1004808F2004908F30045240130031CD9
:1009EE000030F00070080319FF2C2B30F000012DA1
:1009FE002D30F0007008D200ED21F401F501F60162
:100A0E00F70120004608F0004708F1004808F20000
:100A1E004908F3004524013003180030F000700837
:100A2E000319212D0030C6060030C7068030C806D7
:100A3E000030C9064608F0004708F1004808F200E9
:100A4E004908F3000030F4000030F5002030F600C5
:100A5E008230F7008D2131217008CA007108CB0059
:100A6E00E830F4000330F500F3227808F00079083E
:100A7E00F1007008CC007108CD006430F400003035
:100A8E00F5004A08F0004B08F100F3227808F00058
:100A9E007908F10070084C02F00071084D3BF1002E
:100AAE006430F4000030F500F3227008D2005923B0
:100ABE0070082000D200ED216430F4000030F50003
:100ACE0020004A08F0004B08F100F3227808F000ED
:100ADE007908F1007008CC007108CD000A30F400DE
:100AEE000030F5004A08F0004B08F100F3227808B8
:100AFE00F0007908F10070084C02F00071084D3BCF
:100B0E00F1000A30F4000030F500F3227008D20034
:100B1E00592370082000D200ED210A30F400003075
:100B2E00F50020004A08F0004B08F100F322780887
:100B3E00F0007908F1007008D200592370082000E7
:0E0B4E00D200ED210A302000D200ED21080077
:100B5C002000C701C801C901CA01C60119304602EB
:100B6C000318D92D0130D200082294244708F40030
:100B7C004808F5004908F6004A08F700A623700853
:100B8C00C7007108C8007208C9007308CA00033096
:100B9C00FC009730FD00FD0BD12DFC0BD12D00007E
:100BAC000000C60AB42D0030F4000030F5004830C7
:100BBC00F6008330F7004708F0004808F1004908B8
:0A0BCC00F2004A08F3000F220800AF
:100BD60012001E00F003031DEB2DF103031DEB2D88
:020BE600080005
:100BE80070302100990007309500023023008C00F6
:100BF800023021008C0020008C01992023009F15D1
:100C0800CF309B009C011E15C3221F30FB007130A2
:100C1800FC001E30FD00FD0B0F2EFC0B0F2EFB0BF6
:060C28000F2E0000080081
:100C2E002000C101C201C301C401BD01BE01BF014B
:100C3E00C001B901BA01BB01BC01B501B601B701D2
:100C4E00B801F425AE257008B5007108B60072081B
:100C5E00B7007308B800200095013D08B9003E08A2
:100C6E00BA003F08BB004008BC00BD01BE01BF0179
:100C7E00C001C501193045020318662E0130D2009D
:100C8E00082294243D08F4003E08F5003F08F600C3
:100C9E004008F700A6237008BD007108BE00720858
:100CAE00BF007308C0000330FC009730FD00FD0B41
:100CBE005E2EFC0B5E2E00000000C50A412E003099
:100CCE00F4000030F5004830F6008330F7003D08A0
:100CDE00F0003E08F1003F08F2004008F3000F223A
:100CEE007008BD007108BE007208BF007308C00016
:100CFE003508F4003608F5003708F6003808F70016
:100D0E00E2247008BD007108BE007208BF007308AF
:100D1E00C0000030F4000030F5008030F6007E3068
:100D2E00F70045240130031C0030F0007008031951
:100D3E00F42E3D08F4003E08F5003F08F60040088A
:100D4E00F7000030F0000030F1000030F2007E308D
:100D5E00F30045240130031C0030F0007008031925
:100D6E00F42EB901BA01BB01BC01BD01BE01BF0128
:100D7E00C0010030F4000030F500A030F6008130E4
:100D8E00F7004108F0004208F1004308F200440861
:100D9E00F30045240130031C0030F00070080319E5
:100DAE00F42E4108F4004208F5004308F60044080A
:100DBE00F7000030F0000030F1002030F2008130FA
:100DCE00F30045240130031C0030F00070080319B5
:100DDE00F42EC101C201C301C4013D08F0003E085A
:100DEE00F1003F08F2004008F300D830F4006F30F5
:100DFE00F5006930F6008130F7008D217008BD00D6
:100E0E007108BE007208BF007308C0003908C60022
:100E1E003A08C7003B08C8003C08C9007008CA0061
:100E2E007108CB007208CC007308CD00A9244108CC
:100E3E00F4004208F5004308F6004408F700A62324
:100E4E007008C1007108C2007208C3007308C400A4
:100E5E000030F4000030F5003430F6008530F70035
:100E6E0045240130031C0030F00070080319482F90
:100E7E000030C1000030C2003430C3008530C400E1
:100E8E00682F4108F4004208F5004308F6004408B4
:100E9E00F7000030F0000030F100B430F200853081
:100EAE00F30045240130031C0030F00070080319D4
:100EBE00682F0030C1000030C200B430C30085304E
:100ECE00C4004108C6004208C7004308C8004408D1
:080EDE00C900E724322E722F37
:020000040001F9
:04000E00A43F1316E2
:00000001FF
