:020000007E2858
:100006002400141910281F301605F1007108003A53
:0E001600031D10280130F0001128F001080031
:1000240080302400940028309500133092008B1502
:0C0034008B150B178B178B118B1108001C
:1000400070302100990023008C01063021008C00C3
:0600500020008C010800F5
:1000560024001413941321000C158C14383024003A
:0400660095000800F9
:10006A002000A001A1012108123C031D3E282008FE
:10007A008E3C031C4A2803207008031945284A2885
:10008A002000A00A0319A10A3828200012302102F0
:10009A00031D51288F302002031C56287B30F000A4
:1000AA005C2824001614161C5B285828F001080046
:1000BA0020009111200824009100141D652862284F
:1000CA0020009119692865282400161B6E28F00162
:0A00DA00712816150230F00008002E
:0600E400240016150800BF
:1000EA0012001E00F003031D7528F103031D752875
:0200FA000800FC
:1000FC0020201220143092002B20352010302000AC
:10010C00A0005D202000A0015D202000A0015D204A
:10011C0064302000A0005D202000A0015D202000A4
:10012C00A0015D202000A0015D202000A0015D2029
:10013C002000A0015D2072200630FB001330FC0073
:10014C00AD30FD00FD0BA828FC0BA828FB0BA82844
:10015C0000000000352010302000A0005D202000A1
:10016C00A0015D202000A0015D202000A0015D20E9
:10017C002000A0015D202000A0015D202000A00136
:10018C005D202000A0015D202000A0015D207220D8
:10019C000630FB001330FC00AD30FD00FD0BD42805
:1001AC00FC0BD428FB0BD428000000008328DD288E
:020000040001F9
:04000E00A43F1316E2
:00000001FF
