:02000000AA292B
:06000600000000000800EC
:10000C000F30FC004730FD00FD0B0A28FC0B0A28C2
:06001C00000000000800D6
:0A0022002130FD00FD0B132808003B
:10002C002000AA1B1B280D111C280D152A1B20288B
:10003C008D1121288D15AA1A25280D1226280D168A
:10004C002A1A2A288D122B288D1620182F288D1746
:10005C0030288D130D1703200D13AA1937280D11F5
:10006C0038280D152A193C288D113D288D15AA18F4
:10007C0041280D1242280D162A1846288D124728A1
:10008C008D1620184B288D174C288D130D17032017
:0E009C000D13201C53280620542811200800A4
:1000AA000230FC004930FD00FD0B5928FC0B592891
:0600BA0000000000080038
:1000C0002000A9012508F1000130F0007108031992
:1000D0006C28F035FF3E67287008A80023088400CC
:1000E0002408850070080005F10071080130031D27
:1000F0000030F0002708F006031998282608003C75
:100100000318862855205520A6037E28230884003E
:100110002408850028080005F10071080130031D3E
:100120000030F0002708F00603199828FF30A900D6
:060130002908F0000800A0
:10013600AC2880302000A300BE28C030A300BE2813
:100146009430A300BE28D430A300BE288030A3007C
:10015600BE2820002308013A03199C282308023AE6
:100166000319A0282308033A0319A3282308043AED
:100176000319A628A9282403F0002308F00770080D
:10018600A30020147008AA00162020102508AA0033
:06019600162020140800F1
:10019C0012001E00F003031DCE28F103031DCE2810
:0201AC00080049
:1001AE0070302100990023008C018D018F01900188
:1001BE0021008C018D0170308E008F019001200086
:1001CE008C018D018E018F0190011A30FC00F830E8
:0E01DE00FD00FD0BF028FC0BF02800000800CF
:1001EC0018293030F00042293130F00042293230E9
:1001FC00F00042293330F00042293430F00042291B
:10020C003530F00042293630F00042293730F0000A
:10021C0042293830F00042293930F00042292A3086
:10022C00F000422920002308003A0319F72823087C
:10023C00013A0319FA282308023A0319FD28230866
:10024C00033A031900292308043A03190329230844
:10025C00053A031906292308063A03190929230824
:10026C00073A03190C292308083A03190F29230804
:0A027C00093A031912291529080098
:10028600803020002406F00080307002031D4D29C6
:1002960000302302031858292308003CF0002408E4
:1002A600031C013EF101F1025C292308F000240839
:0402B600F10008004B
:1002BA0021000D138D138D120D128D110D112000B9
:1002CA000D138D130D118D110D128D12062006209E
:1002DA0006200D168D160D1703200D1306200D1777
:1002EA0003200D1306200D1703200D1306208D126F
:1002FA000D1703200D1306200D1703200D130D12E1
:10030A000D150D1703200D1306200D118D160D174F
:10031A0003200D138D120D1703200D1306200D1740
:10032A0003200D138D160D1703200D1306208D12B1
:10033A000D1703200D130D158D150D168D160D179E
:0A034A0003200D1306202014080004
:100354002000A101A201D7205D210130AA001620AE
:100364000C30AA0016200E30A3000030A400043084
:10037400A5005030A6000130A700602070080319C2
:10038400C729A10A0319A20AEA290E30A3000030E2
:10039400A4000530A5005030A6000130A70060205D
:1003A40070080319DA290130A1020030A23BEA29BE
:1003B4000E30A3000030A4000630A5005030A60083
:1003C4000130A700602070080319EA29A101A201E5
:1003D4008030F000803022067002031DF3292108CA
:1003E400093C0318FA290930A1000030A200092AA7
:1003F40080302206F0007F307002031D032AF7309C
:1004040021020318092AF730A100FF30A20080302E
:100414002206F00080307002031D122A00302102EF
:10042400031C332A0130AA0016200F30AA0016201C
:100434001430AA0016201430AA0016200130A3009C
:100444000130A4002B30A5009B202108A300F62036
:1004540070082000A5000130A3000230A4009B20F6
:10046400562A0130AA0016200F30AA001620143094
:10047400AA0016201430AA0016200130A30001306F
:10048400A4002D30A5009B202108A3002208A4006D
:1004940043217008A300F62070082000A500013055
:0C04A400A3000230A4009B20B529572AB9
:020000040001F9
:04000E00A43F3316C2
:00000001FF
