:02000000822854
:100006002000FB01FA01F9018030F800F10CF00C38
:10001600031C16287408F90775080318750FFA07E4
:100026000318FB0A0310F01F1E287408FA07750848
:100036000318750FFB07FB0CFA0CF90CF80C031CE4
:1000460009287B08F3007A08F2007908F10078089D
:04005600F0000800AE
:10005A0070302100990023008C0121008C012000BE
:04006A008C010800FD
:0A006E0025009101131293120800FF
:1000780021000C1120001C150C30250093040800E9
:1000880020001B08013EF000F1010030F13D22087C
:10009800F400F50103200630F2007008F40071083E
:1000A800F500720803195C28F536F40CFF3E562853
:1000B8000430F1007408F000710803196628F0355F
:1000C800FF3E612830307005F3007408F0007508B1
:1000D800F100F136F00CF136F00C700825009100B3
:0A00E8000F3093057308930408001D
:1000F20012001E00F003031D7928F103031D792865
:020102000800F3
:100104002D201C149C1063309B0037203C202000C1
:10011400A001A10180302106F00080307002031D8F
:100124009528FF3020020318A8282008A2004420A4
:100134001A30FC00F830FD00FD0B9E28FC0B9E28B5
:1001440000002000A00A0319A10A8C288928A928E4
:020000040001F9
:04000E00A43F1316E2
:00000001FF
