:040000008831842B94
:08000600FA1FF213003008009C
:10000E00FB14FB1F1128FF30F300F200F100F0008B
:08001E00FA0DF20CFF3008009E
:100026007B15FB1F1D280130F300F201F101F001E1
:08003600FA0DF20CFF30080086
:0E003E00F201F101F001F801F30100300800B9
:10004C0023009E182B28000026282100400823009E
:04005C009A000800FE
:100060007C186628FC1837287C1985283028A001C0
:100070007208031D57287108F2007008F100780813
:10008000F000F801A0157208031D57287108F2004E
:100090007008F100F001A01120167208031D572806
:1000A0007108F200F101A0157208031979282008DF
:1000B000F302031D031C7D280310F21B6628F80DB4
:1000C000F00DF10DF20DF30B5D287D287B1B701CEC
:1000D0008128F81F8128F00A0319F10A0319F20A8E
:1000E000031D8128F20CF10CF00CF30A031985288A
:1000F00081280130FC001F2088280230FC001320DA
:1001000088280430FC00032088280830FC000720E1
:0401100000000800E3
:100114002100400824009100141891288E28110809
:04012400F0000800DF
:10012800A0017208031DA9287108F2007008F100E7
:10013800F001A0157208031DA9287108F200F10149
:10014800A011201672080319B7282008F302031D0E
:10015800031CBB280310F21BBF28F00DF10DF20D94
:10016800F30BAF28BB280130FC001F20C228023047
:0E017800FC001320C2280430FC000320080005
:10018600710DF80DF90D7408F8027508031C750F4A
:10019600F902F00DF10D0F30FC00710DF80DF90D9F
:1001A6007408701CDC28F8027508031C750FF90228
:1001B600E128F80775080318750FF907F00DF10D1A
:1001C600FC0BD0287018ED287408F807750803187A
:0801D600750FF9070000080095
:1001DE002000FB017308031D7708031945297208D7
:1001EE007606FA007708F3077E30031C0229F30225
:1001FE00031848290529F302031C4B297208F8003D
:10020E007108FC007008FD00F817F6170310F201D4
:10021E00F101F0011830A0007D1C1F297408F007B1
:10022E0075080318750FF10776080318760FF20795
:10023E00F20CF10CF00CF80CFC0CFD0C0310A00BE6
:10024E001329F21B2F29F80DF00DF10DF20DF3030A
:10025E007B1B701C4129F81F4129F00A0319F10A72
:10026E000319F20A031D4129F20CF10CF00CF30AEA
:10027E0003194829FA1FF21300304D2901301F20AF
:10028E004D29023007204D290430132000000800AC
:10029E007B14FB1F5A29F201FA1FFF30F200F10006
:0A02AE00F000FA0DF20CFF3008001A
:0A02B80071088A0070088200080037
:0C02C2000E30FD00FD0B63290000080059
:0602CE00FB15FF300800E3
:1002D400200072087606A000F801F901730877027D
:1002E400031C8C297708FD007308F7007D08F300D0
:1002F4007608FD007208F6007D08F2007508FD001E
:100304007108F5007D08F1007408FD007008F40020
:100314007D08F00077080319052A7208FA00F2171D
:10032400F61777087302F7000319BF29083077021C
:10033400031CB529F7007408F9007508F400760861
:10034400F500F60108307702031CB529F70074089C
:10035400F9007508F400F50108307702031CB5298B
:100364007A08F200052A77080319BF290310F60C4E
:10037400F50CF40CF90CF70BB829A01FCC29F909DA
:10038400F409F509F609F90A0319F40A0319F50A37
:100394000319F60A7908F80774080318740FF007AC
:1003A40075080318750FF10776080318760FF2071E
:1003B400A01BE529031CF529F20CF10CF00CF80C38
:1003C400F30FF529012A0318F929F809F009F109AD
:1003D400F209F80A0319F00A0319F10A0319F20AD7
:1003E4008030FA06FD290130FC003020072A023053
:1003F400FC003020072A0430FC009420072A08302F
:0E040400FC000720072A0030FC000000080062
:100412002000FA017308031D7A147708031DFA14E9
:100422007A080319542A033A03191F2A7A181C2A34
:10043200F61F522A502AF21F502A522A7208803975
:10044200FA00F21376088039F6137A0603192D2A78
:100452007A080319502A522A770873020319342A98
:10046200031C482A4C2A7608720203193B2A031CF1
:10047200482A4C2A750871020319422A031C482A89
:100482004C2A740870020319542A03184C2AFA08D9
:100492000319522A502AFA080319502A522A03141D
:0E04A2000800031008000314031508000800EA
:1004B000200073087706031D6A2A72087606031D5A
:1004C0006A2A71087506031D6A2A700874060319E2
:0A04D00003150800031108000800DE
:1004DA00833021009D053408F000F035F0357008AE
:1004EA009D0461219D149D1C7B2A782A1C08F10019
:0C04FA00F0011B08F0040030F1040800C1
:100506006D302000A9000230AA00B430AB000030E4
:0E051600AC00F03021009E009D011D14080075
:10052400F401F501F601F70121003408F000350863
:10053400F1003608F2003708F300092201300318ED
:100544000030F00070080319B52A00302100340689
:10055400F00000303506F10080303606F20000303D
:100564003706F300BE2A21003408F0003508F100F4
:0A0574003608F2003708F300080013
:10057E00B430F4000030F50003307407840000300E
:10058E00753D85007E300002F000F1010030F13B38
:10059E00210038088600390887007008810071082C
:1005AE00413181000330740786000030753D8700AD
:1005BE007E3081003408F0003508F1003608F20074
:0605CE003708F3000800ED
:1005D400B4302100BA000030BB0003303A07840075
:1005E40000303B3D850000083807F1000030393DFC
:1005F400F2007108B8007208B90080307206F00089
:1006040080307002031D082B0030710203180F2B79
:10061400F001F101F201F301512B8030F000803040
:1006240039067002031D182B3808FF3C0318402BB1
:10063400F401F501F601F7013408F0003508F10082
:100644003608F2003708F30009220130031800309D
:10065400F00070080319372BFF30F000FF30F10071
:10066400FF30F200FF30F300512BFF30F000FF3079
:10067400F1007F30F200FF30F300512B03302100F2
:100684003A07860000303B3D870038088100340873
:10069400F0003508F1003608F2003708F3000800CE
:1006A40021003A08F0003B08F100F035F10DF03577
:1006B400F10D7008380784007108393D8500000881
:1006C400BC0001310008BD0001310008BE00013149
:1006D4000008BF003A083B040319AA2B3408F000B1
:1006E4003508F1003608F2003708F3003C08F4003E
:1006F4003D08F5003E08F6003F08F700EF20013002
:100704002100BA020030BB3B3A08F4003B08F50074
:10071400F435F50DF435F50D7408380784007508C3
:10072400393D85000008F40001310008F50001316D
:100734000008F60001310008F7006A217008210062
:10074400BC007108BD007208BE007308BF006C2BAA
:100754003C08F0003D08F1003E08F2003F08F300B9
:0207640008008B
:100766002000330886003408870021003408810001
:10077600413120003108F0003208F1005C21080008
:100786002000FB0173080319FF2B7208FA00F21709
:100796008E30F302F31F022CF309F30A08307302BA
:1007A600031CE52BF300F10D7208F100F20108308D
:1007B6007302031CE52BF300F10DF1017308031D11
:1007C6000310ED2B73080319ED2B0310F20CF10C3B
:1007D600F30BE82B7B1B711CF72B031CF72BF10A81
:1007E6000319F20AF21B0E2CFA1F112CF209F10959
:1007F600F10A0319F20A112CF201F101112C7B14F2
:10080600FB1F142CF201FA1F142CFF30F200F1002A
:10081600FA0DF20C142C0130FC00162C0030FC00F2
:10082600162CFF30FC00FC0803191A2C4F21710806
:08083600F0007208F100080057
:10083E00412C3030F0006B2C3130F0006B2C32300C
:10084E00F0006B2C3330F0006B2C3430F0006B2C3E
:10085E003530F0006B2C3630F0006B2C3730F0005A
:10086E006B2C3830F0006B2C3930F0006B2C2A30AA
:10087E00F0006B2C21003408003A0319202C3408A8
:10088E00013A0319232C3408023A0319262C340892
:10089E00033A0319292C3408043A03192C2C340872
:1008AE00053A03192F2C3408063A0319322C340852
:1008BE00073A0319352C3408083A0319382C340832
:0A08CE00093A03193B2C3E2C0800E8
:0A08D80020008030F6066A210800B7
:1008E2007408003A031D8A2C7508003A031D8A2CED
:1008F2007608003A031D8A2C7708003A031D8A2CD9
:10090200FF30F000FF30F1007F30F200FF30F300E3
:10091200242D200077080319182D730803191B2DA5
:10092200720876068039FA00F217F617A0017208EB
:10093200F8007108FC007008FD007408FD027508DB
:10094200031C750FFC027608031C760FF802F801EF
:10095200FC01FD01031CB42C0310F20CF10CF00C91
:10096200F80C0130A0007708F302031CBE2C7E3085
:100972002007F30703181E2DC32C7E302007F30730
:10098200031C212D1830FA07FD0DFC0DF80DF00D9A
:10099200F10DF20DA00D7408F0027508031C750F1D
:1009A200F1027608031C760FF202760DA004201CD9
:1009B200DC2C7D14E72C7408F00775080318750FFA
:1009C200F10776080318760AF2077D10FA031F3042
:1009D2007A05031DC52C7B1B7D1C0E2D0310F00D0B
:1009E200F10DF20DA00D7408F0027508031C750FCD
:1009F200F1027608031C760FF202760D200401390B
:100A0200FD070318FC0A0319F80A031D0E2DF80C42
:100A1200FC0CFD0CF30A03191E2DFA1FF8137808BB
:100A2200F2007C08F1007D08F0000030232D013037
:100A32006721232D02301F20232D04300720232D70
:080A4200083013200000080039
:100A4A007408003A031D322D7508003A031D322D31
:100A5A00FF30F0007F30F1008A2D2000FD01F901FE
:100A6A00F801710870040319003471087506FA0058
:100A7A00FA1BFD09FB01F51F472DF409F509F40AD4
:100A8A000319F50AF11F4E2DF009F109F00A0319AD
:100A9A00F10A71087504FA00FA1B632DC3207B184A
:100AAA00762DFD1F0034F009F109F00A0319F10A45
:100ABA00F809F909F80A0319F90A0034F51F722D21
:100ACA00F11B6E2D7108F9007008F800F101F001B0
:100ADA00562DF101F001F00A0034F109F009FB0A80
:100AEA00532DF80A0319F90A74087802031D562DC2
:100AFA0075087902031D562DF901F801F00A031948
:0C0B0A00F10AF11F562D0000FF34080016
:100B160026302000B1000030B200C030B3000030F3
:100B2600B400FF30AD00FF30AE000030AF00003043
:100B3600B000FF30A500FF30A6000030A70000304F
:100B4600A800FF30A100FF30A2000030A300003053
:100B5600A40023009E1690309D0021008E170E13D0
:100B66002000911EBA2D23001908F000B32D0800AD
:100B760020006B08F4006C08F5006D08F6006E089E
:100B8600F700F001F101F201F30109220130031C23
:100B96000030F00070080319D52DF001F101F201C3
:100BA600F301D42E6B082100A80020006C08210058
:100BB600A90020006D082100AA0020006E0821006F
:100BC600AB000030F4000030F5000030F6007F3056
:100BD600F70020006B08F0006C08F1006D08F200C9
:100BE6006E08F3000922013003180030F000700887
:100BF6000319182E21002808F4002908F5002A08F0
:100C0600F6002B08F7000030F0000030F10000304D
:100C1600F2007F30F300712470082100A8007108EB
:100C2600A9007208AA007308AB0021002808B400C6
:100C36002908B5002A08B6002B08B700B030B8005E
:100C46000030B900BF227008A8007108A900720818
:100C5600AA007308AB007008B4007108B5007208EA
:100C6600B6007308B7003008B8003108B900B937C4
:100C7600B80CEA2270082100A8007108A9007208C1
:100C8600AA007308AB000030F4000030F500003015
:100C9600F6007F30F70020006B08F0006C08F100CA
:100CA6006D08F2006E08F3000922013003180030C7
:100CB600F000700803197A2E21002808F40029088C
:100CC600F5002A08F6002B08F7000030F000003087
:100CD600F1000030F2007F30F3007124700821002B
:100CE600A8007108A9007208AA007308AB001430A6
:100CF6002000EF0021002808F4002908F5002A0842
:100D0600F6002B08F70020006B08F0006C08F100D5
:100D16006D08F2006E08F300712421002808F40023
:100D26002908F5002A08F6002B08F7006A2100308A
:100D3600F4000030F5000030F6008030F700712432
:100D460070082100AC007108AD007208AE0073088F
:100D5600AF002808F4002908F5002A08F6002B0839
:100D6600F70058220130031D0030F0007008031907
:100D7600BD2ECB2E21002C08A8002D08A9002E0878
:100D8600AA002F08AB002000EF036F08031D7D2E7D
:100D960021002808F0002908F1002A08F2002B0893
:040DA600F30008004E
:100DAA0020007008F8007108F000F101F201F30167
:100DBA00FB01FC019630F300FA017008F100780893
:0A0DCA00F000F801F2019420080087
:100DD40012001E00F003031DEA2EF103031DEA2E88
:020DE400080005
:100DE60020007008F800FB01FC019E30F300FA01B8
:0E0DF600F201F101F0010230FC003020080093
:100E0400832220006B082100B4006D221D1008000D
:100E1400703021009900073095002F3023008C009A
:100E24008D018F0190012F3021008C008D018E01E6
:100E34008F01900120008C018D018E018F019001A2
:100E4400832223009F15CF309B009C011E158B2508
:100E54001F30FB007130FC001E30FD00FD0B302FF5
:0C0E6400FC0B302FFB0B302F00000800AF
:1010000020006B082100B40020006C082100B5000E
:1010100020006D082100B60020006E082100B700F6
:101020008031922288317008A8007108A9007208E6
:10103000AA007308AB00F401F501F601F701803155
:10104000582288310130031D0030F0007008031968
:101050002E28F001F101F201F301322921002808C4
:10106000F4002908F5002A08F6002B08F7000030E4
:10107000F0000030F1000030F2007F30F3008031EA
:1010800009228831013003180030F0007008EF00A9
:1010900070080319682821002808F4002908F500C1
:1010A0002A08F6002B08F7000030F0000030F100AD
:1010B0000030F2007F30F3008031712488317008F5
:1010C0002100A8007108A9007208AA007308AB00EB
:1010D00021002808F0002908F1002A08F2002B0856
:1010E000F3002808F4002908F5002A08F6002B0868
:1010F000F7008031EF20883170082100AC007108C2
:10110000AD007208AE007308AF007008B40071083B
:10111000B5007208B6007308B7006E30B8008730AB
:10112000B9000530BA000030BB008031522388314D
:101130002808F4002908F5002A08F6002B08F70013
:101140008031EF20883170082100A8007108A900C3
:101150007208AA007308AB002C08B4002D08B50073
:101160002E08B6002F08B7008630B8008730B900C7
:101170000430BA000030BB0080315223883170083F
:10118000F4007108F5007208F6007308F7002808EB
:10119000F0002908F1002A08F2002B08F300803142
:1011A0007124883170082100A8007108A900720814
:1011B000AA007308AB0020006F080319FC28210067
:1011C0002808F4002908F5002A08F6002B08F70083
:1011D000DB30F0000F30F1004930F2007F30F300D7
:1011E00080316C24883170082100A8007108A900A2
:1011F0007208AA007308AB00F401F501F601F701CB
:1012000020006B08F0006C08F1006D08F2006E0819
:10121000F300803109228831013003180030F000DA
:10122000700803192129003021002806F000003041
:101230002906F10080302A06F20000302B06F30068
:101240002A2921002808F0002908F1002A08F200C4
:101250002B08F3007008A8007108A9007208AA0002
:061260007308AB0008005A
:10126600F401F501F601F70121002808F00029082C
:10127600F1002A08F2002B08F30080310922883198
:101286000130031C0030F000700803194D292B3083
:10129600F0004F292D30F00070082100B400803195
:1012A600B3238831F401F501F601F701210028087E
:1012B600F0002908F1002A08F2002B08F30080311B
:1012C600092288310130031C0030F0007008031930
:1012D6008A2921002808F0002908F1002A08F200CE
:1012E6002B08F3000030F4000030F5002030F60043
:1012F6008230F7008031EF20883170082100B0007D
:101306007108B1007208B2007308B300AB2921005E
:1013160000302806F00000302906F10080302A0649
:10132600F20000302B06F3000030F4000030F50028
:101336002030F6008230F7008031EF2088317008C7
:101346002100B0007108B1007208B2007308B30042
:101356003008F0003108F1003208F2003308F300DB
:101366008031C32388317008EB007108EC00E83047
:10137600F4000330F5008031252588317808F00027
:101386007908F10070082100B0007108B1006430DE
:10139600F4000030F50020006B08F0006C08F10046
:1013A6008031252588317808F0007908F100700829
:1013B60021003002F0007108313BF1006430F40086
:1013C6000030F50080312525883170082100B400F1
:1013D60080311F24883170082100B4008031B32386
:1013E60088316430F4000030F50020006B08F0000E
:1013F6006C08F1008031252588317808F0007908DD
:10140600F10070082100B0007108B1000A30F40044
:101416000030F50020006B08F0006C08F100803108
:10142600252588317808F0007908F1007008210038
:101436003002F0007108313BF1000A30F400003050
:10144600F50080312525883170082100B4008031EF
:101456001F24883170082100B4008031B3238831FD
:101466002E302100B4008031B32388310A30F400D5
:101476000030F50020006B08F0006C08F1008031A8
:10148600252588317808F0007908F10070082100D8
:10149600B40080311F24883170082100B4008031E7
:1014A600B323883120302100B4008031B323883142
:1014B600F401F501F601F70121002C08F0002D08D2
:1014C600F1002E08F2002F08F3008031092288313E
:1014D6000130031C0030F00070080319752A2B3008
:1014E600F000772A2D30F00070082100B40080311A
:1014F600B3238831F401F501F601F70121002C0828
:10150600F0002D08F1002E08F2002F08F3008031BC
:10151600092288310130031C0030F00070080319DD
:10152600B22A21002C08F0002D08F1002E08F20046
:101536002F08F3000030F4000030F5002030F600EC
:101546008230F7008031EF20883170082100B0002A
:101556007108B1007208B2007308B300D32A2100E3
:1015660000302C06F00000302D06F10080302E06EB
:10157600F20000302F06F3000030F4000030F500D2
:101586002030F6008230F7008031EF208831700875
:101596002100B0007108B1007208B2007308B300F0
:1015A6003008F0003108F1003208F2003308F30089
:1015B6008031C32388317008EB007108EC00E830F5
:1015C600F4000330F5008031252588317808F000D5
:1015D6007908F10070082100B0007108B10064308C
:1015E600F4000030F50020006B08F0006C08F100F4
:1015F6008031252588317808F0007908F1007008D7
:1016060021003002F0007108313BF1006430F40033
:101616000030F50080312525883170082100B4009E
:1016260080311F24883170082100B4008031B32333
:1016360088316430F4000030F50020006B08F000BB
:101646006C08F1008031252588317808F00079088A
:10165600F10070082100B0007108B1000A30F400F2
:101666000030F50020006B08F0006C08F1008031B6
:10167600252588317808F0007908F10070082100E6
:101686003002F0007108313BF1000A30F4000030FE
:10169600F50080312525883170082100B40080319D
:1016A6001F24883170082100B4008031B3238831AB
:1016B6002E302100B4008031B32388310A30F40083
:1016C6000030F50020006B08F0006C08F100803156
:1016D600252588317808F0007908F1007008210086
:1016E600B40080311F24883170082100B400803195
:1016F600B32388310A302100B4008031B323883106
:021706000800D9
:101708003830840087308500353086000030870007
:101718003630F0000130F1008031EA26883180311E
:101728000A278831803020003606F00080307002A9
:10173800031DA02B0A3035020318112C0130EB00D1
:101748008031022788318031D52688313708F40066
:101758003808F5003908F6003A08F70080316A21A0
:1017680088317008B7007108B8007208B9007308AA
:10177800BA00EB018031022788318031D5268831C3
:101788003B08F4003C08F5003D08F6003E08F70069
:1017980080316A2188317008BB007108BC0072086A
:1017A800BD007308BE000430EB0080310227883189
:1017B8008031D52688313F08F4004008F5004108FB
:1017C800F6004208F70080316A2188317008BF00AE
:1017D8007108C0007208C1007308C2000330EB0032
:1017E8008031022788318031D52688314308F400BA
:1017F8004408F5004508F6004608F70080316A21DC
:1018080088317008C3007108C4007208C5007308E5
:10181800C600B50A0319B60A962B0030F40000304A
:10182800F5002030F6008230F7003708F00038085D
:10183800F1003908F2003A08F30080317124883148
:101848007008B7007108B8007208B9007308BA00C8
:101858000030F4000030F5002030F6008230F70048
:101868003B08F0003C08F1003D08F2003E08F30098
:101878008031712488317008BB007108BC0072087F
:10188800BD007308BE000030F4000030F5002030C1
:10189800F6008230F7003F08F0004008F1004108E8
:1018A800F2004208F3008031712488317008BF00CB
:1018B8007108C0007208C1007308C2000030F4004B
:1018C8000030F5002030F6008230F7004308F000C1
:1018D8004408F1004508F2004608F30080317124FD
:1018E80088317008C3007108C4007208C500730805
:1018F800C600200095010130EB00803102278831B5
:101908008031D52688313708F4003808F5003908C1
:10191800F6003A08F70080316C2488317008C70057
:101928007108C8007208C9007308CA00EB01803149
:10193800022788318031D52688313B08F4003C08DD
:10194800F5003D08F6003E08F70080316C24883128
:101958007008CB007108CC007208CD007308CE0067
:101968000230EB008031022788314030F00202302B
:10197800F13B8031D52688317008CF007108D0003E
:101988007208D1007308D2000430EB0080310227BE
:1019980088318031D52688313F08F4004008F500A9
:1019A8004108F6004208F70080316C24883170083D
:1019B800D3007108D4007208D5007308D60003302C
:1019C800EB008031022788318031D52688314308E1
:1019D800F4004408F5004508F6004608F700803191
:1019E8006C2488317008D7007108D8007208D900B3
:1019F8007308DA004B08F0004C08F1004D08F200BB
:101A08004E08F3004B08F4004C08F5004D08F600AA
:101A18004E08F7008031EF20883170082100A000BF
:101A28007108A1007208A2007308A30020004F08E3
:101A3800F0005008F1005108F2005208F3004F0876
:101A4800F4005008F5005108F6005208F7008031FC
:101A5800EF20883121002008F4002108F500220831
:101A6800F6002308F70080316A2188317008EB00FE
:101A78007108EC007208ED007308EE008031BB2598
:101A880088317008F4007108F5007208F6007308D0
:101A9800F70020004708F0004808F1004908F20064
:101AA8004A08F3008031712488317008EB0071080E
:101AB800EC007208ED007308EE000020E030F4003E
:101AC8002E30F5006530F6008430F7008031EF20C5
:101AD80088317008DB007108DC007208DD007308CB
:101AE800DE004708F0004808F1004908F2004A08FB
:101AF800F3004708F4004808F5004908F6004A08CA
:101B0800F7008031EF20883170082100A0007108AB
:101B1800A1007208A2007308A30020004F08F0007B
:101B28005008F1005108F2005208F3004F08F40081
:101B38005008F5005108F6005208F7008031EF20F0
:101B4800883121002008F4002108F5002208F60059
:101B58002308F70080316A2188317008EB0071088A
:101B6800EC007208ED007308EE008031BB25883167
:101B78007008F4007108F5007208F6007308F700A1
:101B880020004B08F0004C08F1004D08F2004E0808
:101B9800F3008031712488317008EB007108EC0083
:101BA8007208ED007308EE000020E030F4002E30DB
:101BB800F5006530F6008430F7008031EF20883179
:101BC8007008DF007108E0007208E1007308E200A5
:101BD8005308F0005408F1005508F2005608F300C5
:101BE800E030F400BF30F5003A30F6007E30F70000
:101BF8008031EF2088317008D3007108D400720852
:101C0800D5007308D6005708F0005808F1005908A5
:101C1800F2005A08F300E030F400BF30F5003A3023
:101C2800F6007E30F7008031EF2088317008D70049
:101C38007108D8007208D9007308DA003B30F00048
:101C48004630F1007130F2007F30F3006308F40091
:101C58006408F5006508F6006608F7008031EF2093
:101C6800883170082100A0007108A1007208A20044
:101C78007308A30020001508F0008031F32688318E
:101C8800BD30F4003730F5000630F6007230F7004A
:101C98008031EF20883121002008F4002108F50068
:101CA8002208F6002308F7008031EF208831003041
:101CB80070062100A40000307106A500803072066D
:101CC800A60000307306A7003B30F0004630F10054
:101CD8007130F2007F30F30020005B08F4005C08EC
:101CE800F5005D08F6005E08F7008031EF208831C6
:101CF80070082100A0007108A1007208A2007308F2
:101D0800A30020001508F0008031F3268831BD308B
:101D1800F4003730F5000630F6007230F7008031F5
:101D2800EF20883121002008F4002108F50022085E
:101D3800F6002308F7008031EF20883121002408BD
:101D4800F4002508F5002608F6002708F70080317A
:101D58006A21883170082100A0007108A10072086A
:101D6800A2007308A30020001508F0008031F326B4
:101D78008831BD30F4003730F5000630F600723097
:101D8800F7008031EF2088315308F4005408F5003B
:101D98005508F6005608F7008031EF2088312100F9
:101DA8002008F4002108F5002208F6002308F700AF
:101DB80080316A2188316308F4006408F5006508F9
:101DC800F6006608F70080316A2188317008E30060
:101DD8007108E4007208E5007308E6003B30F00083
:101DE8004630F1007130F2007F30F3006708F400EC
:101DF8006808F5006908F6006A08F7008031EF20E6
:101E0800883170082100A0007108A1007208A200A2
:101E18007308A30020001508F0008031F3268831EC
:101E2800BD30F4003730F5000630F6007230F700A8
:101E38008031EF20883121002008F4002108F500C6
:101E48002208F6002308F7008031EF20883100309F
:101E580070062100A40000307106A50080307206CB
:101E6800A60000307306A7003B30F0004630F100B2
:101E78007130F2007F30F30020005F08F400600842
:101E8800F5006108F6006208F7008031EF2088311C
:101E980070082100A0007108A1007208A200730850
:101EA800A30020001508F0008031F3268831BD30EA
:101EB800F4003730F5000630F6007230F700803154
:101EC800EF20883121002008F4002108F5002208BD
:101ED800F6002308F7008031EF208831210024081C
:101EE800F4002508F5002608F6002708F7008031D9
:101EF8006A21883170082100A0007108A1007208C9
:101F0800A2007308A30020001508F0008031F32612
:101F18008831BD30F4003730F5000630F6007230F5
:101F2800F7008031EF2088315708F4005808F50091
:101F38005908F6005A08F7008031EF20883121004F
:101F48002008F4002108F5002208F6002308F7000D
:101F580080316A2188316708F4006808F50069084B
:101F6800F6006A08F70080316A2188317008E700B6
:101F78007108E8007208E9007308EA0063082100A4
:101F8800A800200064082100A9002000650821009D
:101F9800AA00200066082100AB007008AC00710898
:101FA800AD007208AE007308AF0033217D2CDB2F23
:040E70000034003416
:080E74000034003400340034A6
:080E7C0000340034003400349E
:080E8400003400340034003496
:080E8C0000340034003400348E
:080E9400003400340034003486
:080E9C0000340034003400347E
:080EA400003400340034003476
:080EAC0000340034003400346E
:080EB400003400340034003466
:080EBC0000340034003400345E
:080EC400003400340034003456
:080ECC0000340034003400344E
:080ED400003400340034003446
:100EDC0006343C34043484347D349F346A34843492
:100EEC005C3490340134843460344D343B3481347C
:100EFC005134EC3447347C34DE348D349F347634C6
:100F0C0006343C3404348434C03459340B348534C2
:100F1C007434043444348434F9349B344F34823480
:080F2C000034003400347F346E
:020000040001F9
:04000E00A43F3316C2
:00000001FF
