:02000000C12C11
:100006007408F8027508031C750FF9027608031CBC
:10001600760FFA027708031C770FFB02F30D073001
:10002600FC00730DF80DF90DFA0DFB0D7408731C29
:100036002A28F8027508031C750FF9027608031CB6
:10004600760FFA027708031C770FFB023728F807AA
:1000560075080318750FF90776080318760FFA075F
:1000660077080318770FFB07F30DFC0B1428720DA6
:10007600F80DF90DFA0DFB0D7408731C5028F802E3
:100086007508031C750FF9027608031C760FFA0231
:100096007708031C770FFB025D28F807750803181D
:1000A600750FF90776080318760FFA07770803180D
:1000B600770FFB07F20D0730FC00720DF80DF90DF6
:1000C600FA0DFB0D7408721C7628F8027508031CDD
:1000D600750FF9027608031C760FFA027708031CDF
:1000E600770FFB028328F80775080318750FF907C1
:1000F60076080318760FFA0777080318770FFB07B9
:10010600F20DFC0B6028710DF80DF90DFA0DFB0DC3
:100116007408721C9C28F8027508031C750FF902F6
:100126007608031C760FFA027708031C770FFB028A
:10013600A928F80775080318750FF9077608031834
:10014600760FFA0777080318770FFB07F10D0730CC
:10015600FC00710DF80DF90DFA0DFB0D7408711CFC
:10016600C228F8027508031C750FF9027608031CED
:10017600760FFA027708031C770FFB02CF28F807E1
:1001860075080318750FF90776080318760FFA072E
:1001960077080318770FFB07F10DFC0BAC28700DE1
:1001A600F80DF90DFA0DFB0D7408711CE828F8021C
:1001B6007508031C750FF9027608031C760FFA0200
:1001C6007708031C770FFB02F528F8077508031854
:1001D600750FF90776080318760FFA0777080318DC
:1001E600770FFB07F00D0730FC00700DF80DF90DC9
:1001F600FA0DFB0D7408701C0E29F8027508031C15
:10020600750FF9027608031C760FFA027708031CAD
:10021600770FFB021B29F80775080318750FF907F6
:1002260076080318760FFA0777080318770FFB0787
:10023600F00DFC0BF82870182E297408F8077508BD
:100246000318750FF90776080318760FFA0777086B
:080256000318770FFB070800F5
:10025E00FB09FA09F909F809F80A0319F90A031949
:08026E00FA0A0319FB0A08005B
:1002760020002230FC00F801F901FA01FB01FC0321
:10028600031970290310FB0CFA0CF90CF80CF30C8B
:10029600F20CF10CF00C031C4229FC030319622931
:1002A6007408F80775080318750FF9077608031818
:1002B600760FFA0777080318770FFB0746297408A5
:1002C600F80775080318750FF90776080318760FEF
:0C02D600FA0777080318770FFB070800F1
:0E02E2004030F0001F30F100F201F30108007F
:1002F0007408003A031D91297508003A031D9129DD
:100300007608003A031D91297708003A031D9129C8
:10031000FF30F000FF30F100FF30F2007F30F300DB
:10032000292A2000FC01F71BFC0AFD01FB01FA0150
:10033000F901F80173087204710470040319242A86
:1003400073087706A000A01BFD09F71FB229F40966
:10035000F509F609F709F40A0319F50A0319F60A6B
:100360000319F70AF31FBF29F009F109F209F3098C
:10037000F00A0319F10A0319F20A0319F30A7308C0
:100380007704A000A01BE0290320FC1BFD29FD1F12
:10039000242AF009F109F209F309F00A0319F10A14
:1003A0000319F20A0319F30AF809F909FA09FB0912
:1003B000F80A0319F90A0319FA0A0319FB0A242A8D
:1003C000F71FF729F31BF1297308FB007208FA00E5
:1003D0007108F9007008F800F301F201F101F00171
:1003E000C729F301F201F101F001F00A0034F30929
:1003F000F209F109F009FC17C429F80A0319F90AEE
:100400000319FA0A0319FB0A74087802031DC729A5
:1004100075087902031DC72976087A02031DC729CA
:1004200077087B02031DC729FB01FA01F901F801D6
:10043000F00A0319F10A0319F20A0319F30AF31F68
:10044000C729A0012016FF34A0017C1C282A2F21D7
:04045000003E080062
:1004540020003308A8003408A9003508F000013052
:10046400F20070080319392AF235FF3E342A720863
:10047400A7007209AB003608F1000130F0007108E2
:100484000319472AF035FF3E422A7008AA00F009F2
:100494007008A4008030330784000030343D8500A8
:1004A4007208800470088005A3013B0803195B2AC5
:1004B400A309803084022308003A0319642A24081B
:1004C4008005662A2A0880047121E830F40003308C
:1004D400F500F601F7013B217008BC007108BD006E
:1004E4007208BE007308BF003708F0003808F10036
:1004F4003908F2003A08F300F035F10DF20DF30D6E
:10050400F035F10DF20DF30D0A30F400F501F601AA
:10051400F7013B217008C0007108C1007208C200D5
:100524007308C3007008F4007108F5007208F6003F
:100534007308F7003C08F0003D08F1003E08F200A3
:100544003F08F30078217008C4007108C5007108E1
:10055400F400F501740875040319B32A0230F0009D
:10056400042B4408A6004008F4004108F5004208A2
:10057400F6004308F7003C08F0003D08F1003E088F
:10058400F2003F08F30078217808F0007908F100C0
:100594007A08F2007B08F3007008BC007108BD0003
:1005A4007208BE007308BF004008F5004108F60059
:1005B4004208F7004308F800F837F70CF60CF50C7E
:1005C40080307806F400803073067402031DF42A28
:1005D40072087702031DF42A71087602031DF42AB7
:1005E400700875020318F72AA60A2608F100F136E6
:1005F4007108A500073071020318032B0130F000C5
:06060400042BF0010800C8
:10060A002000B303B3033308003C0318112BB303D0
:10061A00000000000000082B00000000000000009D
:04062A0000000800C4
:10062E00CF2B033020002107F1000030223DF200D5
:10063E007108A1007208A20080307206F0008030AE
:10064E007002031D2C2B7F307102031C322B7F3066
:10065E00A1000030A200112C03302107F100003060
:10066E00223DF2007108A1007208A20080307206CD
:10067E00F00080307002031D462B7F307102031C88
:10068E004C2B7F30A1000030A200112C033021072B
:10069E00F1000030223DF2007108A1007208A200A4
:1006AE0080307206F00080307002031D602B4030E7
:1006BE007102031C662B4030A1000030A200112CE9
:1006CE0003302107F1000030223DF2007108A10035
:1006DE007208A20080307206F00080307002031D96
:1006EE007A2B40307102031C802B4030A100003069
:1006FE00A200112C03302107F1000030223DF20040
:10070E007108A1007208A20080307206F0008030DD
:10071E007002031D942B66307102031C9A2B6630F7
:10072E00A1000030A200112C03302107F10000308F
:10073E00223DF2007108A1007208A20080307206FC
:10074E00F00080307002031DAE2B66307102031C68
:10075E00B42B6630A1000030A200112C112C112CEC
:10076E0003302102F1000030223BF2007108A1009B
:10077E007208A2008030F000803072067002031DF5
:10078E00CA2B7108003C031CCE2BA101A201112C17
:10079E00200000303006031DD62B01302F06031922
:1007AE00182B00303006031DDE2B02302F060319E6
:1007BE00332B00303006031DE62B04302F060319B1
:1007CE004D2B00303006031DEE2B08302F0603197B
:1007DE00672B00303006031DF62B40302F06031911
:1007EE00812B00303006031DFE2B80302F0603199F
:1007FE009B2B00303006031D062C10302F060319DC
:10080E00B52B00303006031D0E2C20302F06031999
:06081E00B62BB72B080009
:1008240020002F0886003008870081010130B200C3
:10083400B1012C1028088400290885002308003AF7
:10084400031D382C27080005F1007108003A03192C
:10085400372C2C1C362C2F08860030088700FF30DC
:1008640081003108F000912C242C4B2C2708000522
:10087400F1007108003A031D4B2C2C1C4A2C2F0844
:10088400860030088700FF3081003108F000912C89
:10089400382C2508B30005232608B30005233208A5
:1008A4000319692C27080005F1007108003A03199F
:1008B4005D2C3208B104B23502302602B3000523A0
:1008C400000000000000000000000000512C23087C
:1008D400003A031D7D2C27080005F1007108003A39
:1008E4000130031D0030F0002F0886003008870017
:1008F400700881008C2C27080005F1007108003A6B
:10090400013003190030F0002F08860030088700FA
:100914007008810023083106F0007008B100080057
:1009240070302100990023008C018D0121008C017D
:100934008D0120008C018D010D30B3000030B40016
:100944000430B5000330B6008030B7002530B8005D
:10095400B901BA01BB012A221A30FC00F830FD00AB
:0C096400FD0BB22CFC0BB22C00000800B4
:1009700012001E00F003031DB82CF103031DB82C58
:0209800008006D
:100982002000A101A201AD01AE01922420002D3070
:10099200AF000030B00012247008AE002D08031D15
:0E09A200C72C2E08AF00B0011723C72CD72C8E
:020000040001F9
:04000E00E23F1316A4
:00000001FF
