:02000000652C6D
:100006007408F8027508031C750FF9027608031CBC
:10001600760FFA027708031C770FFB02F30D073001
:10002600FC00730DF80DF90DFA0DFB0D7408731C29
:100036002A28F8027508031C750FF9027608031CB6
:10004600760FFA027708031C770FFB023728F807AA
:1000560075080318750FF90776080318760FFA075F
:1000660077080318770FFB07F30DFC0B1428720DA6
:10007600F80DF90DFA0DFB0D7408731C5028F802E3
:100086007508031C750FF9027608031C760FFA0231
:100096007708031C770FFB025D28F807750803181D
:1000A600750FF90776080318760FFA07770803180D
:1000B600770FFB07F20D0730FC00720DF80DF90DF6
:1000C600FA0DFB0D7408721C7628F8027508031CDD
:1000D600750FF9027608031C760FFA027708031CDF
:1000E600770FFB028328F80775080318750FF907C1
:1000F60076080318760FFA0777080318770FFB07B9
:10010600F20DFC0B6028710DF80DF90DFA0DFB0DC3
:100116007408721C9C28F8027508031C750FF902F6
:100126007608031C760FFA027708031C770FFB028A
:10013600A928F80775080318750FF9077608031834
:10014600760FFA0777080318770FFB07F10D0730CC
:10015600FC00710DF80DF90DFA0DFB0D7408711CFC
:10016600C228F8027508031C750FF9027608031CED
:10017600760FFA027708031C770FFB02CF28F807E1
:1001860075080318750FF90776080318760FFA072E
:1001960077080318770FFB07F10DFC0BAC28700DE1
:1001A600F80DF90DFA0DFB0D7408711CE828F8021C
:1001B6007508031C750FF9027608031C760FFA0200
:1001C6007708031C770FFB02F528F8077508031854
:1001D600750FF90776080318760FFA0777080318DC
:1001E600770FFB07F00D0730FC00700DF80DF90DC9
:1001F600FA0DFB0D7408701C0E29F8027508031C15
:10020600750FF9027608031C760FFA027708031CAD
:10021600770FFB021B29F80775080318750FF907F6
:1002260076080318760FFA0777080318770FFB0787
:10023600F00DFC0BF82870182E297408F8077508BD
:100246000318750FF90776080318760FFA0777086B
:080256000318770FFB070800F5
:10025E00FB09FA09F909F809F80A0319F90A031949
:08026E00FA0A0319FB0A08005B
:1002760020002230FC00F801F901FA01FB01FC0321
:10028600031970290310FB0CFA0CF90CF80CF30C8B
:10029600F20CF10CF00C031C4229FC030319622931
:1002A6007408F80775080318750FF9077608031818
:1002B600760FFA0777080318770FFB0746297408A5
:1002C600F80775080318750FF90776080318760FEF
:0C02D600FA0777080318770FFB070800F1
:1002E2002000D403D4035408003C03187D29D4030E
:1002F200000000000000742900000000000000005F
:0403020000000800EF
:0E0306004030F0001F30F100F201F30108005A
:100314007408003A031DA3297508003A031DA32994
:100324007608003A031DA3297708003A031DA32980
:10033400FF30F000FF30F100FF30F2007F30F300B7
:100344003B2A2000FC01F71BFC0AFD01FB01FA011A
:10035400F901F80173087204710470040319362A50
:1003640073087706A000A01BFD09F71FC429F40930
:10037400F509F609F709F40A0319F50A0319F60A47
:100384000319F70AF31FD129F009F109F209F30956
:10039400F00A0319F10A0319F20A0319F30A73089C
:1003A4007704A000A01BF2290320FC1B0F2AFD1FC9
:1003B400362AF009F109F209F309F00A0319F10ADE
:1003C4000319F20A0319F30AF809F909FA09FB09EE
:1003D400F80A0319F90A0319FA0A0319FB0A362A57
:1003E400F71F092AF31B032A7308FB007208FA009B
:1003F4007108F9007008F800F301F201F101F0014D
:10040400D929F301F201F101F001F00A0034F309F2
:10041400F209F109F009FC17D629F80A0319F90AB7
:100424000319FA0A0319FB0A74087802031DD9296F
:1004340075087902031DD92976087A02031DD92982
:1004440077087B02031DD929FB01FA01F901F801A0
:10045400F00A0319F10A0319F20A0319F30AF31F44
:10046400D929A0012016FF34A0017C1C3A2A2F218F
:04047400003E08003E
:1004780023009E18412A00003C2A2000540823002B
:040488009A000800CE
:10048C0020004108D4003C2220004308D4003C2228
:10049C0020004508D4003C22200043084107D4002A
:1004AC004508D4077F30D4053C220330FC0097303C
:1004BC00FD00FD0B5F2AFC0B5F2A0000000008000A
:1004CC0001302000C2002308C1062E0884002F082A
:1004DC0085002308003A0319762A32088004782A0A
:1004EC002D0880052208D4007121C1094208031986
:1004FC00952A42084105F000031D872A3208800422
:10050C00892A2D088005C23502302202D4007121BF
:10051C000000000000000000000000007C2A2308FE
:10052C00003A03199C2A2D0880059E2A3208800463
:08053C002208D400712108001F
:1005440020004108AE004208AF004308F00001302B
:10055400F20070080319B12AF235FF3EAC2A720882
:10056400B0007209B1004408F1000130F0007108D4
:100574000319BF2AF035FF3EBA2A7008B200F00909
:100584007008AD008030410784000030423D850092
:100594007208800470088005A30149080319D32A4E
:1005A400A309803084022308003A0319DC2A2D08A9
:1005B4008005DE2A320880048321E830F400033009
:1005C400F500F601F7013B217008CA007108CB0061
:1005D4007208CC007308CD004508F0004608F1000D
:1005E4004708F2004808F300F035F10DF20DF30D61
:1005F400F035F10DF20DF30D0A30F400F501F601BA
:10060400F7013B217008CE007108CF007208D000BA
:100614007308D1007008F4007108F5007208F60040
:100624007308F7004A08F0004B08F1004C08F20088
:100634004D08F3008A217008D2007108D3007108B4
:10064400F400F5017408750403192B2B0230F00033
:100654007C2B5208A2004E08F4004F08F500500805
:10066400F6005108F7004A08F0004B08F1004C0866
:10067400F2004D08F3008A217808F0007908F100AF
:100684007A08F2007B08F3007008CA007108CB00F6
:100694007208CC007308CD004E08F5004F08F60030
:1006A4005008F7005108F800F837F70CF60CF50C71
:1006B40080307806F400803073067402031D6C2BBE
:1006C40072087702031D6C2B71087602031D6C2BD4
:1006D4007008750203186F2BA20A2208F100F13684
:1006E4007108A1000730710203187B2B0130F00060
:0606F4007C2BF001080060
:1006FA003C302000A4000230A5005430A60000308F
:10070A00A700FF30A800FF30A9000030AA0000307F
:10071A00AB00FF30B700FF30B8000030B90000303E
:10072A00BA00FF30B300FF30B4000030B50000302B
:10073A00B60023009E1690309D0021008D140D11E5
:10074A002000911EAC2B23001908F000A52B0800ED
:10075A0012001E00F003031DAD2BF103031DAD2B88
:02076A00080085
:10076C0020003D0886003E08870081010130C00052
:10077C00BF012C102E0884002F0885002308003A96
:10078C00031DDC2B30080005F1007108003A031939
:10079C00DB2B2C1CDA2B3D0886003E088700FF3033
:1007AC0081003F08F000352CC82BEF2B30080005DA
:1007BC00F1007108003A031DEF2B2C1CEE2B3D08A9
:1007CC0086003E088700FF3081003F08F000352C82
:1007DC00DC2B2108D40071212208D400712140089F
:1007EC0003190D2C30080005F1007108003A0319AB
:1007FC00012C4008BF04C03502302202D400712104
:10080C00000000000000000000000000F52B230891
:10081C00003A031D212C30080005F1007108003A44
:10082C000130031D0030F0003D0886003E088700B3
:10083C0070088100302C30080005F1007108003A76
:10084C00013003190030F0003D0886003E08870097
:10085C007008810023083F06F0007008BF000800F4
:10086C0070302100990023008C018D0121008C0136
:10087C008D0120008C018D0123009F15CF309B0032
:10088C009C011E157D230D302000C1000030C200DC
:10089C000430C3000330C4008030C5002530C600CE
:1008AC00C701C801C901A2220C161A30FC00F8308D
:0E08BC00FD00FD0B5F2CFC0B5F2C0000080004
:1008CA002000BB01BC01362420003B30BD000030B3
:1008DA00BE00B6237008BC003B08031D692C3C0807
:0E08EA00BD00BE01883100208031692C7B2CBE
:10100000042D52302000C1008031662288315030DA
:10101000C100803166228831C10180316622883169
:101020004C30C1008031662288315030C10080319F
:1010300066228831C1018031662288318030C1004A
:10104000C2010130C3000030C4007F30C500003051
:10105000C60080314622883180302000C100C201A4
:101060000430C3000030C4007F30C5000030C6002B
:1010700080314622883181302000C100C201C30185
:10108000C4017F30C5000030C6008031462288315F
:1010900081302000C100C2010430C3000030C40010
:1010A000C501C601803146228831862D523020008C
:1010B000C1008031662288315030C1008031662203
:1010C0008831C1018031662288314C30C1008031C5
:1010D000662288315030C100803166228831C101DA
:1010E0008031662288318030C100C201C301C40151
:1010F0007F30C5000030C600803146228831803004
:101100002000C100C2010530C3000030C4007F30A0
:10111000C5000030C6008031462288318130200071
:10112000C100C2010130C3000030C4007F30C500DF
:101130000030C60080314622883181302000C10055
:10114000C2010430C3000030C400C501C6018031B3
:1011500046228831862D52302000C100803166221F
:1011600088315030C1008031662288310130C100A1
:101170008031662288314C30C1008031662288314E
:101180004D30C1008031662288310130C10080318C
:10119000662288318030C100C201C301C4017F30A2
:1011A000C5000030C60080314622883180302000E2
:1011B000C100C2010430C3000030C4007F30C5004C
:1011C0000030C60080314622883181302000C100C5
:1011D000C201C301C4017F30C5000030C6008031A8
:1011E0004622883181302000C100C2010430C30092
:1011F0000030C400C501C601803146228831862DE9
:1012000052302000C1008031662288315030C10048
:101210008031662288310130C100803166228831F8
:101220004C30C1008031662288314D30C1008031A0
:10123000662288310130C1008031662288318030D9
:10124000C100C2010130C3000030C4007F30C500BE
:101250000030C60080314622883180302000C10035
:10126000C2010530C3000030C4007F30C50000302B
:10127000C60080314622883181302000C100C20181
:10128000C301C4017F30C5000030C6008031462252
:10129000883181302000C100C2010430C300003019
:1012A000C400C501C601803146228831862D5230E6
:1012B0002000C1008031662288315030C100803169
:1012C000662288310130C1008031662288314C307D
:1012D000C1008031662288315030C10080316622E1
:1012E00088310130C1008031662288318030C100F0
:1012F000C2010130C3000030C4007F30C50000309F
:10130000C60080314622883180302000C100C201F1
:101310000430C3000030C4007F30C5000030C60078
:1013200080314622883181302000C100C201C301D2
:10133000C4017F30C5000030C600803146228831AC
:1013400081302000C100C2010430C3000030C4005D
:10135000C501C601803146228831862D52302000D9
:10136000C1008031662288314D30C1008031662253
:1013700088310130C1008031662288314C30C10093
:101380008031662288314D30C1008031662288313B
:101390000130C1008031662288318030C100C20135
:1013A0000130C3000030C4007F30C5000030C600EB
:1013B00080314622883180302000C100C2010430D3
:1013C000C3000030C4007F30C5000030C60080314B
:1013D0004622883181302000C100C201C301C4010E
:1013E0007F30C5000030C600803146228831813010
:1013F0002000C100C2010430C3000030C400C50198
:10140000C601803146228831862D52302000C1002D
:101410008031662288315030C100803166228831A7
:10142000C1018031662288314C30C1008031662292
:1014300088315030C100803166228831C10180314D
:10144000662288318030C100C2010130C300003003
:10145000C4002F30C5000030C600803146228831DC
:1014600080302000C100C2010430C3000030C4003D
:101470002F30C5000030C6008031462288318130CF
:101480002000C100C201C301C4017F30C50000308B
:10149000C60080314622883181302000C100C2015F
:1014A0000430C3000030C400C501C60180314622AB
:1014B0008831862D52302000C1008031662288316B
:1014C0005030C100803166228831C10180316622EE
:1014D00088314C30C1008031662288315030C100E3
:1014E000803166228831C1018031662288318030A6
:1014F000C100C201C301C4012F30C5000030C600C5
:1015000080314622883180302000C100C201053080
:10151000C3000030C4002F30C5000030C600803149
:101520004622883181302000C100C2010130C30051
:101530000030C4007F30C5000030C6008031462234
:10154000883181302000C100C2010430C300003066
:10155000C400C501C601803146228831862D523033
:101560002000C1008031662288315030C1008031B6
:10157000662288310130C1008031662288314C30CA
:10158000C1008031662288314D30C1008031662231
:1015900088310130C1008031662288318030C1003D
:1015A000C201C301C4012F30C5000030C600803124
:1015B0004622883180302000C100C2010430C300BF
:1015C0000030C4002F30C5000030C60080314622F4
:1015D000883181302000C100C201C301C4017F30C5
:1015E000C5000030C600803146228831813020009D
:1015F000C100C2010430C3000030C400C501C601EF
:10160000803146228831862D52302000C100803141
:10161000662288315030C100803166228831013025
:10162000C1008031662288314C30C1008031662291
:1016300088314D30C1008031662288310130C100CF
:101640008031662288318030C100C2010130C30080
:101650000030C4002F30C5000030C6008031462263
:10166000883180302000C100C2010530C300003045
:10167000C4002F30C5000030C600803146228831BA
:1016800081302000C100C201C301C4017F30C50008
:101690000030C60080314622883181302000C100F0
:1016A000C2010430C3000030C400C501C60180314E
:1016B00046228831862D52302000C10080316622BA
:1016C00088315030C1008031662288310130C1003C
:1016D0008031662288314C30C100803166228831E9
:1016E0005030C1008031662288310130C100803124
:1016F000662288318030C100C2010130C300003051
:10170000C4002F30C5000030C60080314622883129
:1017100080302000C100C2010430C3000030C4008A
:101720002F30C5000030C60080314622883181301C
:101730002000C100C201C301C4017F30C5000030D8
:10174000C60080314622883181302000C100C201AC
:101750000430C3000030C400C501C60180314622F8
:101760008831862D52302000C100803166228831B8
:101770004D30C1008031662288310130C100803196
:10178000662288314C30C1008031662288314D306C
:10179000C1008031662288310130C100803166226B
:1017A00088318030C100C2010130C3000030C40064
:1017B0002F30C5000030C60080314622883180308D
:1017C0002000C100C2010430C3000030C4002F302B
:1017D000C5000030C60080314622883181302000AB
:1017E000C100C201C301C4017F30C5000030C60082
:1017F00080314622883181302000C100C20104308E
:10180000C3000030C400C501C601803146228831C2
:10181000862D80302000C100C201C301C401C50172
:10182000C60180314622883180302000C100C201CB
:101830000430C3000030C400C501C6018031462217
:10184000883181302000C100C201C301C401C5013B
:10185000C60180314622883181302000C100C2019A
:101860000430C3000030C4007F30C5000030C60023
:10187000803146228831862D80302000C100C2018F
:10188000C301C401C501C6018031462288318030C0
:101890002000C100C2010430C3000030C400C501F3
:1018A000C60180314622883181302000C100C2014A
:1018B000C301C401C501C60180314622883181308F
:1018C0002000C100C2010530C3000030C4007F30D9
:1018D000C5000030C600803146228831862D803018
:1018E0002000C100C201C301C401C501C60180318D
:1018F0004622883180302000C100C2010430C3007C
:101900000030C400C501C6018031462288318130D3
:101910002000C100C201C301C401C501C60180315C
:101920004622883181302000C100C2010430C3004A
:101930000030C400C501C601803146228831200034
:101940000C16862D8030C100C201C301C401C5013F
:10195000C60180314622883180302000C100C2019A
:101960000430C3000030C400C501C60180314622E6
:10197000883181302000C100C201C301C401C5010A
:10198000C60180314622883181302000C100C20169
:101990000430C3000030C400C501C60180314622B6
:1019A000883120000C12862D8030C100C201C30195
:1019B000C401C501C6018031462288318030200033
:1019C000C100C2010430C3000030C400C501C6011B
:1019D00080314622883181302000C100C201C3011C
:1019E000C401C501C6018031462288318130200002
:1019F000C100C2010430C3000030C400C501C601EB
:101A0000803146228831862D003020003E06031D9D
:101A10000B2D01303D060319012800303E06031D41
:101A2000132D02303D060319562800303E06031DD3
:101A30001B2D04303D060319AB2800303E06031D64
:101A4000232D08303D060319002900303E06031DF2
:101A50002B2D80303D060319572900303E06031D0B
:101A6000332D40303D060319AE2900303E06031DDC
:101A70003B2D21303D060319052A00303E06031D8B
:101A8000432D22303D0603195A2A00303E06031D1D
:101A90004B2D24303D060319AF2A00303E06031DAE
:101AA000532D28303D060319042B00303E06031D3C
:101AB0005B2DA0303D0603195B2B00303E06031D55
:101AC000632D60303D060319B22B00303E06031D26
:101AD0006B2D10303D060319092C00303E06031D06
:101AE000732D30303D0603193C2C00303E06031D9B
:101AF0007B2D50303D0603196F2C00303E06031D30
:0E1B0000832D90303D060319A22CD42C080032
:020000040001F9
:04000E00A43F1316E2
:00000001FF
