:020000001B28BB
:1000060070302100990023008C0121008C01200012
:040016008C01080051
:10001A0012001E00F003031D0D28F103031D0D2815
:02002A000800CC
:0A002C00E03022009800990108005E
:10003600032016202000A201A3011A30A0000030E0
:10004600A10080302106F00080307002031D2D28AB
:100056001F30200203184828200822009900063085
:10006600FB001330FC00AD30FD00FD0B3828FC0B07
:100076003828FB0B3828000000002000A20A0319CC
:10008600A30AA00A0319A10A24281F30A0000030E1
:10009600A1008030F000803021067002031D552833
:1000A60020081A3C031871282008220099000630FF
:1000B600FB001330FC00AD30FD00FD0B6028FC0B8F
:1000C6006028FB0B6028000000002000A20A03192C
:1000D600A30A0130A0020030A13B4C288030230641
:1000E600F00080307002031D7A28B4302202031C0F
:1000F600D82822009901CB30FB00EC30FC0084307C
:10010600FD00FD0B8428FC0B8428FB0B84280000D3
:100116001A302000A0000030A10080302106F00037
:1001260080307002031D99281F3020020318B12861
:100136002008220099000630FB001330FC00AD3089
:10014600FD00FD0BA428FC0BA428FB0BA428000033
:1001560000002000A00A0319A10A90281F30A00061
:100166000030A1008030F000803021067002031DAF
:10017600BE2820081A3C0318D72820082200990018
:100186000630FB001330FC00AD30FD00FD0BC92826
:10019600FC0BC928FB0BC928000000000130200019
:0E01A600A0020030A13BB5288B282028D928C4
:020000040001F9
:04000E00A43F1316E2
:00000001FF
