:020000001F2CB3
:100006002000CA03CA034A08003C03180F28CA0383
:1000160000000000000006280000000000000000AC
:0400260000000800CE
:10002A00FB09FA09F909F809F80A0319F90A03197F
:08003A00FA0A0319FB0A080091
:100042007408F8027508031C750FF9027608031C80
:10005200760FFA027708031C770FFB02F30D0730C5
:10006200FC00730DF80DF90DFA0DFB0D7408731CED
:100072004828F8027508031C750FF9027608031C5C
:10008200760FFA027708031C770FFB025528F80750
:1000920075080318750FF90776080318760FFA0723
:1000A20077080318770FFB07F30DFC0B3228720D4C
:1000B200F80DF90DFA0DFB0D7408731C6E28F80289
:1000C2007508031C750FF9027608031C760FFA02F5
:1000D2007708031C770FFB027B28F80775080318C3
:1000E200750FF90776080318760FFA0777080318D1
:1000F200770FFB07F20D0730FC00720DF80DF90DBA
:10010200FA0DFB0D7408721C9428F8027508031C82
:10011200750FF9027608031C760FFA027708031CA2
:10012200770FFB02A128F80775080318750FF90766
:1001320076080318760FFA0777080318770FFB077C
:10014200F20DFC0B7E28710DF80DF90DFA0DFB0D69
:100152007408721CBA28F8027508031C750FF9029C
:100162007608031C760FFA027708031C770FFB024E
:10017200C728F80775080318750FF90776080318DA
:10018200760FFA0777080318770FFB07F10D073090
:10019200FC00710DF80DF90DFA0DFB0D7408711CC0
:1001A200E028F8027508031C750FF9027608031C93
:1001B200760FFA027708031C770FFB02ED28F80787
:1001C20075080318750FF90776080318760FFA07F2
:1001D20077080318770FFB07F10DFC0BCA28700D87
:1001E200F80DF90DFA0DFB0D7408711C0629F802C1
:1001F2007508031C750FF9027608031C760FFA02C4
:100202007708031C770FFB021329F80775080318F8
:10021200750FF90776080318760FFA07770803189F
:10022200770FFB07F00D0730FC00700DF80DF90D8C
:10023200FA0DFB0D7408701C2C29F8027508031CBA
:10024200750FF9027608031C760FFA027708031C71
:10025200770FFB023929F80775080318750FF9079C
:1002620076080318760FFA0777080318770FFB074B
:10027200F00DFC0B162970184C297408F807750844
:100282000318750FF90776080318760FFA0777082F
:080292000318770FFB070800B9
:10029A0020002230FC00F801F901FA01FB01FC03FD
:1002AA00031982290310FB0CFA0CF90CF80CF30C55
:1002BA00F20CF10CF00C031C5429FC0303197429E9
:1002CA007408F80775080318750FF90776080318F4
:1002DA00760FFA0777080318770FFB07582974086F
:1002EA00F80775080318750FF90776080318760FCB
:0C02FA00FA0777080318770FFB070800CD
:1003060001302000C9002C08C8062A0884002B08E2
:1003160085002C08003A031993292E088004952994
:100326002D0880052908CA000320C80949080319B1
:10033600B22949084805F000031DA4292E088004A7
:10034600A6292D088005C93502302902CA000320D6
:1003560000000000000000000000000099292C08A1
:10036600003A0319B9292D088005BB292E088004F7
:080376002908CA000320080059
:10037E007408003A031DD8297508003A031DD829C0
:10038E007608003A031DD8297708003A031DD829AC
:10039E00FF30F000FF30F100FF30F2007F30F3004D
:1003AE00702A2000FC01F71BFC0AFD01FB01FA017B
:1003BE00F901F801730872047104700403196B2AB1
:1003CE0073087706A000A01BFD09F71FF929F40991
:1003DE00F509F609F709F40A0319F50A0319F60ADD
:1003EE000319F70AF31F062AF009F109F209F309B6
:1003FE00F00A0319F10A0319F20A0319F30A730832
:10040E007704A000A01B272A2120FC1B442AFD1FD5
:10041E006B2AF009F109F209F309F00A0319F10A3E
:10042E000319F20A0319F30AF809F909FA09FB0983
:10043E00F80A0319F90A0319FA0A0319FB0A6B2AB7
:10044E00F71F3E2AF31B382A7308FB007208FA00C6
:10045E007108F9007008F800F301F201F101F001E2
:10046E000E2AF301F201F101F001F00A0034F30952
:10047E00F209F109F009FC170B2AF80A0319F90A17
:10048E000319FA0A0319FB0A74087802031D0E2ACF
:10049E0075087902031D0E2A76087A02031D0E2AAC
:1004AE0077087B02031D0E2AFB01FA01F901F80100
:1004BE00F00A0319F10A0319F20A0319F30AF31FDA
:1004CE000E2AA0012016FF34A0017C1C6F2A1520D5
:0404DE00003E0800D4
:0E04E2004030F0001F30F100F201F30108007D
:1004F00020003508C80083213708C8008321390847
:10050000C800832137083507C8003908C8077F307D
:10051000C80583210330FC009730FD00FD0B8E2AB7
:0A052000FC0B8E2A0000000008000A
:10052A0020003508AA003608AB003708F000013071
:10053A00F20070080319A42AF235FF3E9F2A7208B6
:10054A00A6007209A5003808F1000130F000710810
:10055A000319B22AF035FF3EAD2A7008AE00F00941
:10056A007008AD008030350784000030363D8500C4
:10057A007208800470088005AC013D080319C62A78
:10058A00AC09803084022C08003A0319CF2A2D08BE
:10059A008005D12A2E0880047122E830F400033045
:1005AA00F500F601F7014D217008BE007108BF0081
:1005BA007208C0007308C1003908F0003A08F10057
:1005CA003B08F2003C08F300F035F10DF20DF30D93
:1005DA00F035F10DF20DF30D0A30F400F501F601D4
:1005EA00F7014D217008C2007108C3007208C400E7
:1005FA007308C5007008F4007108F5007208F60067
:10060A007308F7003E08F0003F08F1004008F200C6
:10061A004108F300BF217008C6007108C7007108BD
:10062A00F400F5017408750403191E2B0230F0005A
:10063A006F2B4608A9004208F4004308F500440855
:10064A00F6004508F7003E08F0003F08F1004008B0
:10065A00F2004108F300BF217808F0007908F100A0
:10066A007A08F2007B08F3007008BE007108BF0028
:10067A007208C0007308C1004208F5004308F6007A
:10068A004408F7004508F800F837F70CF60CF50CA3
:10069A0080307806F400803073067402031D5F2BE5
:1006AA0072087702031D5F2B71087602031D5F2B08
:1006BA00700875020318622BA90A2908F100F1369D
:1006CA007108A8000730710203186E2B0130F00080
:0606DA006F2BF001080087
:1006E0002000310886003208870081010130B40003
:1006F000B30127102A0884002B0885002C08003A33
:10070000031D962B26080005F1007108003A031915
:10071000952B271C942B3108860032088700FF3068
:1007200081003308F000EF2B822BA92B260800054F
:10073000F1007108003A031DA92B271CA82B3108D2
:10074000860032088700FF3081003308F000EF2B6D
:10075000962B2808CA0003202908CA000320340861
:100760000319C72B26080005F1007108003A031988
:10077000BB2B3408B304B43502302902CA0003206D
:10078000000000000000000000000000AF2B2C085B
:10079000003A031DDB2B26080005F1007108003A22
:1007A0000130031D0030F000310886003208870058
:1007B00070088100EA2B26080005F1007108003A54
:1007C000013003190030F00031088600320887003C
:1007D000700881002C083306F0007008B300080090
:1007E00070302100990023008C018D0121008C01C3
:1007F0008D0120008C018D010D30B5000030B60058
:100800000430B7000230B8008030B9002530BA009B
:10081000BB01BC01BD0195221A30FC00F830FD007F
:0C082000FD0B102CFC0B102C000008003D
:10082C0012001E00F003031D162CF103031D162CE1
:02083C000800B2
:10083E002000A101A201A301A401AF01B001F02388
:10084E002F30B1000030B20070237008B0002F08B6
:10085E00031D272C3008B100B201883100208031F1
:04086E00272C382CCF
:101000007A2E033020002307F1000030243DF20047
:101010007108A3007208A40080307206F0008030CE
:101020007002031D15287F307102031C1B287F30BE
:10103000A3000030A4008430B500B601B701B801A8
:101040002308B9002408BA0080317822883184301E
:10105000B500B6010530B7000030B8002308B9006C
:101060002408BA008031782288318530B500B60175
:101070000130B7000030B8002308B9002408BA00D6
:101080008031782288318530B500B6010430B70050
:101090000030B8002308B9002408BA008031782253
:1010A00088318630B500B601B701B801B901BA017F
:1010B0008031782288313108A1003208A200DC2E6C
:1010C00003302307F1000030243DF2007108A30033
:1010D0007208A40080307206F00080307002031D98
:1010E00073287F307102031C79287F30A300003001
:1010F000A4008430B500B601B701B801193023024D
:10110000B9000030243BBA00803178228831843025
:10111000B500B6010530B7000030B8001930230221
:10112000B9000030243BBA00803178228831853004
:10113000B500B6010130B7000030B8002308B9008F
:101140002408BA008031782288318530B500B60194
:101150000430B7000030B8002308B9002408BA00F2
:101160008031782288318630B500B601B701B801E8
:10117000B901BA018031782288313108A1003208E2
:10118000A200DC2E03302307F1000030243DF200E2
:101190007108A3007208A40080307206F00080304D
:1011A0007002031DD5287F307102031CDB287F30BD
:1011B000A3000030A4008430B500B601B701B80127
:1011C0002308B9002408BA0080317822883184309D
:1011D000B500B6010530B7000030B8002308B900EB
:1011E0002408BA008031782288318530B500B601F4
:1011F0000130B7000030B80019302302B9000030C8
:10120000243BBA008031782288318530B500B601A0
:101210000430B7000030B80019302302B9000030A4
:10122000243BBA008031782288318630B500B6017F
:10123000B701B801B901BA0180317822883131088B
:10124000A1003208A200DC2E03302307F100003099
:10125000243DF2007108A3007208A40080307206D9
:10126000F00080307002031D37297F307102031CAB
:101270003D297F30A3000030A4008430B500B601C2
:101280000130B7000030B8002308B9002408BA00C4
:101290008031782288318430B500B6010430B7003F
:1012A0000030B8002308B9002408BA008031782241
:1012B00088318530B500B601B701B8012308B900FF
:1012C0002408BA008031782288318530B500B60113
:1012D0000530B7000030B8002308B9002408BA0070
:1012E0008031782288318630B500B601B701B80167
:1012F000B901BA018031782288313108A100320861
:10130000A200DC2E03302307F1000030243DF20060
:101310007108A3007208A40080307206F0008030CB
:101320007002031D952923307102031C9B29233071
:10133000A3000030A4008430B500B6010130B7002E
:101340000030B8002308B9002408BA0080317822A0
:1013500088318430B500B6010430B7000030B800E1
:101360002308B9002408BA008031782288318530FA
:10137000B500B6010130B7000030B8002308B9004D
:101380002408BA008031782288318530B500B60152
:101390000430B7000030B8002308B9002408BA00B0
:1013A0008031782288318630B500B601B701B801A6
:1013B000B901BA018031782288313108A1003208A0
:1013C000A200DC2E03302307F1000030243DF200A0
:1013D0007108A3007208A40080307206F00080300B
:1013E0007002031DF52923307102031CFB292330F1
:1013F000A3000030A4008430B500B601B701B801E5
:101400002308B9002408BA0080317822883184305A
:10141000B500B6010530B7000030B8002308B900A8
:101420002408BA008031782288318530B500B601B1
:10143000B701B8012308B9002408BA008031782226
:1014400088318530B500B6010530B7000030B800EE
:101450002308B9002408BA00803178228831863008
:10146000B500B601B701B801B901BA0180317822DF
:1014700088313108A1003208A200DC2E0330230796
:10148000F1000030243DF2007108A3007208A400AE
:1014900080307206F00080307002031D512A6630E1
:1014A0007102031C572A6630A3000030A400843068
:1014B000B500B601B701B801B901BA01803178228F
:1014C00088318430B500B6010430B7000030B80070
:1014D000B901BA018031782288318530B500B60172
:1014E0000130B7000030B8002308B9002408BA0062
:1014F0008031782288318530B500B6010430B700DC
:101500000030B8002308B9002408BA0080317822DE
:1015100088318630B500B601B701B801B901BA010A
:101520008031782288313108A1003208A200DC2EF7
:1015300003302307F1000030243DF2007108A300BE
:101540007208A40080307206F00080307002031D23
:10155000AB2A66307102031CB12A6630A30000304A
:10156000A4008430B500B601B701B8012308B90062
:101570002408BA008031782288318430B500B60161
:101580000530B7000030B8002308B9002408BA00BD
:101590008031782288318530B500B601B701B801B5
:1015A000B901BA018031782288318530B500B601A1
:1015B0000430B7000030B800B901BA018031782298
:1015C00088318630B500B601B701B801B901BA015A
:1015D0008031782288313108A1003208A200DC2E47
:1015E0008430B500B601B701B801B901BA01803144
:1015F000782288318430B500B6010430B70000305D
:10160000B800B901BA018031782288318530B5003F
:10161000B601B701B801B901BA0180317822883129
:101620008530B500B6010430B7000030B800B9010C
:10163000BA018031782288318630B500B601013098
:10164000B7000030B8007F30B9000030BA008031F8
:10165000782288313108A1003208A200DC2E8430C3
:10166000B500B601B701B801B901BA0180317822DD
:1016700088318430B500B6010430B7000030B800BE
:10168000B901BA018031782288318530B500B601C0
:10169000B701B801B901BA018031782288318530AB
:1016A000B500B6010430B7000030B800B901BA0186
:1016B0008031782288318630B500B601B701B80193
:1016C0007F30B9000030BA0080317822883131088B
:1016D000A1003208A200DC2E8430B500B601B701AB
:1016E000B801B901BA018031782288318430B5005F
:1016F000B6010430B7000030B800B901BA0180313A
:10170000782288318530B500B601B701B801B9013A
:10171000BA018031782288318530B500B6010430B5
:10172000B7000030B800B901BA01803178228831A1
:101730008630B500B6010130B7000030B800B901FD
:10174000BA018031782288313108A1003208A20024
:101750008D14DC2E8430B500B601B701B801B90193
:10176000BA018031782288318430B500B601043066
:10177000B7000030B800B901BA0180317822883151
:101780008530B500B601B701B801B901BA018031A1
:10179000782288318530B500B6010430B7000030BA
:1017A000B800B901BA018031782288318630B5009D
:1017B000B601B701B801B901BA0180317822883188
:1017C0003108A1003208A2008D10DC2E0330230264
:1017D000F1000030243BF2007108A3007208A4005D
:1017E0008030F000803072067002031DF92B710802
:1017F000003C031CFD2BA301A40100302206031DA5
:10180000032C01302106031D462C8430B500B6019F
:10181000B701B8012308B9002408BA008031782242
:1018200088318430B500B6010530B7000030B8000B
:101830002308B9002408BA00803178228831853025
:10184000B500B6010130B7000030B8002308B90078
:101850002408BA008031782288318530B500B6017D
:101860000430B7000030B8002308B9002408BA00DB
:101870008031782288318630B500B601B701B801D1
:10188000B901BA01803178228831792E00302206E0
:10189000031D4C2C05302106031D932C8430B5000C
:1018A000B601B701B80114302302B9000030243B5F
:1018B000BA008031782288318430B500B601053015
:1018C000B7000030B80014302302B9000030243BC8
:1018D000BA008031782288318530B500B6010130F8
:1018E000B7000030B8002308B9002408BA008031DE
:1018F000782288318530B500B6010430B700003059
:10190000B8002308B9002408BA0080317822883151
:101910008630B500B601B701B801B901BA0180310E
:1019200078228831792E00302206031D992C093047
:101930002106031DE02C8430B500B601B701B801C3
:101940002308B9002408BA00803178228831843015
:10195000B500B6010530B7000030B8002308B90063
:101960002408BA008031782288318530B500B6016C
:101970000130B7000030B80014302302B900003045
:10198000243BBA008031782288318530B500B60119
:101990000430B7000030B80014302302B900003022
:1019A000243BBA008031782288318630B500B601F8
:1019B000B701B801B901BA01803178228831792E96
:1019C00000302206031DE62C02302106031D292DBE
:1019D0008430B500B6010130B7000030B8002308EC
:1019E000B9002408BA008031782288318430B500EB
:1019F000B6010430B7000030B8002308B90024084D
:101A0000BA008031782288318530B500B601B7013F
:101A1000B8012308B9002408BA008031782288313F
:101A20008530B500B6010530B7000030B800230896
:101A3000B9002408BA008031782288318630B50098
:101A4000B601B701B801B901BA01803178228831F5
:101A5000792E00302206031D2F2D04302106031D90
:101A6000742D8430B500B6010130B7000030B800E5
:101A70002308B9002408BA008031782288318430E4
:101A8000B500B6010430B7000030B8002308B90033
:101A90002408BA008031782288318530B500B6013B
:101AA0000130B7000030B8002308B9002408BA009C
:101AB0008031782288318530B500B6010430B70016
:101AC0000030B8002308B9002408BA008031782219
:101AD00088318630B500B601B701B801B901BA0145
:101AE000803178228831792E00302206031D7A2D2C
:101AF00008302106031DBB2D8430B500B601B701A7
:101B0000B8012308B9002408BA008031782288314E
:101B10008430B500B6010530B7000030B8002308A6
:101B2000B9002408BA008031782288318530B500A8
:101B3000B601B701B8012308B9002408BA00803102
:101B4000782288318530B500B6010530B700003005
:101B5000B8002308B9002408BA00803178228831FF
:101B60008630B500B601B701B801B901BA018031BC
:101B700078228831792E00302206031DC12D403095
:101B80002106031D002E8430B500B601B701B8014F
:101B9000B901BA018031782288318430B500B601AC
:101BA0000430B7000030B800B901BA0180317822A2
:101BB00088318530B500B6010130B7000030B8007B
:101BC0002308B9002408BA00803178228831853092
:101BD000B500B6010430B7000030B8002308B900E2
:101BE0002408BA008031782288318630B500B601E9
:101BF000B701B801B901BA01803178228831792E54
:101C000000302206031D062E80302106031D432EC0
:101C10008430B500B601B701B8012308B900240823
:101C2000BA008031782288318430B500B6010530A1
:101C3000B7000030B8002308B9002408BA0080318A
:101C4000782288318530B500B601B701B801B901F5
:101C5000BA018031782288318530B500B601043070
:101C6000B7000030B800B901BA018031782288315C
:101C70008630B500B601B701B801B901BA018031AB
:101C800078228831792E8430B500B601B701B801C9
:101C9000B901BA018031782288318430B500B601AB
:101CA0000430B7000030B800B901BA0180317822A1
:101CB00088318530B500B601B701B801B901BA0164
:101CC0008031782288318530B500B6010430B70004
:101CD0000030B800B901BA018031782288318630ED
:101CE000B500B601B701B801B901BA018031782257
:101CF0008831DC2E200000303206031D812E013099
:101D000031060319012800303206031D892E0530E3
:101D100031060319602800303206031D912E093068
:101D200031060319C22800303206031D992E0230F5
:101D300031060319242900303206031DA12E043078
:101D400031060319822900303206031DA92E0830FE
:101D500031060319E22900303206031DB12E40304E
:101D6000310603193E2A00303206031DB92E803099
:101D700031060319982A00303206031DC12E103097
:101D800031060319F02A00303206031DC92E203017
:101D9000310603192F2B00303206031DD12E1130CE
:101DA000310603196C2B00303206031DD92E223068
:0A1DB00031060319AA2BE62B0800E8
:020000040001F9
:04000E00A43F1316E2
:00000001FF
