:04000000983100280B
:0E000600F201F101F001F801F30100300800F1
:100014007B15FB1F14280130F300F201F101F001FC
:08002400FA0DF20CFF30080098
:08002C00FA1FF2130030080076
:10003400FB14FB1F2428FF30F300F200F100F00052
:08004400FA0DF20CFF30080078
:10004C007C185C28FC182D287C197B282628A101FB
:10005C007208031D4D287108F2007008F100780831
:10006C00F000F801A1157208031D4D287108F2006B
:10007C007008F100F001A11121167208031D4D2822
:10008C007108F200F101A115720803196F282108FB
:10009C00F302031D031C73280310F21B5C28F80DDC
:1000AC00F00DF10DF20DF30B532873287B1B701C14
:1000BC007728F81F7728F00A0319F10A0319F20AB6
:1000CC00031D7728F20CF10CF00CF30A03197B28B2
:1000DC0077280130FC0003207E280230FC000A2027
:1000EC007E280430FC0016207E280830FC001A20E4
:0400FC0000000800F8
:10010000A1017208031D95287108F2007008F10022
:10011000F001A1157208031D95287108F200F10184
:10012000A111211672080319A3282108F302031D47
:10013000031CA7280310F21BAB28F00DF10DF20DE4
:10014000F30B9B28A7280130FC000320AE280230C7
:0E015000FC000A20AE280430FC001620080037
:10015E00200072087606A100F801F90173087702F3
:10016E00031CD1287708FD007308F7007D08F30003
:10017E007608FD007208F6007D08F2007508FD0095
:10018E007108F5007D08F1007408FD007008F40098
:10019E007D08F000770803194A297208FA00F21751
:1001AE00F61777087302F70003190429083077024F
:1001BE00031CFA28F7007408F9007508F400760895
:1001CE00F500F60108307702031CFA28F7007408D0
:1001DE00F9007508F400F50108307702031CFA28BF
:1001EE007A08F2004A297708031904290310F60C3D
:1001FE00F50CF40CF90CF70BFD28A11F1129F909C8
:10020E00F409F509F609F90A0319F40A0319F50AAE
:10021E000319F60A7908F80774080318740FF00723
:10022E0075080318750FF10776080318760FF20795
:10023E00A11B2A29031C3A29F20CF10CF00CF80C24
:10024E00F30F3A29462903183E29F809F009F10956
:10025E00F209F80A0319F00A0319F10A0319F20A4E
:10026E008030FA0642290130FC0026204C2902304B
:10027E00FC0026204C290430FC0080204C2908303C
:0E028E00FC001A204C290030FC000000080083
:10029C007B14FB1F5929F201FA1FFF30F200F10009
:0A02AC00F000FA0DF20CFF3008001C
:1002B6002000FB01FC01F80173080319D22972081A
:1002C600FA00F2179E30F302F31FC229F309F30A6C
:1002D60008307302031C9729F300F80D7008F80024
:1002E6007108F0007208F100F20108307302031C75
:1002F6009729F300F80D7008F8007108F000F10175
:1003060008307302031C9729F300F80D7008F800F3
:10031600F00108307302031C9729F300F80DF80169
:100326007308031D0310A12973080319A1290310DB
:10033600F20CF10CF00CF80CF30B9A297B1B781CD1
:10034600AF29031CAF29F80A0319F00A0319F10AA9
:100356000319F20AF21BCF29FA1FD229F209F10971
:10036600F009F809F80A0319F00A0319F10A031942
:10037600F20AD229F201F101F001F801D2297B1427
:10038600FB1FD529F201FA1FD529F200F100F00072
:10039600F800FA0DF20CD5290130FC00D7290030FF
:1003A600FC00D729FF30FC00FC080319DB294E218D
:1003B6007208F3007108F2007008F1007808F00086
:0203C60008002D
:1003C8002000FB017308031D770803193A2A7208F5
:1003D8007606FA007708F3077E30031CF729F30244
:1003E80003183D2AFA29F302031C402A7208F80070
:1003F8007108FC007008FD00F817F6170310F201E9
:10040800F101F0011830A1007D1C142A7408F007CE
:1004180075080318750FF10776080318760FF207A9
:10042800F20CF10CF00CF80CFC0CFD0C0310A10BF9
:10043800082AF21B242AF80DF00DF10DF20DF30332
:100448007B1B701C362AF81F362AF00A0319F10A9A
:100458000319F20A031D362AF20CF10CF00CF30A08
:1004680003193D2AFA1FF2130030422A01300320F3
:10047800422A02301A20422A04300A2000000800CA
:06048800FB15FF30080027
:10048E002000FA017308031D7A147708031DFA146D
:10049E007A080319922A033A03195D2A7A185A2AFE
:1004AE00F61F902A8E2AF21F8E2A902A7208803901
:1004BE00FA00F21376088039F6137A0603196B2ABE
:1004CE007A0803198E2A902A770873020319722A62
:1004DE00031C862A8A2A760872020319792A031CBB
:1004EE00862A8A2A750871020319802A031C862A15
:1004FE008A2A740870020319922A03188A2AFA08A3
:10050E000319902A8E2AFA0803198E2A902A0314A8
:0E051E0008000310080003140315080008006D
:10052C007408F8027508031C750FF9027608031C91
:10053C00760FFA027708031C770FFB02F30D0730D6
:10054C00FC00730DF80DF90DFA0DFB0D7408731CFE
:10055C00BD2AF8027508031C750FF9027608031CF6
:10056C00760FFA027708031C770FFB02CA2AF807EA
:10057C0075080318750FF90776080318760FFA0734
:10058C0077080318770FFB07F30DFC0BA72A720DE6
:10059C00F80DF90DFA0DFB0D7408731CE32AF80223
:1005AC007508031C750FF9027608031C760FFA0206
:1005BC007708031C770FFB02F02AF807750803185D
:1005CC00750FF90776080318760FFA0777080318E2
:1005DC00770FFB07F20D0730FC00720DF80DF90DCB
:1005EC00FA0DFB0D7408721C092BF8027508031C1C
:1005FC00750FF9027608031C760FFA027708031CB4
:10060C00770FFB02162BF80775080318750FF907FF
:10061C0076080318760FFA0777080318770FFB078D
:10062C00F20DFC0BF32A710DF80DF90DFA0DFB0D03
:10063C007408721C2F2BF8027508031C750FF90235
:10064C007608031C760FFA027708031C770FFB025F
:10065C003C2BF80775080318750FF9077608031873
:10066C00760FFA0777080318770FFB07F10D0730A1
:10067C00FC00710DF80DF90DFA0DFB0D7408711CD1
:10068C00552BF8027508031C750FF9027608031C2C
:10069C00760FFA027708031C770FFB02622BF80720
:1006AC0075080318750FF90776080318760FFA0703
:1006BC0077080318770FFB07F10DFC0B3F2B700D20
:1006CC00F80DF90DFA0DFB0D7408711C7B2BF8025B
:1006DC007508031C750FF9027608031C760FFA02D5
:1006EC007708031C770FFB02882BF8077508031893
:1006FC00750FF90776080318760FFA0777080318B1
:10070C00770FFB07F00D0730FC00700DF80DF90D9D
:10071C00FA0DFB0D7408701CA12BF8027508031C54
:10072C00750FF9027608031C760FFA027708031C82
:10073C00770FFB02AE2BF80775080318750FF90736
:10074C0076080318760FFA0777080318770FFB075C
:10075C00F00DFC0B8B2B7018C12B7408F807750867
:10076C000318750FF90776080318760FFA07770840
:08077C000318770FFB070800CA
:1007840020007008F8007108F0007208F100730886
:10079400F200F301FB01FC019E30F300FA01F21FA9
:1007A400DF2BF809F009F109F209F80A0319F00A34
:1007B4000319F10A0319F20AFA170230FC00262081
:0207C40008002B
:0A07C60020008030F606AF20080086
:1007D000FB09FA09F909F809F80A0319F90A0319D2
:0807E000FA0A0319FB0A0800E4
:1007E800710DF80DF90D7408F8027508031C750FE2
:1007F800F902F00DF10D0F30FC00710DF80DF90D37
:100808007408701C0D2CF8027508031C750FF9028A
:10081800122CF80775080318750FF907F00DF10D7C
:10082800FC0B012C70181E2C7408F80775080318A7
:08083800750FF907000008002C
:100840002000FB01730803195C2C7208FA00F217F0
:100850008E30F302F31F5F2CF309F30A08307302A2
:10086000031C422CF300F10D7208F100F201083074
:100870007302031C422CF300F10DF1017308031DF8
:1008800003104A2C730803194A2C0310F20CF10CC4
:10089000F30B452C7B1B711C542C031C542CF10AAC
:1008A0000319F20AF21B6B2CFA1F6E2CF209F109E4
:1008B000F10A0319F20A6E2CF201F1016E2C7B147D
:1008C000FB1F712CF201FA1F712CFF30F200F100B6
:1008D000FA0DF20C712C0130FC00732C0030FC007E
:1008E000732CFF30FC00FC080319772C4E21710893
:0808F000F0007208F10008009D
:1008F8007408003A031D952C7508003A031D952CC1
:100908007608003A031D952C7708003A031D952CAC
:10091800FF30F000FF30F100FF30F2007F30F300CD
:100928002D2D2000FC01F71BFC0AFD01FB01FA013B
:10093800F901F80173087204710470040319282D71
:1009480073087706A000A01BFD09F71FB62CF40951
:10095800F509F609F709F40A0319F50A0319F60A5D
:100968000319F70AF31FC32CF009F109F209F30977
:10097800F00A0319F10A0319F20A0319F30A7308B2
:100988007704A000A01BE42C9622FC1B012DFD1F60
:10099800282DF009F109F209F309F00A0319F10AFF
:1009A8000319F20A0319F30AF809F909FA09FB0904
:1009B800F80A0319F90A0319FA0A0319FB0A282D78
:1009C800F71FFB2CF31BF52C7308FB007208FA00C9
:1009D8007108F9007008F800F301F201F101F00163
:1009E800CB2CF301F201F101F001F00A0034F30914
:1009F800F209F109F009FC17C82CF80A0319F90AD9
:100A08000319FA0A0319FB0A74087802031DCB2C90
:100A180075087902031DCB2C76087A02031DCB2CAE
:100A280077087B02031DCB2CFB01FA01F901F801C1
:100A3800F00A0319F10A0319F20A0319F30AF31F5A
:100A4800CB2CA0012016FF34A0017C1C2C2DE82300
:040A5800003E080054
:0E0A5C004030F0001F30F100F201F3010800FD
:100A6A0020002230FC00F801F901FA01FB01FC0325
:100A7A0003196A2D0310FB0CFA0CF90CF80CF30C91
:100A8A00F20CF10CF00C031C3C2DFC0303195C2D39
:100A9A007408F80775080318750FF907760803181C
:100AAA00760FFA0777080318770FFB07402D7408AB
:100ABA00F80775080318750FF90776080318760FF3
:0C0ACA00FA0777080318770FFB070800F5
:0C0AD6000E30FD00FD0B6D2D000008002F
:100AE20020007008F8007108F000F101F201F30132
:100AF200FB01FC019630F300FA01F01F862DF80984
:100B0200F009F80A0319F00AFA177008F1007808D8
:0A0B1200F000F801F2018020080055
:100B1C00B530F4000230F500033074078400003067
:100B2C00753D85007E300002F000F1010030F13B94
:100B3C002500390886003A08870070088100710882
:100B4C00413181000330740786000030753D870009
:100B5C007E3081003508F0003608F1003708F200CD
:060B6C003808F300080048
:100B720025003808F000F101F201F301FF30F00521
:100B82000030F1057008BD007108BE007F307002B0
:100B9200F2000030713BF3007208BD007308BE0022
:100BA20080307306F00080307002031DDA2D0030B1
:100BB20072020318FE2DF401F501F601F701350862
:100BC200F0003608F1003708F2003808F300472237
:100BD200013003180030F00070080319F92D0030BD
:100BE200F0000030F1008030F2007F30F300572E29
:100BF200F001F101F201F301572E25003E08003CFD
:100C0200031D052E3D08183C0318102E3508F00070
:100C12003608F1003708F2003808F300572E35087D
:100C2200F0003608F1003708F2003808F3005B21C3
:100C3200C22370082500B9007108BA007208BB000F
:100C42007308BC007008F4007108F5007208F60021
:100C52007308F7003508F0003608F1003708F20093
:100C62003808F3004722013003180030F000700802
:100C720003194E2E0030F4000030F5000030F6006B
:100C82007F30F70025003908F0003A08F1003B08F0
:100C9200F2003C08F300E323572E25003908F00048
:0E0CA2003A08F1003B08F2003C08F30008009D
:100CB000B5302500BB000230BC0003303B07840088
:100CC00000303C3D850000083907F10000303A3D16
:100CD000F2007108B9007208BA0080307206F000A4
:100CE00080307002031D762E0030710203187D2EB5
:100CF000F001F101F201F301BF2E8030F0008030ED
:100D00003A067002031D862E3908FF3C0318AE2EEA
:100D1000F401F501F601F7013508F0003608F1009D
:100D20003708F2003808F30047220130031800307A
:100D3000F00070080319A52EFF30F000FF30F1001D
:100D4000FF30F200FF30F300BF2EFF30F000FF3025
:100D5000F1007F30F200FF30F300BF2E033025009A
:100D60003B07860000303C3D87003908810035088C
:100D7000F0003608F1003708F2003808F3000800E8
:100D8000200073087706031DD22E72087606031D15
:100D9000D22E71087506031DD22E70087406031931
:0A0DA0000315080003110800080005
:100DAA002500B503B5033508003C0318E12EB50349
:100DBA00000000000000D82E000000000000000023
:040DCA00000008001D
:100DCE007408003A031D002F7508003A031D002F0A
:100DDE007608003A031D002F7708003A031D002FF6
:100DEE00FF30F000FF30F1007F30F200FF30F300F3
:100DFE009A2F2000770803198E2F73080319912F4D
:100E0E00720876068039FA00F217F617A1017208F9
:100E1E00F8007108FC007008FD007408FD027508EA
:100E2E00031C750FFC027608031C760FF802F801FE
:100E3E00FC01FD01031C2A2F0310F20CF10CF00C27
:100E4E00F80C0130A1007708F302031C342F7E301A
:100E5E002107F3070318942F392F7E302107F3074C
:100E6E00031C972F1830FA07FD0DFC0DF80DF00D31
:100E7E00F10DF20DA10D7408F0027508031C750F2B
:100E8E00F1027608031C760FF202760DA104211CE6
:100E9E00522F7D145D2F7408F00775080318750F17
:100EAE00F10776080318760AF2077D10FA031F3051
:100EBE007A05031D3B2F7B1B7D1C842F0310F00D29
:100ECE00F10DF20DA10D7408F0027508031C750FDB
:100EDE00F1027608031C760FF202760D2104013919
:100EEE00FD070318FC0A0319F80A031D842FF80CDA
:100EFE00FC0CFD0CF30A0319942FFA1FF813780853
:100F0E00F2007C08F1007D08F0000030992F0130CE
:100F1E004422992F02300320992F04301A20992F42
:080F2E0008300A200000080051
:100F360025003B08F0003C08F100F035F10DF035D6
:100F4600F10D70083907840071083A3D85000008E4
:100F5600BD0001310008BE0001310008BF000131AB
:100F66000008C0003B083C040319F32F3508F000C5
:100F76003608F1003708F2003808F3003D08F4009F
:100F86003E08F5003F08F6004008F700E42101306E
:100F96002500BB020030BC3B3B08F4003C08F500D2
:100FA600F435F50DF435F50D740839078400750828
:100FB6003A3D85000008F40001310008F5000131D2
:100FC6000008F60001310008F700AF207008250080
:100FD600BD007108BE007208BF007308C000B52FBF
:100FE6003D08F0003E08F1003F08F2004008F3001B
:020FF6000800F1
:10100000250022082300E900250023082300EA0028
:1010100025002408F0000130F2007008031913289D
:10102000F235FF3E0E2872082000A7007209A300C7
:1010300025002508F1000130F0007108031923286C
:10104000F035FF3E1E2870082000A200F00970084D
:10105000A40080302500220784000030233D850055
:1010600072088004700880052000A60125002A0867
:1010700003193C282000A60920008030840226089D
:10108000003A0319462824088005482822088004CD
:1010900080312E258831E830F4000330F500F60168
:1010A000F70180313525883170082500AB007108C3
:1010B000AC007208AD007308AE002608F0002708E7
:1010C000F1002808F2002908F300F035F10DF20DC7
:1010D000F30DF035F10DF20DF30D0A30F400F501CA
:1010E000F601F70180313525883170082500AF0001
:1010F0007108B0007208B1007308B2007008F40003
:101100007108F5007208F6007308F7002B08F0006C
:101110002C08F1002D08F2002E08F30080317C2409
:10112000883170082500B3007108B4007108F4001C
:10113000F501740875040319A0280230F000F9289D
:1011400033082000A50025002F08F4003008F50022
:101150003108F6003208F7002B08F0002C08F100E7
:101160002D08F2002E08F30080317C2488317808A5
:10117000F0007908F1007A08F2007B08F3007008AB
:101180002500AB007108AC007208AD007308AE001A
:101190002F08F5003008F6003108F7003208F80093
:1011A000F837F70CF60CF50C80307806F400803038
:1011B00073067402031DE62872087702031DE628F1
:1011C00071087602031DE628700875020318EA28E4
:1011D0002000A50A20002508F100F136710823003F
:1011E000EF00073071020318F8280130F000F928E9
:0411F000F001080002
:1011F4001C293030F00046293130F00046293230C5
:10120400F00046293330F00046293430F0004629F6
:101214003530F00046293630F00046293730F000EA
:1012240046293830F00046293930F00046292A3062
:10123400F000462925002208003A0319FB28220859
:10124400013A0319FE282208023A03190129220847
:10125400033A031904292208043A03190729220826
:10126400053A03190A292208063A03190D29220806
:10127400073A031910292208083A031913292208E6
:0A128400093A031916291929080078
:10128E00250022082300EB00250023082300EC0094
:0A129E00ED01EE010130E800080048
:1012A800F401F501F601F70125002208F0002308F2
:1012B800F1002408F2002508F3008031C0268831A7
:1012C8000130031D0030F000700803197429003044
:1012D800F0000030F1000030F2007F30F300942A73
:1012E80025002208F4002308F5002408F600250844
:1012F800F700FC30F000D430F1003230F2008530D5
:10130800F300803147228831013003180030F000A3
:10131800700803199829FF30F000FF30F1007F3082
:10132800F200FF30F300942A4F30F400AC30F5009F
:10133800AE30F6008530F70025002208F0002308BB
:10134800F1002408F2002508F30080314722883193
:10135800013003180030F00070080319B829F001B3
:10136800F101F201F301942AF401F501F601F70104
:1013780025002208F0002308F1002408F2002508BF
:10138800F300803147228831013003180030F00023
:1013980070082500A80070080319DA290030A20691
:1013A8000030A3068030A4060030A5062208F0000D
:1013B8002308F1002408F2002508F3003B30F4006C
:1013C800AA30F5003830F6007F30F7008031E4218C
:1013D800883170082500A2007108A3007208A400D3
:1013E8007308A5007008B5007108B6007208B70048
:1013F8007308B8008031B9258831803120248831BC
:1014080070082500A6007108A70080317125883171
:101418007008F4007108F5007208F6007308F70008
:1014280025002208F0002308F1002408F20025080E
:10143800F3008031E323883170082500A200710889
:10144800A3007208A4007308A5007008B50071080D
:10145800B6007208B7007308B8008630B9008F303C
:10146800BA000930BB000030BC0080319B278831AE
:101478007008B5007108B6007208B7007308B800A4
:101488002608B9002708BA00803158268831700824
:101498002500A2007108A3007208A4007308A50023
:1014A800280803198B2AFF30F400FF30F5007F303D
:1014B800F600FF30F7002208F0002308F1002408A6
:1014C800F2002508F3008031C02688310130031D61
:1014D8000030F00070080319762AF001F101F201DA
:1014E800F301942A25002208F4002308F5002408B3
:1014F800F6002508F7000030F0000030F100003059
:10150800F2007F30F3008031E7268831942A2500E5
:101518002208F0002308F1002408F2002508F3004F
:021528000800B9
:10152A0025002208F4002308F5002408F6002508FF
:10153A00F700F001F101F201F3018031472288310D
:10154A000130031C0030F00070080319B12AF001C1
:10155A00F101F201F3011D2B25002208B500230831
:10156A00B6002408B7002508B800A630B900023032
:10157A00BA0080318E2588310030F4000030F50041
:10158A000030F6008030F7008031E42188310030E5
:10159A00F4000030F5000030F6007F30F7008031AB
:1015AA00E323883170082500A2007108A30072089D
:1015BA00A4007308A5000130A6020030A73B7008FA
:1015CA00B5007108B6007208B7007308B800D430C5
:1015DA00B9008F30BA000830BB000030BC0080313F
:1015EA009B2788317008A2007108A3007208A40022
:1015FA007308A5002608F0002708F100803171253C
:10160A0088311830F4007230F5003130F6007E303F
:10161A00F7008031E421883125002208F4002308EC
:10162A00F5002408F6002508F7008031AF2088313C
:02163A000800A6
:10163C0001302500A300200026082500A206230067
:10164C00690884006A08850020002608003A0319FE
:10165C00322B22088004342B240880052508250011
:10166C00B5008031D5268831A209230803195B2BDC
:10167C0023082205F000031D472B200022088004BC
:10168C004A2B2000240880052500A33502302000B9
:10169C0025022500B5008031D526883100000000D8
:1016AC0000000000000000003B2B20002608003A40
:1016BC000319632B24088005652B22088004250858
:0C16CC002500B5008031D52688310800CB
:1016D8007408003A031D792B7508003A031D792B0D
:1016E800FF30F0007F30F100D32B2000FD01F9011D
:1016F800F801710870040319003471087506FA00BE
:10170800FA1BFD09FB01F51F8E2BF409F509F40AF4
:101718000319F50AF11F952BF009F109F00A0319CD
:10172800F10A71087504FA00FA1BAA2B8031F42318
:1017380088317B18BF2BFD1F0034F009F109F00A2E
:101748000319F10AF809F909F80A0319F90A003422
:10175800F51FBB2BF11BB72B7108F9007008F800B7
:10176800F101F0019F2BF101F001F00A0034F109B9
:10177800F009FB0A9C2BF80A0319F90A7408780285
:10178800031D9F2B75087902031D9F2BF901F80192
:10179800F00A0319F10AF11F9F2B0000FF3408001B
:1017A800833021009D0525002208F000F035F03532
:1017B800700821009D0480316B2588319D149D1C83
:1017C800E62BE32B1C08F100F0011B08F0040030A5
:0417D800F104080010
:1017DC00D4302000A8000B30A900A230AA0002309F
:0E17EC00AB00F03021009E009D011D1408008E
:1017FA00FF302400A800FF30A900FF30AA00FF3004
:10180A00AB00FF30AC00FF30AD000030AE0000305E
:10181A00AF00FF30A400FF30A5000030A600003062
:10182A00A700FF30A000FF30A1000030A200003066
:10183A00A30023009E1690309D0021008E170E13E0
:10184A002000911E2C2C23001908F000252C0800DA
:10185A002000FB01FA01F9018030F800F10CF00CCC
:10186A00031C402C7408F90775080318750FFA074A
:10187A000318FB0A0310F01F482C7408FA077508AE
:10188A000318750FFB07FB0CFA0CF90CF80C031C78
:10189A00332C7B08F3007A08F2007908F100780803
:0418AA00F000080042
:1018AE0020007008F800FB01FC019E30F300FA01E5
:1018BE00F201F101F0010230FC0080312620883166
:0218CE00080010
:1018D0002000FB01FC01FA0173080319A62CF21782
:1018E0008E30F302F31B772C0319772CA92CF30904
:1018F000F30A08307302031C8C2CF300F10D7208FC
:10190000F100F20108307302031C8C2CF10DF1017F
:101910007308031D0310942C73080319942C0310EF
:10192000F20CF10CF30B8F2C7B1B711C9E2C031CF7
:101930009E2CF10A0319F20AF21BB52CFA1FB82CDF
:10194000F209F109F10A0319F20AB82CF201F101C6
:10195000B82C7B14FB1FBB2CF201FA1FBB2CFF30F1
:10196000F200F100FA0DF20CBB2C0130FC00BD2C92
:101970000030FC00BD2CFF30FC00FC080319C32C18
:1019800080314E2188317108F0007208F1000800A2
:1019900023006808031DD22C01302500A20000306E
:1019A000A30047216B08F0006C08F1006D08F200FD
:1019B0006E08F3006D30F4004E30F500C630F600CE
:1019C0004130F70080313525883139307007F50016
:1019D0003030713DF6000030723DF7000030733D4D
:1019E000F8007708F0007808F1000030F81BFF30AD
:1019F000F300FF30F0057F30F1050030F205F3050C
:101A000070082300EB007108EC007208ED00730809
:041A1000EE000800DC
:101A1400EE23240062082500A200D4231D10080030
:101A24002400EE01F401F501F601F7016608F00067
:101A34006708F1006808F2006908F3008031C026E5
:101A440088310130031D0030F00070080319332D74
:101A54000030F0000030F1000030F2007F30F3007D
:101A6400FB2DF401F501F601F70124006208F000F2
:101A74006308F1006408F2006508F3008031C026B1
:101A840088310130031D0030F000700803194F2D18
:101A9400F001F101F201F301FB2DF401F501F6016E
:101AA400F70124006208F0006308F1006408F20002
:101AB4006508F30080314722883101300318003073
:101AC400F00070080319A22D24006608F0006708CE
:101AD400F1006808F2006908F30080315B21883165
:101AE40070082400EA007108EB007208EC00730827
:101AF400ED008031C223883124006608F4006708B1
:101B0400F5006808F6006908F7008031C0268831BE
:101B1400013003190030F00070080319962DF0010C
:101B2400F101F201F301FB2D013024006A05EE00FE
:101B34000030E2060030E3068030E4060030E506BB
:101B4400240062082500A200240063082500A300E5
:101B5400240064082500A400240065082500A500CD
:101B6400952270082400E2007108E3007208E40082
:101B74007308E5006608F4006708F5006808F600D5
:101B84006908F7008031E421883170082400E200FC
:101B94007108E3007208E4007308E500700825008A
:101BA400A2007108A3007208A4007308A5005421C0
:101BB40070082400E2007108E3007208E40073086E
:101BC400E5006E080319F32D00306206F0000030C2
:101BD4006306F10080306406F20000306506F3000D
:101BE400FB2D6208F0006308F1006408F200650848
:041BF400F3000800F2
:101BF80020007008F8007108F000F101F201F3010B
:101C0800FB01FC019630F300FA017008F100780836
:0E1C1800F000F801F2018031802088310800D0
:101C260024006208F4006308F5006408F6006508FD
:101C3600F700F001F101F201F3018031472288310A
:101C46000130031C0030F000700803192F2EF0013C
:101C5600F101F201F301402F24006208E600630857
:101C6600E7006408E8006508E9000030F400003089
:101C7600F5000030F6007F30F7006208F0006308D8
:101C8600F1006408F2006508F300803147228831CC
:101C9600013003180030F000700803196F2E24007D
:101CA6006608F4006708F5006808F6006908F7009A
:101CB6000030F0000030F1000030F2007F30F30019
:101CC6008031E726883170082400E6007108E700B5
:101CD6007208E8007308E900240066082500B500CC
:101CE600240067082500B600240068082500B70010
:101CF600240069082500B800A030B9000230BA00F7
:101D060080318E25883170082400E6007108E700CE
:101D16007208E8007308E90070082500B50071082C
:101D2600B6007208B7007308B8002008B900210889
:101D3600BA00BA37B90C80315826883170082400A9
:101D4600E6007108E7007208E8007308E900003051
:101D5600F4000030F5000030F6007F30F70062082E
:101D6600F0006308F1006408F2006508F3008031B2
:101D760047228831013003180030F000700803193B
:101D8600E12E24006608F4006708F5006808F600EE
:101D96006908F7000030F0000030F1000030F20072
:101DA6007F30F3008031E726883170082400E60092
:101DB6007108E7007208E8007308E900240014308F
:101DC600EE006608F4006708F5006808F600690882
:101DD600F7006208F0006308F1006408F200650885
:101DE600F3008031E726883124006608F40067088E
:101DF600F5006808F6006908F7008031AF208831E1
:101E06000030F4000030F5000030F6008030F700B6
:101E16008031E726883170082400EA007108EB005B
:101E26007208EC007308ED006608F4006708F50018
:101E36006808F6006908F7008031C026883101304D
:101E4600031D0030F000700803192A2F372F2400D5
:101E56006A08E6006B08E7006C08E8006D08E90010
:101E6600EE036E08031DE42E24006608F0006708E2
:0C1E7600F1006808F2006908F3000800A1
:101E8200703021009900073095002F3023008C001C
:101E92008D018F0190012F3021008C0020308D00A8
:101EA2008E018F01900120008C018D018E018F0126
:101EB2009001EE2323009F15CF309B009C011E153D
:101EC200FD230D302500A2000030A3000430A40041
:101ED2000630A5008030A6002530A700A801A90180
:101EE200AA0100201A30FC00F830FD00FD0B772F0C
:081EF200FC0B772F0000080033
:101EFA0012001E00F003031D7D2FF103031D7D2F29
:021F0A000800CD
:1020000058302500A20088311E2390313A30A200BA
:1020100088311E239031F401F501F601F701240007
:102020006208F0006308F1006408F2006508F3003C
:102030008031472290310130031C0030F0007008DD
:10204000031925282B30F00027282D30F0007008C8
:102050002500A20088311E239031F401F501F6011C
:10206000F70124006208F0006308F1006408F20040
:102070006508F3008031472290310130031C0030A5
:10208000F00070080319622824006208F000630859
:10209000F1006408F2006508F3000030F40000303D
:1020A000F5002030F6008230F7008031E4219031D5
:1020B00070082400EC007108ED007208EE0073084F
:1020C000EF008328240000306206F0000030630631
:1020D000F10080306406F20000306506F300003045
:1020E000F4000030F5002030F6008230F700803137
:1020F000E421903170082400EC007108ED007208B2
:10210000EE007308EF006C08F0006D08F1006E0837
:10211000F2006F08F3008031202490317008240011
:10212000EA007108EB00E830F4000330F500883174
:102130006C2390317808F0007908F10070082400D1
:10214000EC007108ED006430F4000030F5006A081E
:10215000F0006B08F10088316C2390317808F000B2
:102160007908F100700824006C02F00071086D3BE2
:10217000F1006430F4000030F50088316C239031B8
:1021800070082500A2008831FA20903170082500DF
:10219000A20088311E2390316430F4000030F50035
:1021A00024006A08F0006B08F10088316C2390313C
:1021B0007808F0007908F10070082400EC0071083C
:1021C000ED000A30F4000030F5006A08F0006B08FA
:1021D000F10088316C2390317808F0007908F10023
:1021E000700824006C02F00071086D3BF1000A30A9
:1021F000F4000030F50088316C2390317008250020
:10220000A2008831FA20903170082500A2008831A0
:102210001E2390312E30A20088311E2390310A30C7
:10222000F4000030F50024006A08F0006B08F100AB
:1022300088316C2390317808F0007908F10070083B
:102240002500A2008831FA20903170082500A200F4
:1022500088311E2390312030A20088311E23903116
:102260005930A20088311E2390313A30A2008831C3
:102270001E239031F401F501F601F70124006608F0
:10228000F0006708F1006808F2006908F300803187
:10229000472290310130031C0030F0007008031910
:1022A00054292B30F00056292D30F00070082500FD
:1022B000A20088311E239031F401F501F601F701E7
:1022C00024006608F0006708F1006808F200690859
:1022D000F3008031472290310130031C0030F000C0
:1022E00070080319912924006608F0006708F100BE
:1022F0006808F2006908F3000030F4000030F500CF
:102300002030F6008230F7008031E42190317008EF
:102310002400EC007108ED007208EE007308EF0075
:10232000B229240000306606F00000306706F10094
:1023300080306806F20000306906F3000030F400D7
:102340000030F5002030F6008230F7008031E421C3
:10235000903170082400EC007108ED007208EE0066
:102360007308EF006C08F0006D08F1006E08F200D1
:102370006F08F30080312024903170082400EA00B7
:102380007108EB00E830F4000330F50088316C236D
:1023900090317808F0007908F10070082400EC0012
:1023A0007108ED006430F4000030F5006A08F000B8
:1023B0006B08F10088316C2390317808F0007908BF
:1023C000F100700824006C02F00071086D3BF10010
:1023D0006430F4000030F50088316C2390317008CF
:1023E0002500A2008831FA20903170082500A20053
:1023F00088311E2390316430F4000030F500240051
:102400006A08F0006B08F10088316C23903178087D
:10241000F0007908F10070082400EC007108ED006C
:102420000A30F4000030F5006A08F0006B08F10093
:1024300088316C2390317808F0007908F100700839
:1024400024006C02F00071086D3BF1000A30F400CA
:102450000030F50088316C23903170082500A2000F
:102460008831FA20903170082500A20088311E239F
:1024700090312E30A20088311E2390310A30F400B2
:102480000030F50024006A08F0006B08F100883184
:102490006C2390317808F0007908F100700825006D
:1024A000A2008831FA20903170082500A2008831FE
:1024B0001E2390310A30A20088311E23903108007B
:10300000AE3084008F30850030308600023087007B
:103010002630F0000130F10088317D279831883169
:10302000412798312400D401D50180305506F000A5
:1030300080307002031D1E280F3054020318C5286B
:103040000C30DA002030DB001430F0000030F100EA
:103050005408F4005508F50088312D249831700883
:1030600024005A07860071085B3D870081014131C9
:10307000810141318101413181015A08D6005B084B
:10308000D7001430F0000030F1005408F400550867
:10309000F50088312D24983124005608F007570890
:1030A000F13D0430700786000030713D87008101DA
:1030B0004131810141318101413181015A08D600FC
:1030C0005B08D7001430F0000030F1005408F40021
:1030D0005508F50088312D24983124005608F00752
:1030E0005708F13D0830700786000030713D8700B9
:1030F00081014131810141318101413181015A0810
:10310000D6005B08D7001430F0000030F1005408FE
:10311000F4005508F50088312D2498312400560814
:10312000F0075708F13D0C30700786000030713D04
:1031300087008101413181014131810141318101AA
:103140005A08D6005B08D7001430F0000030F100B8
:103150005408F4005508F50088312D2498312400D6
:103160005608F0075708F13D103070078600003010
:10317000713D87008101413181014131810141313E
:103180008101D40A0319D50A1528D401D50180304C
:103190005506F00080307002031DD02864305402C0
:1031A000031810290330E20088310A25983188314C
:1031B000FC25983124003008F4003108F50032086D
:1031C000F6003308F7008031AF20983170082400F2
:1031D000B0007108B1007208B2007308B300043087
:1031E000E20088310A2598318831FC259831240085
:1031F0003408F4003508F5003608F6003708F70003
:103200008031AF20983170082400B4007108B500F7
:103210007208B6007308B700D40A0319D50AC72884
:103220000030F4000030F5004830F6008530F7003B
:103230003008F0003108F1003208F2003308F300E2
:103240008031E726983170082400B0007108B10081
:103250007208B2007308B3000030F4000030F500CB
:103260004830F6008530F7003408F0003508F100EA
:103270003608F2003708F3008031E72698317008ED
:103280002400B4007108B5007208B6007308B700D6
:1032900024000330E20088310A2598318831FC256A
:1032A000983124003008F4003108F5003208F600A7
:1032B0003308F7008031E32398314C30F400373085
:1032C000F5000930F6007030F7008031E4219831C4
:1032D00070082400B8007108B9007208BA007308B9
:1032E000BB000430E20088310A2598318831FC2582
:1032F000983124003408F4003508F5003608F6004B
:103300003708F7008031E32398314C30F400373030
:10331000F5000930F6007030F7008031E421983173
:1033200070082400BC007108BD007208BE0073085C
:10333000BF003808F0003908F1003A08F2003B08F5
:10334000F300CD30F400CC30F5004C30F6007B308B
:10335000F7008031E421983170082400C000710822
:10336000C1007208C2007308C3003C08F0003D08A9
:10337000F1003E08F2003F08F300CD30F400CC30FD
:10338000F5004C30F6007B30F7008031E4219831B5
:1033900070082400C4007108C5007208C6007308D4
:1033A000C7004008F0004108F1004208F20043085D
:1033B000F300CD30F400CC30F5004C30F6007B301B
:1033C000F7008031E421983170082400C8007108AA
:1033D000C9007208CA007308CB004408F000450811
:1033E000F1004608F2004708F300CD30F400CC307D
:1033F000F5004C30F6007B30F7008031E421983145
:1034000070082400CC007108CD007208CE0073084B
:10341000CF00200095012400D401D501803055064D
:10342000F00080307002031D172A0F305402031879
:10343000B72B20001508F0008831572498318831C7
:103440006824983170082500A2007108A300883113
:10345000472198310C302400E0002030E100143086
:10346000F0000030F1005408F4005508F5008831F0
:103470002D24983124006008F0076108F13D7008A0
:10348000DE007108DF008831C824983170082400FC
:10349000D6007108D7000030E2000030E300203091
:1034A000E4008230E5000030E6000030E700003044
:1034B000E8008030E90088311225983180312024DD
:1034C00098317008F4007108F50024005608F000E7
:1034D0005708F10088316C2398317808F00079089A
:1034E000F10080317125983124004808F400490822
:1034F000F5004A08F6004B08F7008031AF209831FC
:1035000070082400DA007108DB007208DC00730820
:10351000DD000C30D6002030D7001430F000003031
:10352000F1005408F4005508F50088312D24983135
:1035300024005608F0075708F13D1030700784004A
:103540000030713D85000008F00001310008F100F5
:1035500001310008F20001310008F3005A08F400BC
:103560005B08F5005C08F6005D08F7008031E42197
:10357000983124005E0886005F088700700881008B
:103580007108413181007208413181007308413175
:1035900081006008D6006108D7001430F0000030C8
:1035A000F1005408F4005508F50088312D249831B5
:1035B00024005608F0075708F13D04307007DE007C
:1035C0000030713DDF008831C82498317008240034
:1035D000D6007108D7000030E2000030E300203050
:1035E000E4008230E5000030E6000030E700003003
:1035F000E8008030E900883112259831803120249C
:1036000098317008F4007108F50024005608F000A5
:103610005708F10088316C2398317808F000790858
:10362000F10080317125983124004C08F4004D08D8
:10363000F5004E08F6004F08F7008031AF209831B2
:1036400070082400DA007108DB007208DC007308DF
:10365000DD000C30D6002030D7001430F0000030F0
:10366000F1005408F4005508F50088312D249831F4
:1036700024005608F0075708F13D10307007840009
:103680000030713D85000008F00001310008F100B4
:1036900001310008F20001310008F3005A08F4007B
:1036A0005B08F5005C08F6005D08F7008031E42156
:1036B000983124005E0886005F088700700881004A
:1036C0007108413181007208413181007308413134
:1036D00081006008D6006108D7001430F000003087
:1036E000F1005408F4005508F50088312D24983174
:1036F00024005608F0075708F13D0830700786008F
:103700000030713D8700400881004108413181004F
:103710004208413181004308413181006008D600F0
:103720006108D7001430F0000030F1005408F400B4
:103730005508F50088312D24983124005608F007EB
:103740005708F13D0C30700786000030713D87004E
:10375000440881004508413181004608413181001B
:10376000470841318100D40A0319D50A0E2AD40131
:10377000D50180305506F00080307002031DC22B49
:103780000F3054020318F82C0C30DE002030DF001C
:103790001430F0000030F1005408F4005508F50032
:1037A00088312D24983124005E08F0075F08F13D30
:1037B0007008DA007108DB00700884007108850069
:1037C0000008D60001310008D70001310008D800F8
:1037D00001310008D9000830700784000030713DC5
:1037E00085000008F00001310008F10001310008F7
:1037F000F20001310008F300CD30F400CC30F500C8
:103800004C30F6007B30F7008031E4219831240001
:103810005608F4005708F5005808F6005908F70054
:103820008031AF20983124005A0886005B08870059
:1038300070088100710841318100720841318100B6
:103840007308413181005E08D6005F08D70014304C
:10385000F0000030F1005408F4005508F5008831FC
:103860002D249831700824005607F2007108573D46
:10387000F30004307207DA000030733DDB005E08AD
:10388000F0075F08F13D0430700784000030713D9F
:1038900085000008D60001310008D700013100087A
:1038A000D80001310008D9000C30700784000030C6
:1038B000713D85000008F00001310008F100013180
:1038C0000008F20001310008F300CD30F400CC30E4
:1038D000F5004C30F6007B30F7008031E421983160
:1038E00024005608F4005708F5005808F600590857
:1038F000F7008031AF20983124005A0886005B0819
:1039000087007008810071084131810072084131DF
:1039100081007308413181005E08D6005F08D7003E
:103920001430F0000030F1005408F4005508F500A0
:1039300088312D249831700824005607F200710850
:10394000573DF3000830720786000030733D870052
:103950005E08F0075F08F13D083070078400003012
:10396000713D85000008810001310008413181006E
:1039700001310008413181000131000841318100ED
:103980005E08D6005F08D7001430F0000030F10068
:103990005408F4005508F50088312D24983170083A
:1039A00024005607F2007108573DF3000C307207EF
:1039B00086000030733D87005E08F0075F08F13D28
:1039C0000C30700784000030713D850000088100D4
:1039D000013100084131810001310008413181008D
:1039E0000131000841318100D40A0319D50AB92BED
:1039F000D401D50180305506F00080307002031DDF
:103A0000032D0F3054020318792E0C30D6002030CD
:103A1000D7001430F0000030F1005408F4005508CD
:103A2000F50088312D249831700824005607840051
:103A30007108573D85000008F00001310008F100D1
:103A400001310008F20001310008F3004808F400D9
:103A50004908F5004A08F6004B08F7008031E323D7
:103A6000983170082400E2007108E3007208E40055
:103A70007308E5000030E6000030E7000030E800A1
:103A80008030E90088311225983170082400DA006E
:103A90007108DB007208DC007308DD000C30D60012
:103AA0002030D7001430F0000030F1005408F4004A
:103AB0005508F50088312D24983124005608F00768
:103AC0005708F13D0430700784000030713D8500D7
:103AD0000008F00001310008F10001310008F20097
:103AE00001310008F3004C08F4004D08F5004E08C1
:103AF000F6004F08F7008031E32398317008240066
:103B0000E2007108E3007208E4007308E500003089
:103B1000E6000030E7000030E8008030E90088313E
:103B20001225983124005A08F4005B08F5005C085F
:103B3000F6005D08F7008031AF209831700824004E
:103B4000E2007108E3007208E4007308E5008831C0
:103B50001326983170082400D0007108D100720833
:103B6000D2007308D3000C30D6002030D7001430B8
:103B7000F0000030F1005408F4005508F5008831D9
:103B80002D24983124005608F0075708F13D1030D5
:103B90007007DE000030713DDF00DB30E2000F30E7
:103BA000E3004930E4008130E50088311326983184
:103BB0007008F4007108F5007208F6007308F70049
:103BC0000030F0000030F1000030F2007F30F300F0
:103BD0008031E726983170082400DA007108DB0094
:103BE0007208DC007308DD005008E2005108E300B1
:103BF0005208E4005308E5000030E6000030E7001A
:103C00000030E8008030E90088311225983100301A
:103C1000F4000030F5008030F6007F30F70080318E
:103C2000E421983170082400D6007108D70072088A
:103C3000D8007308D9000030E2000030E3002030E3
:103C4000E4008230E5000030E6000030E70000309C
:103C5000E8008030E9008831122598310030F40006
:103C60000030F5000030F6008030F7008031E421AC
:103C700098317008F4007108F5007208F6007308B6
:103C8000F70024005608F0005708F1005808F20029
:103C90005908F3008031E726983170082500A2000A
:103CA0007108A3007208A4007308A500883154218C
:103CB000983124005A08F4005B08F5005C08F6000F
:103CC0005D08F7008031E421983124005E08860009
:103CD0005F08870070088100710841318100720817
:103CE00041318100730841318100D40A0319D50A9A
:103CF000FA2CC801C901CA01CB01CC01CD01CE010A
:103D0000CF01D401D50180305506F000803070021B
:103D1000031D8C2E0F30540203181C2F0C30D600BC
:103D20002030D7001430F0000030F1005408F400C7
:103D30005508F50088312D24983170082400560765
:103D4000DA007108573DDB005A0884005B088500E3
:103D50000008F40001310008F50001310008F60008
:103D600001310008F70010305A07D60000305B3DE3
:103D7000D70056088400570885000008F00001317C
:103D80000008F10001310008F20001310008F300E1
:103D90008031E421983124004808F4004908F500F6
:103DA0004A08F6004B08F7008031AF2098317008C0
:103DB0002400C8007108C9007208CA007308CB004B
:103DC00004305A07840000305B3D85000008F40091
:103DD00001310008F50001310008F600013100084A
:103DE000F70056088400570885000008F0000131EC
:103DF0000008F10001310008F20001310008F30071
:103E00008031E421983124004C08F4004D08F5007D
:103E10004E08F6004F08F7008031AF209831700847
:103E20002400CC007108CD007208CE007308CF00CA
:103E3000D40A0319D50A832E0030F4000030F500AF
:103E40007030F6008230F7004808F0004908F100B1
:103E50004A08F2004B08F3008031E72698317008D9
:103E60002400C8007108C9007208CA007308CB009A
:103E70000030F4000030F5007030F6008230F700BA
:103E80004C08F0004D08F1004E08F2004F08F30016
:103E90008031E726983170082400CC007108CD00ED
:103EA0007208CE007308CF004808E2004908E3001A
:103EB0004A08E4004B08E5007008E6007108E700D6
:103EC0007208E8007308E900903100209831482911
:023ED000682F59
:101F0C000034003400347F341834723431347E346D
:101F1C00F034FD3475347C344734583463347A34BB
:101F2C00583495341D3478348234C4342E3475349A
:101F3C00A834783421347234EF34933400346F3451
:101F4C00A034923427346B34463456341534683408
:081F5C000034003400340034AD
:081F64000034003400340034A5
:081F6C0000340034003400349D
:081F7400003400340034003495
:081F7C0000340034003400348D
:081F8400003400340034003485
:081F8C0000340034003400347D
:081F9400003400340034003475
:081F9C0000340034003400346D
:041FA40000340034D1
:101FA800FF34E6345B345D34C434FF347F347E342C
:101FB8008034EF34FF347D349034E13429347D3477
:101FC800EC348234F6347C348234AD342B347C34B3
:101FD8000E343C34C3347B348734D13413347A34EC
:081FE80041347834D33477341E
:020000040001F9
:04000E00A43F3316C2
:00000001FF
